{
	"data": {
		"bytecode": {
			"linkReferences": {},
			"object": "60806040523480156200001157600080fd5b50604051620015f7380380620015f783398181016040528101906200003791906200019c565b81600590805190602001906200004f9291906200007a565b508060069080519060200190620000689291906200007a565b50610528600481905550505062000340565b8280546200008890620002ac565b90600052602060002090601f016020900481019282620000ac5760008555620000f8565b82601f10620000c757805160ff1916838001178555620000f8565b82800160010185558215620000f8579182015b82811115620000f7578251825591602001919060010190620000da565b5b5090506200010791906200010b565b5090565b5b80821115620001265760008160009055506001016200010c565b5090565b6000620001416200013b8462000243565b6200020f565b9050828152602081018484840111156200015a57600080fd5b6200016784828562000276565b509392505050565b600082601f8301126200018157600080fd5b8151620001938482602086016200012a565b91505092915050565b60008060408385031215620001b057600080fd5b600083015167ffffffffffffffff811115620001cb57600080fd5b620001d9858286016200016f565b925050602083015167ffffffffffffffff811115620001f757600080fd5b62000205858286016200016f565b9150509250929050565b6000604051905081810181811067ffffffffffffffff8211171562000239576200023862000311565b5b8060405250919050565b600067ffffffffffffffff82111562000261576200026062000311565b5b601f19601f8301169050602081019050919050565b60005b838110156200029657808201518184015260208101905062000279565b83811115620002a6576000848401525b50505050565b60006002820490506001821680620002c557607f821691505b60208210811415620002dc57620002db620002e2565b5b50919050565b7f4e487b7100000000000000000000000000000000000000000000000000000000600052602260045260246000fd5b7f4e487b7100000000000000000000000000000000000000000000000000000000600052604160045260246000fd5b6112a780620003506000396000f3fe608060405234801561001057600080fd5b50600436106100b45760003560e01c806370a082311161007157806370a08231146101a357806395d89b41146101d3578063a457c2d7146101f1578063a9059cbb14610221578063dd62ed3e14610251578063fd0ae74f14610281576100b4565b806306fdde03146100b9578063095ea7b3146100d757806318160ddd1461010757806323b872dd14610125578063313ce567146101555780633950935114610173575b600080fd5b6100c161029f565b6040516100ce9190610f90565b60405180910390f35b6100f160048036038101906100ec9190610c6f565b610331565b6040516100fe9190610f75565b60405180910390f35b61010f61034f565b60405161011c9190611072565b60405180910390f35b61013f600480360381019061013a9190610c20565b610359565b60405161014c9190610f75565b60405180910390f35b61015d610451565b60405161016a919061108d565b60405180910390f35b61018d60048036038101906101889190610c6f565b61045a565b60405161019a9190610f75565b60405180910390f35b6101bd60048036038101906101b89190610bbb565b610506565b6040516101ca9190611072565b60405180910390f35b6101db61054e565b6040516101e89190610f90565b60405180910390f35b61020b60048036038101906102069190610c6f565b6105e0565b6040516102189190610f75565b60405180910390f35b61023b60048036038101906102369190610c6f565b6106cb565b6040516102489190610f75565b60405180910390f35b61026b60048036038101906102669190610be4565b6106e9565b6040516102789190611072565b60405180910390f35b610289610770565b6040516102969190611072565b60405180910390f35b6060600580546102ae906111a2565b80601f01602080910402602001604051908101604052809291908181526020018280546102da906111a2565b80156103275780601f106102fc57610100808354040283529160200191610327565b820191906000526020600020905b81548152906001019060200180831161030a57829003601f168201915b5050505050905090565b600061034561033e610776565b848461077e565b6001905092915050565b6000600354905090565b6000610366848484610949565b6000600260008673ffffffffffffffffffffffffffffffffffffffff1673ffffffffffffffffffffffffffffffffffffffff16815260200190815260200160002060006103b1610776565b73ffffffffffffffffffffffffffffffffffffffff1673ffffffffffffffffffffffffffffffffffffffff16815260200190815260200160002054905082811015610431576040517f08c379a000000000000000000000000000000000000000000000000000000000815260040161042890610ff2565b60405180910390fd5b6104458561043d610776565b85840361077e565b60019150509392505050565b60006012905090565b60006104fc610467610776565b848460026000610475610776565b73ffffffffffffffffffffffffffffffffffffffff1673ffffffffffffffffffffffffffffffffffffffff16815260200190815260200160002060008873ffffffffffffffffffffffffffffffffffffffff1673ffffffffffffffffffffffffffffffffffffffff168152602001908152602001600020546104f791906110c4565b61077e565b6001905092915050565b60008060008373ffffffffffffffffffffffffffffffffffffffff1673ffffffffffffffffffffffffffffffffffffffff168152602001908152602001600020549050919050565b60606006805461055d906111a2565b80601f0160208091040260200160405190810160405280929190818152602001828054610589906111a2565b80156105d65780601f106105ab576101008083540402835291602001916105d6565b820191906000526020600020905b8154815290600101906020018083116105b957829003601f168201915b5050505050905090565b600080600260006105ef610776565b73ffffffffffffffffffffffffffffffffffffffff1673ffffffffffffffffffffffffffffffffffffffff16815260200190815260200160002060008573ffffffffffffffffffffffffffffffffffffffff1673ffffffffffffffffffffffffffffffffffffffff168152602001908152602001600020549050828110156106ac576040517f08c379a00000000000000000000000000000000000000000000000000000000081526004016106a390611052565b60405180910390fd5b6106c06106b7610776565b8585840361077e565b600191505092915050565b60006106df6106d8610776565b8484610949565b6001905092915050565b6000600260008473ffffffffffffffffffffffffffffffffffffffff1673ffffffffffffffffffffffffffffffffffffffff16815260200190815260200160002060008373ffffffffffffffffffffffffffffffffffffffff1673ffffffffffffffffffffffffffffffffffffffff16815260200190815260200160002054905092915050565b60045481565b600033905090565b600073ffffffffffffffffffffffffffffffffffffffff168373ffffffffffffffffffffffffffffffffffffffff1614156107ee576040517f08c379a00000000000000000000000000000000000000000000000000000000081526004016107e590611032565b60405180910390fd5b600073ffffffffffffffffffffffffffffffffffffffff168273ffffffffffffffffffffffffffffffffffffffff16141561085e576040517f08c379a000000000000000000000000000000000000000000000000000000000815260040161085590610fd2565b60405180910390fd5b80600260008573ffffffffffffffffffffffffffffffffffffffff1673ffffffffffffffffffffffffffffffffffffffff16815260200190815260200160002060008473ffffffffffffffffffffffffffffffffffffffff1673ffffffffffffffffffffffffffffffffffffffff168152602001908152602001600020819055508173ffffffffffffffffffffffffffffffffffffffff168373ffffffffffffffffffffffffffffffffffffffff167f8c5be1e5ebec7d5bd14f71427d1e84f3dd0314c0f7b2291e5b200ac8c7c3b9258360405161093c9190611072565b60405180910390a3505050565b600073ffffffffffffffffffffffffffffffffffffffff168373ffffffffffffffffffffffffffffffffffffffff1614156109b9576040517f08c379a00000000000000000000000000000000000000000000000000000000081526004016109b090611012565b60405180910390fd5b600073ffffffffffffffffffffffffffffffffffffffff168273ffffffffffffffffffffffffffffffffffffffff161415610a29576040517f08c379a0000000000000000000000000000000000000000000000000000000008152600401610a2090610fb2565b60405180910390fd5b610a34838383610b87565b60008060008573ffffffffffffffffffffffffffffffffffffffff1673ffffffffffffffffffffffffffffffffffffffff1681526020019081526020016000205490508181036000808673ffffffffffffffffffffffffffffffffffffffff1673ffffffffffffffffffffffffffffffffffffffff16815260200190815260200160002081905550816000808573ffffffffffffffffffffffffffffffffffffffff1673ffffffffffffffffffffffffffffffffffffffff1681526020019081526020016000206000828254610b0a91906110c4565b925050819055508273ffffffffffffffffffffffffffffffffffffffff168473ffffffffffffffffffffffffffffffffffffffff167fddf252ad1be2c89b69c2b068fc378daa952ba7f163c4a11628f55a4df523b3ef84604051610b6e9190611072565b60405180910390a3610b81848484610b8c565b50505050565b505050565b505050565b600081359050610ba081611243565b92915050565b600081359050610bb58161125a565b92915050565b600060208284031215610bcd57600080fd5b6000610bdb84828501610b91565b91505092915050565b60008060408385031215610bf757600080fd5b6000610c0585828601610b91565b9250506020610c1685828601610b91565b9150509250929050565b600080600060608486031215610c3557600080fd5b6000610c4386828701610b91565b9350506020610c5486828701610b91565b9250506040610c6586828701610ba6565b9150509250925092565b60008060408385031215610c8257600080fd5b6000610c9085828601610b91565b9250506020610ca185828601610ba6565b9150509250929050565b610cb48161112c565b82525050565b6000610cc5826110a8565b610ccf81856110b3565b9350610cdf81856020860161116f565b610ce881611232565b840191505092915050565b6000610d006023836110b3565b91507f45524332303a207472616e7366657220746f20746865207a65726f206164647260008301527f65737300000000000000000000000000000000000000000000000000000000006020830152604082019050919050565b6000610d666022836110b3565b91507f45524332303a20617070726f766520746f20746865207a65726f20616464726560008301527f73730000000000000000000000000000000000000000000000000000000000006020830152604082019050919050565b6000610dcc6028836110b3565b91507f45524332303a207472616e7366657220616d6f756e742065786365656473206160008301527f6c6c6f77616e63650000000000000000000000000000000000000000000000006020830152604082019050919050565b6000610e326025836110b3565b91507f45524332303a207472616e736665722066726f6d20746865207a65726f20616460008301527f64726573730000000000000000000000000000000000000000000000000000006020830152604082019050919050565b6000610e986024836110b3565b91507f45524332303a20617070726f76652066726f6d20746865207a65726f2061646460008301527f72657373000000000000000000000000000000000000000000000000000000006020830152604082019050919050565b6000610efe6025836110b3565b91507f45524332303a2064656372656173656420616c6c6f77616e63652062656c6f7760008301527f207a65726f0000000000000000000000000000000000000000000000000000006020830152604082019050919050565b610f6081611158565b82525050565b610f6f81611162565b82525050565b6000602082019050610f8a6000830184610cab565b92915050565b60006020820190508181036000830152610faa8184610cba565b905092915050565b60006020820190508181036000830152610fcb81610cf3565b9050919050565b60006020820190508181036000830152610feb81610d59565b9050919050565b6000602082019050818103600083015261100b81610dbf565b9050919050565b6000602082019050818103600083015261102b81610e25565b9050919050565b6000602082019050818103600083015261104b81610e8b565b9050919050565b6000602082019050818103600083015261106b81610ef1565b9050919050565b60006020820190506110876000830184610f57565b92915050565b60006020820190506110a26000830184610f66565b92915050565b600081519050919050565b600082825260208201905092915050565b60006110cf82611158565b91506110da83611158565b9250827fffffffffffffffffffffffffffffffffffffffffffffffffffffffffffffffff0382111561110f5761110e6111d4565b5b828201905092915050565b600061112582611138565b9050919050565b60008115159050919050565b600073ffffffffffffffffffffffffffffffffffffffff82169050919050565b6000819050919050565b600060ff82169050919050565b60005b8381101561118d578082015181840152602081019050611172565b8381111561119c576000848401525b50505050565b600060028204905060018216806111ba57607f821691505b602082108114156111ce576111cd611203565b5b50919050565b7f4e487b7100000000000000000000000000000000000000000000000000000000600052601160045260246000fd5b7f4e487b7100000000000000000000000000000000000000000000000000000000600052602260045260246000fd5b6000601f19601f8301169050919050565b61124c8161111a565b811461125757600080fd5b50565b61126381611158565b811461126e57600080fd5b5056fea2646970667358221220b9184d7871a9740ab3c864e136a2e7ab1be612d5ca676e4a0e23bf69d5024a7364736f6c63430008000033",
			"opcodes": "PUSH1 0x80 PUSH1 0x40 MSTORE CALLVALUE DUP1 ISZERO PUSH3 0x11 JUMPI PUSH1 0x0 DUP1 REVERT JUMPDEST POP PUSH1 0x40 MLOAD PUSH3 0x15F7 CODESIZE SUB DUP1 PUSH3 0x15F7 DUP4 CODECOPY DUP2 DUP2 ADD PUSH1 0x40 MSTORE DUP2 ADD SWAP1 PUSH3 0x37 SWAP2 SWAP1 PUSH3 0x19C JUMP JUMPDEST DUP2 PUSH1 0x5 SWAP1 DUP1 MLOAD SWAP1 PUSH1 0x20 ADD SWAP1 PUSH3 0x4F SWAP3 SWAP2 SWAP1 PUSH3 0x7A JUMP JUMPDEST POP DUP1 PUSH1 0x6 SWAP1 DUP1 MLOAD SWAP1 PUSH1 0x20 ADD SWAP1 PUSH3 0x68 SWAP3 SWAP2 SWAP1 PUSH3 0x7A JUMP JUMPDEST POP PUSH2 0x528 PUSH1 0x4 DUP2 SWAP1 SSTORE POP POP POP PUSH3 0x340 JUMP JUMPDEST DUP3 DUP1 SLOAD PUSH3 0x88 SWAP1 PUSH3 0x2AC JUMP JUMPDEST SWAP1 PUSH1 0x0 MSTORE PUSH1 0x20 PUSH1 0x0 KECCAK256 SWAP1 PUSH1 0x1F ADD PUSH1 0x20 SWAP1 DIV DUP2 ADD SWAP3 DUP3 PUSH3 0xAC JUMPI PUSH1 0x0 DUP6 SSTORE PUSH3 0xF8 JUMP JUMPDEST DUP3 PUSH1 0x1F LT PUSH3 0xC7 JUMPI DUP1 MLOAD PUSH1 0xFF NOT AND DUP4 DUP1 ADD OR DUP6 SSTORE PUSH3 0xF8 JUMP JUMPDEST DUP3 DUP1 ADD PUSH1 0x1 ADD DUP6 SSTORE DUP3 ISZERO PUSH3 0xF8 JUMPI SWAP2 DUP3 ADD JUMPDEST DUP3 DUP2 GT ISZERO PUSH3 0xF7 JUMPI DUP3 MLOAD DUP3 SSTORE SWAP2 PUSH1 0x20 ADD SWAP2 SWAP1 PUSH1 0x1 ADD SWAP1 PUSH3 0xDA JUMP JUMPDEST JUMPDEST POP SWAP1 POP PUSH3 0x107 SWAP2 SWAP1 PUSH3 0x10B JUMP JUMPDEST POP SWAP1 JUMP JUMPDEST JUMPDEST DUP1 DUP3 GT ISZERO PUSH3 0x126 JUMPI PUSH1 0x0 DUP2 PUSH1 0x0 SWAP1 SSTORE POP PUSH1 0x1 ADD PUSH3 0x10C JUMP JUMPDEST POP SWAP1 JUMP JUMPDEST PUSH1 0x0 PUSH3 0x141 PUSH3 0x13B DUP5 PUSH3 0x243 JUMP JUMPDEST PUSH3 0x20F JUMP JUMPDEST SWAP1 POP DUP3 DUP2 MSTORE PUSH1 0x20 DUP2 ADD DUP5 DUP5 DUP5 ADD GT ISZERO PUSH3 0x15A JUMPI PUSH1 0x0 DUP1 REVERT JUMPDEST PUSH3 0x167 DUP5 DUP3 DUP6 PUSH3 0x276 JUMP JUMPDEST POP SWAP4 SWAP3 POP POP POP JUMP JUMPDEST PUSH1 0x0 DUP3 PUSH1 0x1F DUP4 ADD SLT PUSH3 0x181 JUMPI PUSH1 0x0 DUP1 REVERT JUMPDEST DUP2 MLOAD PUSH3 0x193 DUP5 DUP3 PUSH1 0x20 DUP7 ADD PUSH3 0x12A JUMP JUMPDEST SWAP2 POP POP SWAP3 SWAP2 POP POP JUMP JUMPDEST PUSH1 0x0 DUP1 PUSH1 0x40 DUP4 DUP6 SUB SLT ISZERO PUSH3 0x1B0 JUMPI PUSH1 0x0 DUP1 REVERT JUMPDEST PUSH1 0x0 DUP4 ADD MLOAD PUSH8 0xFFFFFFFFFFFFFFFF DUP2 GT ISZERO PUSH3 0x1CB JUMPI PUSH1 0x0 DUP1 REVERT JUMPDEST PUSH3 0x1D9 DUP6 DUP3 DUP7 ADD PUSH3 0x16F JUMP JUMPDEST SWAP3 POP POP PUSH1 0x20 DUP4 ADD MLOAD PUSH8 0xFFFFFFFFFFFFFFFF DUP2 GT ISZERO PUSH3 0x1F7 JUMPI PUSH1 0x0 DUP1 REVERT JUMPDEST PUSH3 0x205 DUP6 DUP3 DUP7 ADD PUSH3 0x16F JUMP JUMPDEST SWAP2 POP POP SWAP3 POP SWAP3 SWAP1 POP JUMP JUMPDEST PUSH1 0x0 PUSH1 0x40 MLOAD SWAP1 POP DUP2 DUP2 ADD DUP2 DUP2 LT PUSH8 0xFFFFFFFFFFFFFFFF DUP3 GT OR ISZERO PUSH3 0x239 JUMPI PUSH3 0x238 PUSH3 0x311 JUMP JUMPDEST JUMPDEST DUP1 PUSH1 0x40 MSTORE POP SWAP2 SWAP1 POP JUMP JUMPDEST PUSH1 0x0 PUSH8 0xFFFFFFFFFFFFFFFF DUP3 GT ISZERO PUSH3 0x261 JUMPI PUSH3 0x260 PUSH3 0x311 JUMP JUMPDEST JUMPDEST PUSH1 0x1F NOT PUSH1 0x1F DUP4 ADD AND SWAP1 POP PUSH1 0x20 DUP2 ADD SWAP1 POP SWAP2 SWAP1 POP JUMP JUMPDEST PUSH1 0x0 JUMPDEST DUP4 DUP2 LT ISZERO PUSH3 0x296 JUMPI DUP1 DUP3 ADD MLOAD DUP2 DUP5 ADD MSTORE PUSH1 0x20 DUP2 ADD SWAP1 POP PUSH3 0x279 JUMP JUMPDEST DUP4 DUP2 GT ISZERO PUSH3 0x2A6 JUMPI PUSH1 0x0 DUP5 DUP5 ADD MSTORE JUMPDEST POP POP POP POP JUMP JUMPDEST PUSH1 0x0 PUSH1 0x2 DUP3 DIV SWAP1 POP PUSH1 0x1 DUP3 AND DUP1 PUSH3 0x2C5 JUMPI PUSH1 0x7F DUP3 AND SWAP2 POP JUMPDEST PUSH1 0x20 DUP3 LT DUP2 EQ ISZERO PUSH3 0x2DC JUMPI PUSH3 0x2DB PUSH3 0x2E2 JUMP JUMPDEST JUMPDEST POP SWAP2 SWAP1 POP JUMP JUMPDEST PUSH32 0x4E487B7100000000000000000000000000000000000000000000000000000000 PUSH1 0x0 MSTORE PUSH1 0x22 PUSH1 0x4 MSTORE PUSH1 0x24 PUSH1 0x0 REVERT JUMPDEST PUSH32 0x4E487B7100000000000000000000000000000000000000000000000000000000 PUSH1 0x0 MSTORE PUSH1 0x41 PUSH1 0x4 MSTORE PUSH1 0x24 PUSH1 0x0 REVERT JUMPDEST PUSH2 0x12A7 DUP1 PUSH3 0x350 PUSH1 0x0 CODECOPY PUSH1 0x0 RETURN INVALID PUSH1 0x80 PUSH1 0x40 MSTORE CALLVALUE DUP1 ISZERO PUSH2 0x10 JUMPI PUSH1 0x0 DUP1 REVERT JUMPDEST POP PUSH1 0x4 CALLDATASIZE LT PUSH2 0xB4 JUMPI PUSH1 0x0 CALLDATALOAD PUSH1 0xE0 SHR DUP1 PUSH4 0x70A08231 GT PUSH2 0x71 JUMPI DUP1 PUSH4 0x70A08231 EQ PUSH2 0x1A3 JUMPI DUP1 PUSH4 0x95D89B41 EQ PUSH2 0x1D3 JUMPI DUP1 PUSH4 0xA457C2D7 EQ PUSH2 0x1F1 JUMPI DUP1 PUSH4 0xA9059CBB EQ PUSH2 0x221 JUMPI DUP1 PUSH4 0xDD62ED3E EQ PUSH2 0x251 JUMPI DUP1 PUSH4 0xFD0AE74F EQ PUSH2 0x281 JUMPI PUSH2 0xB4 JUMP JUMPDEST DUP1 PUSH4 0x6FDDE03 EQ PUSH2 0xB9 JUMPI DUP1 PUSH4 0x95EA7B3 EQ PUSH2 0xD7 JUMPI DUP1 PUSH4 0x18160DDD EQ PUSH2 0x107 JUMPI DUP1 PUSH4 0x23B872DD EQ PUSH2 0x125 JUMPI DUP1 PUSH4 0x313CE567 EQ PUSH2 0x155 JUMPI DUP1 PUSH4 0x39509351 EQ PUSH2 0x173 JUMPI JUMPDEST PUSH1 0x0 DUP1 REVERT JUMPDEST PUSH2 0xC1 PUSH2 0x29F JUMP JUMPDEST PUSH1 0x40 MLOAD PUSH2 0xCE SWAP2 SWAP1 PUSH2 0xF90 JUMP JUMPDEST PUSH1 0x40 MLOAD DUP1 SWAP2 SUB SWAP1 RETURN JUMPDEST PUSH2 0xF1 PUSH1 0x4 DUP1 CALLDATASIZE SUB DUP2 ADD SWAP1 PUSH2 0xEC SWAP2 SWAP1 PUSH2 0xC6F JUMP JUMPDEST PUSH2 0x331 JUMP JUMPDEST PUSH1 0x40 MLOAD PUSH2 0xFE SWAP2 SWAP1 PUSH2 0xF75 JUMP JUMPDEST PUSH1 0x40 MLOAD DUP1 SWAP2 SUB SWAP1 RETURN JUMPDEST PUSH2 0x10F PUSH2 0x34F JUMP JUMPDEST PUSH1 0x40 MLOAD PUSH2 0x11C SWAP2 SWAP1 PUSH2 0x1072 JUMP JUMPDEST PUSH1 0x40 MLOAD DUP1 SWAP2 SUB SWAP1 RETURN JUMPDEST PUSH2 0x13F PUSH1 0x4 DUP1 CALLDATASIZE SUB DUP2 ADD SWAP1 PUSH2 0x13A SWAP2 SWAP1 PUSH2 0xC20 JUMP JUMPDEST PUSH2 0x359 JUMP JUMPDEST PUSH1 0x40 MLOAD PUSH2 0x14C SWAP2 SWAP1 PUSH2 0xF75 JUMP JUMPDEST PUSH1 0x40 MLOAD DUP1 SWAP2 SUB SWAP1 RETURN JUMPDEST PUSH2 0x15D PUSH2 0x451 JUMP JUMPDEST PUSH1 0x40 MLOAD PUSH2 0x16A SWAP2 SWAP1 PUSH2 0x108D JUMP JUMPDEST PUSH1 0x40 MLOAD DUP1 SWAP2 SUB SWAP1 RETURN JUMPDEST PUSH2 0x18D PUSH1 0x4 DUP1 CALLDATASIZE SUB DUP2 ADD SWAP1 PUSH2 0x188 SWAP2 SWAP1 PUSH2 0xC6F JUMP JUMPDEST PUSH2 0x45A JUMP JUMPDEST PUSH1 0x40 MLOAD PUSH2 0x19A SWAP2 SWAP1 PUSH2 0xF75 JUMP JUMPDEST PUSH1 0x40 MLOAD DUP1 SWAP2 SUB SWAP1 RETURN JUMPDEST PUSH2 0x1BD PUSH1 0x4 DUP1 CALLDATASIZE SUB DUP2 ADD SWAP1 PUSH2 0x1B8 SWAP2 SWAP1 PUSH2 0xBBB JUMP JUMPDEST PUSH2 0x506 JUMP JUMPDEST PUSH1 0x40 MLOAD PUSH2 0x1CA SWAP2 SWAP1 PUSH2 0x1072 JUMP JUMPDEST PUSH1 0x40 MLOAD DUP1 SWAP2 SUB SWAP1 RETURN JUMPDEST PUSH2 0x1DB PUSH2 0x54E JUMP JUMPDEST PUSH1 0x40 MLOAD PUSH2 0x1E8 SWAP2 SWAP1 PUSH2 0xF90 JUMP JUMPDEST PUSH1 0x40 MLOAD DUP1 SWAP2 SUB SWAP1 RETURN JUMPDEST PUSH2 0x20B PUSH1 0x4 DUP1 CALLDATASIZE SUB DUP2 ADD SWAP1 PUSH2 0x206 SWAP2 SWAP1 PUSH2 0xC6F JUMP JUMPDEST PUSH2 0x5E0 JUMP JUMPDEST PUSH1 0x40 MLOAD PUSH2 0x218 SWAP2 SWAP1 PUSH2 0xF75 JUMP JUMPDEST PUSH1 0x40 MLOAD DUP1 SWAP2 SUB SWAP1 RETURN JUMPDEST PUSH2 0x23B PUSH1 0x4 DUP1 CALLDATASIZE SUB DUP2 ADD SWAP1 PUSH2 0x236 SWAP2 SWAP1 PUSH2 0xC6F JUMP JUMPDEST PUSH2 0x6CB JUMP JUMPDEST PUSH1 0x40 MLOAD PUSH2 0x248 SWAP2 SWAP1 PUSH2 0xF75 JUMP JUMPDEST PUSH1 0x40 MLOAD DUP1 SWAP2 SUB SWAP1 RETURN JUMPDEST PUSH2 0x26B PUSH1 0x4 DUP1 CALLDATASIZE SUB DUP2 ADD SWAP1 PUSH2 0x266 SWAP2 SWAP1 PUSH2 0xBE4 JUMP JUMPDEST PUSH2 0x6E9 JUMP JUMPDEST PUSH1 0x40 MLOAD PUSH2 0x278 SWAP2 SWAP1 PUSH2 0x1072 JUMP JUMPDEST PUSH1 0x40 MLOAD DUP1 SWAP2 SUB SWAP1 RETURN JUMPDEST PUSH2 0x289 PUSH2 0x770 JUMP JUMPDEST PUSH1 0x40 MLOAD PUSH2 0x296 SWAP2 SWAP1 PUSH2 0x1072 JUMP JUMPDEST PUSH1 0x40 MLOAD DUP1 SWAP2 SUB SWAP1 RETURN JUMPDEST PUSH1 0x60 PUSH1 0x5 DUP1 SLOAD PUSH2 0x2AE SWAP1 PUSH2 0x11A2 JUMP JUMPDEST DUP1 PUSH1 0x1F ADD PUSH1 0x20 DUP1 SWAP2 DIV MUL PUSH1 0x20 ADD PUSH1 0x40 MLOAD SWAP1 DUP2 ADD PUSH1 0x40 MSTORE DUP1 SWAP3 SWAP2 SWAP1 DUP2 DUP2 MSTORE PUSH1 0x20 ADD DUP3 DUP1 SLOAD PUSH2 0x2DA SWAP1 PUSH2 0x11A2 JUMP JUMPDEST DUP1 ISZERO PUSH2 0x327 JUMPI DUP1 PUSH1 0x1F LT PUSH2 0x2FC JUMPI PUSH2 0x100 DUP1 DUP4 SLOAD DIV MUL DUP4 MSTORE SWAP2 PUSH1 0x20 ADD SWAP2 PUSH2 0x327 JUMP JUMPDEST DUP3 ADD SWAP2 SWAP1 PUSH1 0x0 MSTORE PUSH1 0x20 PUSH1 0x0 KECCAK256 SWAP1 JUMPDEST DUP2 SLOAD DUP2 MSTORE SWAP1 PUSH1 0x1 ADD SWAP1 PUSH1 0x20 ADD DUP1 DUP4 GT PUSH2 0x30A JUMPI DUP3 SWAP1 SUB PUSH1 0x1F AND DUP3 ADD SWAP2 JUMPDEST POP POP POP POP POP SWAP1 POP SWAP1 JUMP JUMPDEST PUSH1 0x0 PUSH2 0x345 PUSH2 0x33E PUSH2 0x776 JUMP JUMPDEST DUP5 DUP5 PUSH2 0x77E JUMP JUMPDEST PUSH1 0x1 SWAP1 POP SWAP3 SWAP2 POP POP JUMP JUMPDEST PUSH1 0x0 PUSH1 0x3 SLOAD SWAP1 POP SWAP1 JUMP JUMPDEST PUSH1 0x0 PUSH2 0x366 DUP5 DUP5 DUP5 PUSH2 0x949 JUMP JUMPDEST PUSH1 0x0 PUSH1 0x2 PUSH1 0x0 DUP7 PUSH20 0xFFFFFFFFFFFFFFFFFFFFFFFFFFFFFFFFFFFFFFFF AND PUSH20 0xFFFFFFFFFFFFFFFFFFFFFFFFFFFFFFFFFFFFFFFF AND DUP2 MSTORE PUSH1 0x20 ADD SWAP1 DUP2 MSTORE PUSH1 0x20 ADD PUSH1 0x0 KECCAK256 PUSH1 0x0 PUSH2 0x3B1 PUSH2 0x776 JUMP JUMPDEST PUSH20 0xFFFFFFFFFFFFFFFFFFFFFFFFFFFFFFFFFFFFFFFF AND PUSH20 0xFFFFFFFFFFFFFFFFFFFFFFFFFFFFFFFFFFFFFFFF AND DUP2 MSTORE PUSH1 0x20 ADD SWAP1 DUP2 MSTORE PUSH1 0x20 ADD PUSH1 0x0 KECCAK256 SLOAD SWAP1 POP DUP3 DUP2 LT ISZERO PUSH2 0x431 JUMPI PUSH1 0x40 MLOAD PUSH32 0x8C379A000000000000000000000000000000000000000000000000000000000 DUP2 MSTORE PUSH1 0x4 ADD PUSH2 0x428 SWAP1 PUSH2 0xFF2 JUMP JUMPDEST PUSH1 0x40 MLOAD DUP1 SWAP2 SUB SWAP1 REVERT JUMPDEST PUSH2 0x445 DUP6 PUSH2 0x43D PUSH2 0x776 JUMP JUMPDEST DUP6 DUP5 SUB PUSH2 0x77E JUMP JUMPDEST PUSH1 0x1 SWAP2 POP POP SWAP4 SWAP3 POP POP POP JUMP JUMPDEST PUSH1 0x0 PUSH1 0x12 SWAP1 POP SWAP1 JUMP JUMPDEST PUSH1 0x0 PUSH2 0x4FC PUSH2 0x467 PUSH2 0x776 JUMP JUMPDEST DUP5 DUP5 PUSH1 0x2 PUSH1 0x0 PUSH2 0x475 PUSH2 0x776 JUMP JUMPDEST PUSH20 0xFFFFFFFFFFFFFFFFFFFFFFFFFFFFFFFFFFFFFFFF AND PUSH20 0xFFFFFFFFFFFFFFFFFFFFFFFFFFFFFFFFFFFFFFFF AND DUP2 MSTORE PUSH1 0x20 ADD SWAP1 DUP2 MSTORE PUSH1 0x20 ADD PUSH1 0x0 KECCAK256 PUSH1 0x0 DUP9 PUSH20 0xFFFFFFFFFFFFFFFFFFFFFFFFFFFFFFFFFFFFFFFF AND PUSH20 0xFFFFFFFFFFFFFFFFFFFFFFFFFFFFFFFFFFFFFFFF AND DUP2 MSTORE PUSH1 0x20 ADD SWAP1 DUP2 MSTORE PUSH1 0x20 ADD PUSH1 0x0 KECCAK256 SLOAD PUSH2 0x4F7 SWAP2 SWAP1 PUSH2 0x10C4 JUMP JUMPDEST PUSH2 0x77E JUMP JUMPDEST PUSH1 0x1 SWAP1 POP SWAP3 SWAP2 POP POP JUMP JUMPDEST PUSH1 0x0 DUP1 PUSH1 0x0 DUP4 PUSH20 0xFFFFFFFFFFFFFFFFFFFFFFFFFFFFFFFFFFFFFFFF AND PUSH20 0xFFFFFFFFFFFFFFFFFFFFFFFFFFFFFFFFFFFFFFFF AND DUP2 MSTORE PUSH1 0x20 ADD SWAP1 DUP2 MSTORE PUSH1 0x20 ADD PUSH1 0x0 KECCAK256 SLOAD SWAP1 POP SWAP2 SWAP1 POP JUMP JUMPDEST PUSH1 0x60 PUSH1 0x6 DUP1 SLOAD PUSH2 0x55D SWAP1 PUSH2 0x11A2 JUMP JUMPDEST DUP1 PUSH1 0x1F ADD PUSH1 0x20 DUP1 SWAP2 DIV MUL PUSH1 0x20 ADD PUSH1 0x40 MLOAD SWAP1 DUP2 ADD PUSH1 0x40 MSTORE DUP1 SWAP3 SWAP2 SWAP1 DUP2 DUP2 MSTORE PUSH1 0x20 ADD DUP3 DUP1 SLOAD PUSH2 0x589 SWAP1 PUSH2 0x11A2 JUMP JUMPDEST DUP1 ISZERO PUSH2 0x5D6 JUMPI DUP1 PUSH1 0x1F LT PUSH2 0x5AB JUMPI PUSH2 0x100 DUP1 DUP4 SLOAD DIV MUL DUP4 MSTORE SWAP2 PUSH1 0x20 ADD SWAP2 PUSH2 0x5D6 JUMP JUMPDEST DUP3 ADD SWAP2 SWAP1 PUSH1 0x0 MSTORE PUSH1 0x20 PUSH1 0x0 KECCAK256 SWAP1 JUMPDEST DUP2 SLOAD DUP2 MSTORE SWAP1 PUSH1 0x1 ADD SWAP1 PUSH1 0x20 ADD DUP1 DUP4 GT PUSH2 0x5B9 JUMPI DUP3 SWAP1 SUB PUSH1 0x1F AND DUP3 ADD SWAP2 JUMPDEST POP POP POP POP POP SWAP1 POP SWAP1 JUMP JUMPDEST PUSH1 0x0 DUP1 PUSH1 0x2 PUSH1 0x0 PUSH2 0x5EF PUSH2 0x776 JUMP JUMPDEST PUSH20 0xFFFFFFFFFFFFFFFFFFFFFFFFFFFFFFFFFFFFFFFF AND PUSH20 0xFFFFFFFFFFFFFFFFFFFFFFFFFFFFFFFFFFFFFFFF AND DUP2 MSTORE PUSH1 0x20 ADD SWAP1 DUP2 MSTORE PUSH1 0x20 ADD PUSH1 0x0 KECCAK256 PUSH1 0x0 DUP6 PUSH20 0xFFFFFFFFFFFFFFFFFFFFFFFFFFFFFFFFFFFFFFFF AND PUSH20 0xFFFFFFFFFFFFFFFFFFFFFFFFFFFFFFFFFFFFFFFF AND DUP2 MSTORE PUSH1 0x20 ADD SWAP1 DUP2 MSTORE PUSH1 0x20 ADD PUSH1 0x0 KECCAK256 SLOAD SWAP1 POP DUP3 DUP2 LT ISZERO PUSH2 0x6AC JUMPI PUSH1 0x40 MLOAD PUSH32 0x8C379A000000000000000000000000000000000000000000000000000000000 DUP2 MSTORE PUSH1 0x4 ADD PUSH2 0x6A3 SWAP1 PUSH2 0x1052 JUMP JUMPDEST PUSH1 0x40 MLOAD DUP1 SWAP2 SUB SWAP1 REVERT JUMPDEST PUSH2 0x6C0 PUSH2 0x6B7 PUSH2 0x776 JUMP JUMPDEST DUP6 DUP6 DUP5 SUB PUSH2 0x77E JUMP JUMPDEST PUSH1 0x1 SWAP2 POP POP SWAP3 SWAP2 POP POP JUMP JUMPDEST PUSH1 0x0 PUSH2 0x6DF PUSH2 0x6D8 PUSH2 0x776 JUMP JUMPDEST DUP5 DUP5 PUSH2 0x949 JUMP JUMPDEST PUSH1 0x1 SWAP1 POP SWAP3 SWAP2 POP POP JUMP JUMPDEST PUSH1 0x0 PUSH1 0x2 PUSH1 0x0 DUP5 PUSH20 0xFFFFFFFFFFFFFFFFFFFFFFFFFFFFFFFFFFFFFFFF AND PUSH20 0xFFFFFFFFFFFFFFFFFFFFFFFFFFFFFFFFFFFFFFFF AND DUP2 MSTORE PUSH1 0x20 ADD SWAP1 DUP2 MSTORE PUSH1 0x20 ADD PUSH1 0x0 KECCAK256 PUSH1 0x0 DUP4 PUSH20 0xFFFFFFFFFFFFFFFFFFFFFFFFFFFFFFFFFFFFFFFF AND PUSH20 0xFFFFFFFFFFFFFFFFFFFFFFFFFFFFFFFFFFFFFFFF AND DUP2 MSTORE PUSH1 0x20 ADD SWAP1 DUP2 MSTORE PUSH1 0x20 ADD PUSH1 0x0 KECCAK256 SLOAD SWAP1 POP SWAP3 SWAP2 POP POP JUMP JUMPDEST PUSH1 0x4 SLOAD DUP2 JUMP JUMPDEST PUSH1 0x0 CALLER SWAP1 POP SWAP1 JUMP JUMPDEST PUSH1 0x0 PUSH20 0xFFFFFFFFFFFFFFFFFFFFFFFFFFFFFFFFFFFFFFFF AND DUP4 PUSH20 0xFFFFFFFFFFFFFFFFFFFFFFFFFFFFFFFFFFFFFFFF AND EQ ISZERO PUSH2 0x7EE JUMPI PUSH1 0x40 MLOAD PUSH32 0x8C379A000000000000000000000000000000000000000000000000000000000 DUP2 MSTORE PUSH1 0x4 ADD PUSH2 0x7E5 SWAP1 PUSH2 0x1032 JUMP JUMPDEST PUSH1 0x40 MLOAD DUP1 SWAP2 SUB SWAP1 REVERT JUMPDEST PUSH1 0x0 PUSH20 0xFFFFFFFFFFFFFFFFFFFFFFFFFFFFFFFFFFFFFFFF AND DUP3 PUSH20 0xFFFFFFFFFFFFFFFFFFFFFFFFFFFFFFFFFFFFFFFF AND EQ ISZERO PUSH2 0x85E JUMPI PUSH1 0x40 MLOAD PUSH32 0x8C379A000000000000000000000000000000000000000000000000000000000 DUP2 MSTORE PUSH1 0x4 ADD PUSH2 0x855 SWAP1 PUSH2 0xFD2 JUMP JUMPDEST PUSH1 0x40 MLOAD DUP1 SWAP2 SUB SWAP1 REVERT JUMPDEST DUP1 PUSH1 0x2 PUSH1 0x0 DUP6 PUSH20 0xFFFFFFFFFFFFFFFFFFFFFFFFFFFFFFFFFFFFFFFF AND PUSH20 0xFFFFFFFFFFFFFFFFFFFFFFFFFFFFFFFFFFFFFFFF AND DUP2 MSTORE PUSH1 0x20 ADD SWAP1 DUP2 MSTORE PUSH1 0x20 ADD PUSH1 0x0 KECCAK256 PUSH1 0x0 DUP5 PUSH20 0xFFFFFFFFFFFFFFFFFFFFFFFFFFFFFFFFFFFFFFFF AND PUSH20 0xFFFFFFFFFFFFFFFFFFFFFFFFFFFFFFFFFFFFFFFF AND DUP2 MSTORE PUSH1 0x20 ADD SWAP1 DUP2 MSTORE PUSH1 0x20 ADD PUSH1 0x0 KECCAK256 DUP2 SWAP1 SSTORE POP DUP2 PUSH20 0xFFFFFFFFFFFFFFFFFFFFFFFFFFFFFFFFFFFFFFFF AND DUP4 PUSH20 0xFFFFFFFFFFFFFFFFFFFFFFFFFFFFFFFFFFFFFFFF AND PUSH32 0x8C5BE1E5EBEC7D5BD14F71427D1E84F3DD0314C0F7B2291E5B200AC8C7C3B925 DUP4 PUSH1 0x40 MLOAD PUSH2 0x93C SWAP2 SWAP1 PUSH2 0x1072 JUMP JUMPDEST PUSH1 0x40 MLOAD DUP1 SWAP2 SUB SWAP1 LOG3 POP POP POP JUMP JUMPDEST PUSH1 0x0 PUSH20 0xFFFFFFFFFFFFFFFFFFFFFFFFFFFFFFFFFFFFFFFF AND DUP4 PUSH20 0xFFFFFFFFFFFFFFFFFFFFFFFFFFFFFFFFFFFFFFFF AND EQ ISZERO PUSH2 0x9B9 JUMPI PUSH1 0x40 MLOAD PUSH32 0x8C379A000000000000000000000000000000000000000000000000000000000 DUP2 MSTORE PUSH1 0x4 ADD PUSH2 0x9B0 SWAP1 PUSH2 0x1012 JUMP JUMPDEST PUSH1 0x40 MLOAD DUP1 SWAP2 SUB SWAP1 REVERT JUMPDEST PUSH1 0x0 PUSH20 0xFFFFFFFFFFFFFFFFFFFFFFFFFFFFFFFFFFFFFFFF AND DUP3 PUSH20 0xFFFFFFFFFFFFFFFFFFFFFFFFFFFFFFFFFFFFFFFF AND EQ ISZERO PUSH2 0xA29 JUMPI PUSH1 0x40 MLOAD PUSH32 0x8C379A000000000000000000000000000000000000000000000000000000000 DUP2 MSTORE PUSH1 0x4 ADD PUSH2 0xA20 SWAP1 PUSH2 0xFB2 JUMP JUMPDEST PUSH1 0x40 MLOAD DUP1 SWAP2 SUB SWAP1 REVERT JUMPDEST PUSH2 0xA34 DUP4 DUP4 DUP4 PUSH2 0xB87 JUMP JUMPDEST PUSH1 0x0 DUP1 PUSH1 0x0 DUP6 PUSH20 0xFFFFFFFFFFFFFFFFFFFFFFFFFFFFFFFFFFFFFFFF AND PUSH20 0xFFFFFFFFFFFFFFFFFFFFFFFFFFFFFFFFFFFFFFFF AND DUP2 MSTORE PUSH1 0x20 ADD SWAP1 DUP2 MSTORE PUSH1 0x20 ADD PUSH1 0x0 KECCAK256 SLOAD SWAP1 POP DUP2 DUP2 SUB PUSH1 0x0 DUP1 DUP7 PUSH20 0xFFFFFFFFFFFFFFFFFFFFFFFFFFFFFFFFFFFFFFFF AND PUSH20 0xFFFFFFFFFFFFFFFFFFFFFFFFFFFFFFFFFFFFFFFF AND DUP2 MSTORE PUSH1 0x20 ADD SWAP1 DUP2 MSTORE PUSH1 0x20 ADD PUSH1 0x0 KECCAK256 DUP2 SWAP1 SSTORE POP DUP2 PUSH1 0x0 DUP1 DUP6 PUSH20 0xFFFFFFFFFFFFFFFFFFFFFFFFFFFFFFFFFFFFFFFF AND PUSH20 0xFFFFFFFFFFFFFFFFFFFFFFFFFFFFFFFFFFFFFFFF AND DUP2 MSTORE PUSH1 0x20 ADD SWAP1 DUP2 MSTORE PUSH1 0x20 ADD PUSH1 0x0 KECCAK256 PUSH1 0x0 DUP3 DUP3 SLOAD PUSH2 0xB0A SWAP2 SWAP1 PUSH2 0x10C4 JUMP JUMPDEST SWAP3 POP POP DUP2 SWAP1 SSTORE POP DUP3 PUSH20 0xFFFFFFFFFFFFFFFFFFFFFFFFFFFFFFFFFFFFFFFF AND DUP5 PUSH20 0xFFFFFFFFFFFFFFFFFFFFFFFFFFFFFFFFFFFFFFFF AND PUSH32 0xDDF252AD1BE2C89B69C2B068FC378DAA952BA7F163C4A11628F55A4DF523B3EF DUP5 PUSH1 0x40 MLOAD PUSH2 0xB6E SWAP2 SWAP1 PUSH2 0x1072 JUMP JUMPDEST PUSH1 0x40 MLOAD DUP1 SWAP2 SUB SWAP1 LOG3 PUSH2 0xB81 DUP5 DUP5 DUP5 PUSH2 0xB8C JUMP JUMPDEST POP POP POP POP JUMP JUMPDEST POP POP POP JUMP JUMPDEST POP POP POP JUMP JUMPDEST PUSH1 0x0 DUP2 CALLDATALOAD SWAP1 POP PUSH2 0xBA0 DUP2 PUSH2 0x1243 JUMP JUMPDEST SWAP3 SWAP2 POP POP JUMP JUMPDEST PUSH1 0x0 DUP2 CALLDATALOAD SWAP1 POP PUSH2 0xBB5 DUP2 PUSH2 0x125A JUMP JUMPDEST SWAP3 SWAP2 POP POP JUMP JUMPDEST PUSH1 0x0 PUSH1 0x20 DUP3 DUP5 SUB SLT ISZERO PUSH2 0xBCD JUMPI PUSH1 0x0 DUP1 REVERT JUMPDEST PUSH1 0x0 PUSH2 0xBDB DUP5 DUP3 DUP6 ADD PUSH2 0xB91 JUMP JUMPDEST SWAP2 POP POP SWAP3 SWAP2 POP POP JUMP JUMPDEST PUSH1 0x0 DUP1 PUSH1 0x40 DUP4 DUP6 SUB SLT ISZERO PUSH2 0xBF7 JUMPI PUSH1 0x0 DUP1 REVERT JUMPDEST PUSH1 0x0 PUSH2 0xC05 DUP6 DUP3 DUP7 ADD PUSH2 0xB91 JUMP JUMPDEST SWAP3 POP POP PUSH1 0x20 PUSH2 0xC16 DUP6 DUP3 DUP7 ADD PUSH2 0xB91 JUMP JUMPDEST SWAP2 POP POP SWAP3 POP SWAP3 SWAP1 POP JUMP JUMPDEST PUSH1 0x0 DUP1 PUSH1 0x0 PUSH1 0x60 DUP5 DUP7 SUB SLT ISZERO PUSH2 0xC35 JUMPI PUSH1 0x0 DUP1 REVERT JUMPDEST PUSH1 0x0 PUSH2 0xC43 DUP7 DUP3 DUP8 ADD PUSH2 0xB91 JUMP JUMPDEST SWAP4 POP POP PUSH1 0x20 PUSH2 0xC54 DUP7 DUP3 DUP8 ADD PUSH2 0xB91 JUMP JUMPDEST SWAP3 POP POP PUSH1 0x40 PUSH2 0xC65 DUP7 DUP3 DUP8 ADD PUSH2 0xBA6 JUMP JUMPDEST SWAP2 POP POP SWAP3 POP SWAP3 POP SWAP3 JUMP JUMPDEST PUSH1 0x0 DUP1 PUSH1 0x40 DUP4 DUP6 SUB SLT ISZERO PUSH2 0xC82 JUMPI PUSH1 0x0 DUP1 REVERT JUMPDEST PUSH1 0x0 PUSH2 0xC90 DUP6 DUP3 DUP7 ADD PUSH2 0xB91 JUMP JUMPDEST SWAP3 POP POP PUSH1 0x20 PUSH2 0xCA1 DUP6 DUP3 DUP7 ADD PUSH2 0xBA6 JUMP JUMPDEST SWAP2 POP POP SWAP3 POP SWAP3 SWAP1 POP JUMP JUMPDEST PUSH2 0xCB4 DUP2 PUSH2 0x112C JUMP JUMPDEST DUP3 MSTORE POP POP JUMP JUMPDEST PUSH1 0x0 PUSH2 0xCC5 DUP3 PUSH2 0x10A8 JUMP JUMPDEST PUSH2 0xCCF DUP2 DUP6 PUSH2 0x10B3 JUMP JUMPDEST SWAP4 POP PUSH2 0xCDF DUP2 DUP6 PUSH1 0x20 DUP7 ADD PUSH2 0x116F JUMP JUMPDEST PUSH2 0xCE8 DUP2 PUSH2 0x1232 JUMP JUMPDEST DUP5 ADD SWAP2 POP POP SWAP3 SWAP2 POP POP JUMP JUMPDEST PUSH1 0x0 PUSH2 0xD00 PUSH1 0x23 DUP4 PUSH2 0x10B3 JUMP JUMPDEST SWAP2 POP PUSH32 0x45524332303A207472616E7366657220746F20746865207A65726F2061646472 PUSH1 0x0 DUP4 ADD MSTORE PUSH32 0x6573730000000000000000000000000000000000000000000000000000000000 PUSH1 0x20 DUP4 ADD MSTORE PUSH1 0x40 DUP3 ADD SWAP1 POP SWAP2 SWAP1 POP JUMP JUMPDEST PUSH1 0x0 PUSH2 0xD66 PUSH1 0x22 DUP4 PUSH2 0x10B3 JUMP JUMPDEST SWAP2 POP PUSH32 0x45524332303A20617070726F766520746F20746865207A65726F206164647265 PUSH1 0x0 DUP4 ADD MSTORE PUSH32 0x7373000000000000000000000000000000000000000000000000000000000000 PUSH1 0x20 DUP4 ADD MSTORE PUSH1 0x40 DUP3 ADD SWAP1 POP SWAP2 SWAP1 POP JUMP JUMPDEST PUSH1 0x0 PUSH2 0xDCC PUSH1 0x28 DUP4 PUSH2 0x10B3 JUMP JUMPDEST SWAP2 POP PUSH32 0x45524332303A207472616E7366657220616D6F756E7420657863656564732061 PUSH1 0x0 DUP4 ADD MSTORE PUSH32 0x6C6C6F77616E6365000000000000000000000000000000000000000000000000 PUSH1 0x20 DUP4 ADD MSTORE PUSH1 0x40 DUP3 ADD SWAP1 POP SWAP2 SWAP1 POP JUMP JUMPDEST PUSH1 0x0 PUSH2 0xE32 PUSH1 0x25 DUP4 PUSH2 0x10B3 JUMP JUMPDEST SWAP2 POP PUSH32 0x45524332303A207472616E736665722066726F6D20746865207A65726F206164 PUSH1 0x0 DUP4 ADD MSTORE PUSH32 0x6472657373000000000000000000000000000000000000000000000000000000 PUSH1 0x20 DUP4 ADD MSTORE PUSH1 0x40 DUP3 ADD SWAP1 POP SWAP2 SWAP1 POP JUMP JUMPDEST PUSH1 0x0 PUSH2 0xE98 PUSH1 0x24 DUP4 PUSH2 0x10B3 JUMP JUMPDEST SWAP2 POP PUSH32 0x45524332303A20617070726F76652066726F6D20746865207A65726F20616464 PUSH1 0x0 DUP4 ADD MSTORE PUSH32 0x7265737300000000000000000000000000000000000000000000000000000000 PUSH1 0x20 DUP4 ADD MSTORE PUSH1 0x40 DUP3 ADD SWAP1 POP SWAP2 SWAP1 POP JUMP JUMPDEST PUSH1 0x0 PUSH2 0xEFE PUSH1 0x25 DUP4 PUSH2 0x10B3 JUMP JUMPDEST SWAP2 POP PUSH32 0x45524332303A2064656372656173656420616C6C6F77616E63652062656C6F77 PUSH1 0x0 DUP4 ADD MSTORE PUSH32 0x207A65726F000000000000000000000000000000000000000000000000000000 PUSH1 0x20 DUP4 ADD MSTORE PUSH1 0x40 DUP3 ADD SWAP1 POP SWAP2 SWAP1 POP JUMP JUMPDEST PUSH2 0xF60 DUP2 PUSH2 0x1158 JUMP JUMPDEST DUP3 MSTORE POP POP JUMP JUMPDEST PUSH2 0xF6F DUP2 PUSH2 0x1162 JUMP JUMPDEST DUP3 MSTORE POP POP JUMP JUMPDEST PUSH1 0x0 PUSH1 0x20 DUP3 ADD SWAP1 POP PUSH2 0xF8A PUSH1 0x0 DUP4 ADD DUP5 PUSH2 0xCAB JUMP JUMPDEST SWAP3 SWAP2 POP POP JUMP JUMPDEST PUSH1 0x0 PUSH1 0x20 DUP3 ADD SWAP1 POP DUP2 DUP2 SUB PUSH1 0x0 DUP4 ADD MSTORE PUSH2 0xFAA DUP2 DUP5 PUSH2 0xCBA JUMP JUMPDEST SWAP1 POP SWAP3 SWAP2 POP POP JUMP JUMPDEST PUSH1 0x0 PUSH1 0x20 DUP3 ADD SWAP1 POP DUP2 DUP2 SUB PUSH1 0x0 DUP4 ADD MSTORE PUSH2 0xFCB DUP2 PUSH2 0xCF3 JUMP JUMPDEST SWAP1 POP SWAP2 SWAP1 POP JUMP JUMPDEST PUSH1 0x0 PUSH1 0x20 DUP3 ADD SWAP1 POP DUP2 DUP2 SUB PUSH1 0x0 DUP4 ADD MSTORE PUSH2 0xFEB DUP2 PUSH2 0xD59 JUMP JUMPDEST SWAP1 POP SWAP2 SWAP1 POP JUMP JUMPDEST PUSH1 0x0 PUSH1 0x20 DUP3 ADD SWAP1 POP DUP2 DUP2 SUB PUSH1 0x0 DUP4 ADD MSTORE PUSH2 0x100B DUP2 PUSH2 0xDBF JUMP JUMPDEST SWAP1 POP SWAP2 SWAP1 POP JUMP JUMPDEST PUSH1 0x0 PUSH1 0x20 DUP3 ADD SWAP1 POP DUP2 DUP2 SUB PUSH1 0x0 DUP4 ADD MSTORE PUSH2 0x102B DUP2 PUSH2 0xE25 JUMP JUMPDEST SWAP1 POP SWAP2 SWAP1 POP JUMP JUMPDEST PUSH1 0x0 PUSH1 0x20 DUP3 ADD SWAP1 POP DUP2 DUP2 SUB PUSH1 0x0 DUP4 ADD MSTORE PUSH2 0x104B DUP2 PUSH2 0xE8B JUMP JUMPDEST SWAP1 POP SWAP2 SWAP1 POP JUMP JUMPDEST PUSH1 0x0 PUSH1 0x20 DUP3 ADD SWAP1 POP DUP2 DUP2 SUB PUSH1 0x0 DUP4 ADD MSTORE PUSH2 0x106B DUP2 PUSH2 0xEF1 JUMP JUMPDEST SWAP1 POP SWAP2 SWAP1 POP JUMP JUMPDEST PUSH1 0x0 PUSH1 0x20 DUP3 ADD SWAP1 POP PUSH2 0x1087 PUSH1 0x0 DUP4 ADD DUP5 PUSH2 0xF57 JUMP JUMPDEST SWAP3 SWAP2 POP POP JUMP JUMPDEST PUSH1 0x0 PUSH1 0x20 DUP3 ADD SWAP1 POP PUSH2 0x10A2 PUSH1 0x0 DUP4 ADD DUP5 PUSH2 0xF66 JUMP JUMPDEST SWAP3 SWAP2 POP POP JUMP JUMPDEST PUSH1 0x0 DUP2 MLOAD SWAP1 POP SWAP2 SWAP1 POP JUMP JUMPDEST PUSH1 0x0 DUP3 DUP3 MSTORE PUSH1 0x20 DUP3 ADD SWAP1 POP SWAP3 SWAP2 POP POP JUMP JUMPDEST PUSH1 0x0 PUSH2 0x10CF DUP3 PUSH2 0x1158 JUMP JUMPDEST SWAP2 POP PUSH2 0x10DA DUP4 PUSH2 0x1158 JUMP JUMPDEST SWAP3 POP DUP3 PUSH32 0xFFFFFFFFFFFFFFFFFFFFFFFFFFFFFFFFFFFFFFFFFFFFFFFFFFFFFFFFFFFFFFFF SUB DUP3 GT ISZERO PUSH2 0x110F JUMPI PUSH2 0x110E PUSH2 0x11D4 JUMP JUMPDEST JUMPDEST DUP3 DUP3 ADD SWAP1 POP SWAP3 SWAP2 POP POP JUMP JUMPDEST PUSH1 0x0 PUSH2 0x1125 DUP3 PUSH2 0x1138 JUMP JUMPDEST SWAP1 POP SWAP2 SWAP1 POP JUMP JUMPDEST PUSH1 0x0 DUP2 ISZERO ISZERO SWAP1 POP SWAP2 SWAP1 POP JUMP JUMPDEST PUSH1 0x0 PUSH20 0xFFFFFFFFFFFFFFFFFFFFFFFFFFFFFFFFFFFFFFFF DUP3 AND SWAP1 POP SWAP2 SWAP1 POP JUMP JUMPDEST PUSH1 0x0 DUP2 SWAP1 POP SWAP2 SWAP1 POP JUMP JUMPDEST PUSH1 0x0 PUSH1 0xFF DUP3 AND SWAP1 POP SWAP2 SWAP1 POP JUMP JUMPDEST PUSH1 0x0 JUMPDEST DUP4 DUP2 LT ISZERO PUSH2 0x118D JUMPI DUP1 DUP3 ADD MLOAD DUP2 DUP5 ADD MSTORE PUSH1 0x20 DUP2 ADD SWAP1 POP PUSH2 0x1172 JUMP JUMPDEST DUP4 DUP2 GT ISZERO PUSH2 0x119C JUMPI PUSH1 0x0 DUP5 DUP5 ADD MSTORE JUMPDEST POP POP POP POP JUMP JUMPDEST PUSH1 0x0 PUSH1 0x2 DUP3 DIV SWAP1 POP PUSH1 0x1 DUP3 AND DUP1 PUSH2 0x11BA JUMPI PUSH1 0x7F DUP3 AND SWAP2 POP JUMPDEST PUSH1 0x20 DUP3 LT DUP2 EQ ISZERO PUSH2 0x11CE JUMPI PUSH2 0x11CD PUSH2 0x1203 JUMP JUMPDEST JUMPDEST POP SWAP2 SWAP1 POP JUMP JUMPDEST PUSH32 0x4E487B7100000000000000000000000000000000000000000000000000000000 PUSH1 0x0 MSTORE PUSH1 0x11 PUSH1 0x4 MSTORE PUSH1 0x24 PUSH1 0x0 REVERT JUMPDEST PUSH32 0x4E487B7100000000000000000000000000000000000000000000000000000000 PUSH1 0x0 MSTORE PUSH1 0x22 PUSH1 0x4 MSTORE PUSH1 0x24 PUSH1 0x0 REVERT JUMPDEST PUSH1 0x0 PUSH1 0x1F NOT PUSH1 0x1F DUP4 ADD AND SWAP1 POP SWAP2 SWAP1 POP JUMP JUMPDEST PUSH2 0x124C DUP2 PUSH2 0x111A JUMP JUMPDEST DUP2 EQ PUSH2 0x1257 JUMPI PUSH1 0x0 DUP1 REVERT JUMPDEST POP JUMP JUMPDEST PUSH2 0x1263 DUP2 PUSH2 0x1158 JUMP JUMPDEST DUP2 EQ PUSH2 0x126E JUMPI PUSH1 0x0 DUP1 REVERT JUMPDEST POP JUMP INVALID LOG2 PUSH5 0x6970667358 0x22 SLT KECCAK256 0xB9 XOR 0x4D PUSH25 0x71A9740AB3C864E136A2E7AB1BE612D5CA676E4A0E23BF69D5 MUL 0x4A PUSH20 0x64736F6C63430008000033000000000000000000 "
		},
		"gasEstimates": {
			"creation": {
				"codeDepositCost": "955000",
				"executionCost": "infinite",
				"totalCost": "infinite"
			},
			"external": {
				"CDtime()": "1239",
				"allowance(address,address)": "infinite",
				"approve(address,uint256)": "infinite",
				"balanceOf(address)": "1541",
				"decimals()": "432",
				"decreaseAllowance(address,uint256)": "infinite",
				"increaseAllowance(address,uint256)": "infinite",
				"name()": "infinite",
				"symbol()": "infinite",
				"totalSupply()": "1182",
				"transfer(address,uint256)": "infinite",
				"transferFrom(address,address,uint256)": "infinite"
			},
			"internal": {
				"_afterTokenTransfer(address,address,uint256)": "15",
				"_approve(address,address,uint256)": "infinite",
				"_beforeTokenTransfer(address,address,uint256)": "15",
				"_burn(address,uint256)": "infinite",
				"_mint(address,uint256)": "infinite",
				"_transfer(address,address,uint256)": "infinite"
			}
		},
		"methodIdentifiers": {
			"CDtime()": "fd0ae74f",
			"allowance(address,address)": "dd62ed3e",
			"approve(address,uint256)": "095ea7b3",
			"balanceOf(address)": "70a08231",
			"decimals()": "313ce567",
			"decreaseAllowance(address,uint256)": "a457c2d7",
			"increaseAllowance(address,uint256)": "39509351",
			"name()": "06fdde03",
			"symbol()": "95d89b41",
			"totalSupply()": "18160ddd",
			"transfer(address,uint256)": "a9059cbb",
			"transferFrom(address,address,uint256)": "23b872dd"
		}
	},
	"abi": [
		{
			"inputs": [
				{
					"internalType": "string",
					"name": "name_",
					"type": "string"
				},
				{
					"internalType": "string",
					"name": "symbol_",
					"type": "string"
				}
			],
			"stateMutability": "nonpayable",
			"type": "constructor"
		},
		{
			"anonymous": false,
			"inputs": [
				{
					"indexed": true,
					"internalType": "address",
					"name": "owner",
					"type": "address"
				},
				{
					"indexed": true,
					"internalType": "address",
					"name": "spender",
					"type": "address"
				},
				{
					"indexed": false,
					"internalType": "uint256",
					"name": "value",
					"type": "uint256"
				}
			],
			"name": "Approval",
			"type": "event"
		},
		{
			"anonymous": false,
			"inputs": [
				{
					"indexed": true,
					"internalType": "address",
					"name": "from",
					"type": "address"
				},
				{
					"indexed": true,
					"internalType": "address",
					"name": "to",
					"type": "address"
				},
				{
					"indexed": false,
					"internalType": "uint256",
					"name": "value",
					"type": "uint256"
				}
			],
			"name": "Transfer",
			"type": "event"
		},
		{
			"inputs": [],
			"name": "CDtime",
			"outputs": [
				{
					"internalType": "uint256",
					"name": "",
					"type": "uint256"
				}
			],
			"stateMutability": "view",
			"type": "function"
		},
		{
			"inputs": [
				{
					"internalType": "address",
					"name": "owner",
					"type": "address"
				},
				{
					"internalType": "address",
					"name": "spender",
					"type": "address"
				}
			],
			"name": "allowance",
			"outputs": [
				{
					"internalType": "uint256",
					"name": "",
					"type": "uint256"
				}
			],
			"stateMutability": "view",
			"type": "function"
		},
		{
			"inputs": [
				{
					"internalType": "address",
					"name": "spender",
					"type": "address"
				},
				{
					"internalType": "uint256",
					"name": "amount",
					"type": "uint256"
				}
			],
			"name": "approve",
			"outputs": [
				{
					"internalType": "bool",
					"name": "",
					"type": "bool"
				}
			],
			"stateMutability": "nonpayable",
			"type": "function"
		},
		{
			"inputs": [
				{
					"internalType": "address",
					"name": "account",
					"type": "address"
				}
			],
			"name": "balanceOf",
			"outputs": [
				{
					"internalType": "uint256",
					"name": "",
					"type": "uint256"
				}
			],
			"stateMutability": "view",
			"type": "function"
		},
		{
			"inputs": [],
			"name": "decimals",
			"outputs": [
				{
					"internalType": "uint8",
					"name": "",
					"type": "uint8"
				}
			],
			"stateMutability": "view",
			"type": "function"
		},
		{
			"inputs": [
				{
					"internalType": "address",
					"name": "spender",
					"type": "address"
				},
				{
					"internalType": "uint256",
					"name": "subtractedValue",
					"type": "uint256"
				}
			],
			"name": "decreaseAllowance",
			"outputs": [
				{
					"internalType": "bool",
					"name": "",
					"type": "bool"
				}
			],
			"stateMutability": "nonpayable",
			"type": "function"
		},
		{
			"inputs": [
				{
					"internalType": "address",
					"name": "spender",
					"type": "address"
				},
				{
					"internalType": "uint256",
					"name": "addedValue",
					"type": "uint256"
				}
			],
			"name": "increaseAllowance",
			"outputs": [
				{
					"internalType": "bool",
					"name": "",
					"type": "bool"
				}
			],
			"stateMutability": "nonpayable",
			"type": "function"
		},
		{
			"inputs": [],
			"name": "name",
			"outputs": [
				{
					"internalType": "string",
					"name": "",
					"type": "string"
				}
			],
			"stateMutability": "view",
			"type": "function"
		},
		{
			"inputs": [],
			"name": "symbol",
			"outputs": [
				{
					"internalType": "string",
					"name": "",
					"type": "string"
				}
			],
			"stateMutability": "view",
			"type": "function"
		},
		{
			"inputs": [],
			"name": "totalSupply",
			"outputs": [
				{
					"internalType": "uint256",
					"name": "",
					"type": "uint256"
				}
			],
			"stateMutability": "view",
			"type": "function"
		},
		{
			"inputs": [
				{
					"internalType": "address",
					"name": "recipient",
					"type": "address"
				},
				{
					"internalType": "uint256",
					"name": "amount",
					"type": "uint256"
				}
			],
			"name": "transfer",
			"outputs": [
				{
					"internalType": "bool",
					"name": "",
					"type": "bool"
				}
			],
			"stateMutability": "nonpayable",
			"type": "function"
		},
		{
			"inputs": [
				{
					"internalType": "address",
					"name": "sender",
					"type": "address"
				},
				{
					"internalType": "address",
					"name": "recipient",
					"type": "address"
				},
				{
					"internalType": "uint256",
					"name": "amount",
					"type": "uint256"
				}
			],
			"name": "transferFrom",
			"outputs": [
				{
					"internalType": "bool",
					"name": "",
					"type": "bool"
				}
			],
			"stateMutability": "nonpayable",
			"type": "function"
		}
	]
}