{
	"data": {
		"bytecode": {
			"linkReferences": {},
			"object": "60806040523480156200001157600080fd5b5060405162003c2f38038062003c2f8339818101604052810190620000379190620004f6565b8181816007908051906020019062000051929190620003d4565b5080600890805190602001906200006a929190620003d4565b50603c60068190555050506000600960006101000a81548160ff021916908315150217905550620000b46000801b620000a86200013e60201b60201c565b6200014660201b60201c565b620000f57f9f2df0fed2c77648de5860a4cc508cd0818c85b8b8a1ab4ceeef8d981c8956a6620000e96200013e60201b60201c565b6200014660201b60201c565b620001367f65d7a28e3265b37a6474929f336521b332c1681b933f6cb9f3376673440d862a6200012a6200013e60201b60201c565b6200014660201b60201c565b50506200069a565b600033905090565b6200015d82826200018e60201b62000fa91760201c565b620001898160016000858152602001908152602001600020620001a460201b62000fb71790919060201c565b505050565b620001a08282620001dc60201b60201c565b5050565b6000620001d4836000018373ffffffffffffffffffffffffffffffffffffffff1660001b620002cd60201b60201c565b905092915050565b620001ee82826200034760201b60201c565b620002c957600160008084815260200190815260200160002060000160008373ffffffffffffffffffffffffffffffffffffffff1673ffffffffffffffffffffffffffffffffffffffff16815260200190815260200160002060006101000a81548160ff0219169083151502179055506200026e6200013e60201b60201c565b73ffffffffffffffffffffffffffffffffffffffff168173ffffffffffffffffffffffffffffffffffffffff16837f2f8788117e7eff1d82e926ec794901d17c78024a50270940304540a733656f0d60405160405180910390a45b5050565b6000620002e18383620003b160201b60201c565b6200033c57826000018290806001815401808255809150506001900390600052602060002001600090919091909150558260000180549050836001016000848152602001908152602001600020819055506001905062000341565b600090505b92915050565b600080600084815260200190815260200160002060000160008373ffffffffffffffffffffffffffffffffffffffff1673ffffffffffffffffffffffffffffffffffffffff16815260200190815260200160002060009054906101000a900460ff16905092915050565b600080836001016000848152602001908152602001600020541415905092915050565b828054620003e29062000606565b90600052602060002090601f01602090048101928262000406576000855562000452565b82601f106200042157805160ff191683800117855562000452565b8280016001018555821562000452579182015b828111156200045157825182559160200191906001019062000434565b5b50905062000461919062000465565b5090565b5b808211156200048057600081600090555060010162000466565b5090565b60006200049b62000495846200059d565b62000569565b905082815260208101848484011115620004b457600080fd5b620004c1848285620005d0565b509392505050565b600082601f830112620004db57600080fd5b8151620004ed84826020860162000484565b91505092915050565b600080604083850312156200050a57600080fd5b600083015167ffffffffffffffff8111156200052557600080fd5b6200053385828601620004c9565b925050602083015167ffffffffffffffff8111156200055157600080fd5b6200055f85828601620004c9565b9150509250929050565b6000604051905081810181811067ffffffffffffffff821117156200059357620005926200066b565b5b8060405250919050565b600067ffffffffffffffff821115620005bb57620005ba6200066b565b5b601f19601f8301169050602081019050919050565b60005b83811015620005f0578082015181840152602081019050620005d3565b8381111562000600576000848401525b50505050565b600060028204905060018216806200061f57607f821691505b602082108114156200063657620006356200063c565b5b50919050565b7f4e487b7100000000000000000000000000000000000000000000000000000000600052602260045260246000fd5b7f4e487b7100000000000000000000000000000000000000000000000000000000600052604160045260246000fd5b61358580620006aa6000396000f3fe608060405234801561001057600080fd5b50600436106101cf5760003560e01c806370a0823111610104578063a217fddf116100a2578063d539139311610071578063d539139314610554578063d547741f14610572578063dd62ed3e1461058e578063e63ab1e9146105be576101cf565b8063a217fddf146104a6578063a457c2d7146104c4578063a9059cbb146104f4578063ca15c87314610524576101cf565b80639010d07c116100de5780639010d07c1461040c57806391d148541461043c57806395d89b411461046c578063a0efc62d1461048a576101cf565b806370a08231146103b657806379cc6790146103e65780638456cb5914610402576101cf565b8063313ce567116101715780633f4ba83a1161014b5780633f4ba83a1461035657806340c10f191461036057806342966c681461037c5780635c975abb14610398576101cf565b8063313ce567146102ec57806336568abe1461030a5780633950935114610326576101cf565b806318160ddd116101ad57806318160ddd1461025257806323b872dd14610270578063248a9ca3146102a05780632f2ff15d146102d0576101cf565b806301ffc9a7146101d457806306fdde0314610204578063095ea7b314610222575b600080fd5b6101ee60048036038101906101e9919061258f565b6105dc565b6040516101fb9190612f31565b60405180910390f35b61020c610656565b6040516102199190612f67565b60405180910390f35b61023c600480360381019061023791906124b2565b6106e8565b6040516102499190612f31565b60405180910390f35b61025a610706565b6040516102679190613229565b60405180910390f35b61028a60048036038101906102859190612463565b610710565b6040516102979190612f31565b60405180910390f35b6102ba60048036038101906102b591906124ee565b610808565b6040516102c79190612f4c565b60405180910390f35b6102ea60048036038101906102e59190612517565b610827565b005b6102f461085b565b6040516103019190613244565b60405180910390f35b610324600480360381019061031f9190612517565b610864565b005b610340600480360381019061033b91906124b2565b610898565b60405161034d9190612f31565b60405180910390f35b61035e610944565b005b61037a600480360381019061037591906124b2565b6109be565b005b610396600480360381019061039191906125b8565b610a3c565b005b6103a0610a50565b6040516103ad9190612f31565b60405180910390f35b6103d060048036038101906103cb91906123fe565b610a67565b6040516103dd9190613229565b60405180910390f35b61040060048036038101906103fb91906124b2565b610ab0565b005b61040a610b2b565b005b61042660048036038101906104219190612553565b610ba5565b6040516104339190612f16565b60405180910390f35b61045660048036038101906104519190612517565b610bd4565b6040516104639190612f31565b60405180910390f35b610474610c3e565b6040516104819190612f67565b60405180910390f35b6104a4600480360381019061049f91906125b8565b610cd0565b005b6104ae610d72565b6040516104bb9190612f4c565b60405180910390f35b6104de60048036038101906104d991906124b2565b610d79565b6040516104eb9190612f31565b60405180910390f35b61050e600480360381019061050991906124b2565b610e64565b60405161051b9190612f31565b60405180910390f35b61053e600480360381019061053991906124ee565b610e82565b60405161054b9190613229565b60405180910390f35b61055c610ea6565b6040516105699190612f4c565b60405180910390f35b61058c60048036038101906105879190612517565b610eca565b005b6105a860048036038101906105a39190612427565b610efe565b6040516105b59190613229565b60405180910390f35b6105c6610f85565b6040516105d39190612f4c565b60405180910390f35b60007f5a05180f000000000000000000000000000000000000000000000000000000007bffffffffffffffffffffffffffffffffffffffffffffffffffffffff1916827bffffffffffffffffffffffffffffffffffffffffffffffffffffffff1916148061064f575061064e82610fe7565b5b9050919050565b60606007805461066590613452565b80601f016020809104026020016040519081016040528092919081815260200182805461069190613452565b80156106de5780601f106106b3576101008083540402835291602001916106de565b820191906000526020600020905b8154815290600101906020018083116106c157829003601f168201915b5050505050905090565b60006106fc6106f5611061565b8484611069565b6001905092915050565b6000600554905090565b600061071d848484611234565b6000600460008673ffffffffffffffffffffffffffffffffffffffff1673ffffffffffffffffffffffffffffffffffffffff1681526020019081526020016000206000610768611061565b73ffffffffffffffffffffffffffffffffffffffff1673ffffffffffffffffffffffffffffffffffffffff168152602001908152602001600020549050828110156107e8576040517f08c379a00000000000000000000000000000000000000000000000000000000081526004016107df906130a9565b60405180910390fd5b6107fc856107f4611061565b858403611069565b60019150509392505050565b6000806000838152602001908152602001600020600101549050919050565b6108318282611475565b6108568160016000858152602001908152602001600020610fb790919063ffffffff16565b505050565b60006012905090565b61086e828261149e565b610893816001600085815260200190815260200160002061152190919063ffffffff16565b505050565b600061093a6108a5611061565b8484600460006108b3611061565b73ffffffffffffffffffffffffffffffffffffffff1673ffffffffffffffffffffffffffffffffffffffff16815260200190815260200160002060008873ffffffffffffffffffffffffffffffffffffffff1673ffffffffffffffffffffffffffffffffffffffff168152602001908152602001600020546109359190613286565b611069565b6001905092915050565b6109757f65d7a28e3265b37a6474929f336521b332c1681b933f6cb9f3376673440d862a610970611061565b610bd4565b6109b4576040517f08c379a00000000000000000000000000000000000000000000000000000000081526004016109ab90613049565b60405180910390fd5b6109bc611551565b565b6109ef7f9f2df0fed2c77648de5860a4cc508cd0818c85b8b8a1ab4ceeef8d981c8956a66109ea611061565b610bd4565b610a2e576040517f08c379a0000000000000000000000000000000000000000000000000000000008152600401610a25906130c9565b60405180910390fd5b610a3882826115f3565b5050565b610a4d610a47611061565b82611798565b50565b6000600960009054906101000a900460ff16905090565b6000600260008373ffffffffffffffffffffffffffffffffffffffff1673ffffffffffffffffffffffffffffffffffffffff168152602001908152602001600020549050919050565b6000610ac383610abe611061565b610efe565b905081811015610b08576040517f08c379a0000000000000000000000000000000000000000000000000000000008152600401610aff906130e9565b60405180910390fd5b610b1c83610b14611061565b848403611069565b610b268383611798565b505050565b610b5c7f65d7a28e3265b37a6474929f336521b332c1681b933f6cb9f3376673440d862a610b57611061565b610bd4565b610b9b576040517f08c379a0000000000000000000000000000000000000000000000000000000008152600401610b9290613189565b60405180910390fd5b610ba3611971565b565b6000610bcc8260016000868152602001908152602001600020611a1490919063ffffffff16565b905092915050565b600080600084815260200190815260200160002060000160008373ffffffffffffffffffffffffffffffffffffffff1673ffffffffffffffffffffffffffffffffffffffff16815260200190815260200160002060009054906101000a900460ff16905092915050565b606060088054610c4d90613452565b80601f0160208091040260200160405190810160405280929190818152602001828054610c7990613452565b8015610cc65780601f10610c9b57610100808354040283529160200191610cc6565b820191906000526020600020905b815481529060010190602001808311610ca957829003601f168201915b5050505050905090565b610ce46000801b610cdf611061565b610bd4565b610d23576040517f08c379a0000000000000000000000000000000000000000000000000000000008152600401610d1a90612fc9565b60405180910390fd5b61a8c0811115610d68576040517f08c379a0000000000000000000000000000000000000000000000000000000008152600401610d5f90613109565b60405180910390fd5b8060068190555050565b6000801b81565b60008060046000610d88611061565b73ffffffffffffffffffffffffffffffffffffffff1673ffffffffffffffffffffffffffffffffffffffff16815260200190815260200160002060008573ffffffffffffffffffffffffffffffffffffffff1673ffffffffffffffffffffffffffffffffffffffff16815260200190815260200160002054905082811015610e45576040517f08c379a0000000000000000000000000000000000000000000000000000000008152600401610e3c906131a9565b60405180910390fd5b610e59610e50611061565b85858403611069565b600191505092915050565b6000610e78610e71611061565b8484611234565b6001905092915050565b6000610e9f60016000848152602001908152602001600020611a2e565b9050919050565b7f9f2df0fed2c77648de5860a4cc508cd0818c85b8b8a1ab4ceeef8d981c8956a681565b610ed48282611a43565b610ef9816001600085815260200190815260200160002061152190919063ffffffff16565b505050565b6000600460008473ffffffffffffffffffffffffffffffffffffffff1673ffffffffffffffffffffffffffffffffffffffff16815260200190815260200160002060008373ffffffffffffffffffffffffffffffffffffffff1673ffffffffffffffffffffffffffffffffffffffff16815260200190815260200160002054905092915050565b7f65d7a28e3265b37a6474929f336521b332c1681b933f6cb9f3376673440d862a81565b610fb38282611a6c565b5050565b6000610fdf836000018373ffffffffffffffffffffffffffffffffffffffff1660001b611b4c565b905092915050565b60007f7965db0b000000000000000000000000000000000000000000000000000000007bffffffffffffffffffffffffffffffffffffffffffffffffffffffff1916827bffffffffffffffffffffffffffffffffffffffffffffffffffffffff1916148061105a575061105982611bbc565b5b9050919050565b600033905090565b600073ffffffffffffffffffffffffffffffffffffffff168373ffffffffffffffffffffffffffffffffffffffff1614156110d9576040517f08c379a00000000000000000000000000000000000000000000000000000000081526004016110d090613169565b60405180910390fd5b600073ffffffffffffffffffffffffffffffffffffffff168273ffffffffffffffffffffffffffffffffffffffff161415611149576040517f08c379a000000000000000000000000000000000000000000000000000000000815260040161114090613069565b60405180910390fd5b80600460008573ffffffffffffffffffffffffffffffffffffffff1673ffffffffffffffffffffffffffffffffffffffff16815260200190815260200160002060008473ffffffffffffffffffffffffffffffffffffffff1673ffffffffffffffffffffffffffffffffffffffff168152602001908152602001600020819055508173ffffffffffffffffffffffffffffffffffffffff168373ffffffffffffffffffffffffffffffffffffffff167f8c5be1e5ebec7d5bd14f71427d1e84f3dd0314c0f7b2291e5b200ac8c7c3b925836040516112279190613229565b60405180910390a3505050565b600073ffffffffffffffffffffffffffffffffffffffff168373ffffffffffffffffffffffffffffffffffffffff1614156112a4576040517f08c379a000000000000000000000000000000000000000000000000000000000815260040161129b90613149565b60405180910390fd5b600073ffffffffffffffffffffffffffffffffffffffff168273ffffffffffffffffffffffffffffffffffffffff161415611314576040517f08c379a000000000000000000000000000000000000000000000000000000000815260040161130b90612fa9565b60405180910390fd5b61131f838383611c26565b6000600260008573ffffffffffffffffffffffffffffffffffffffff1673ffffffffffffffffffffffffffffffffffffffff168152602001908152602001600020549050818103600260008673ffffffffffffffffffffffffffffffffffffffff1673ffffffffffffffffffffffffffffffffffffffff1681526020019081526020016000208190555081600260008573ffffffffffffffffffffffffffffffffffffffff1673ffffffffffffffffffffffffffffffffffffffff16815260200190815260200160002060008282546113f89190613286565b925050819055508273ffffffffffffffffffffffffffffffffffffffff168473ffffffffffffffffffffffffffffffffffffffff167fddf252ad1be2c89b69c2b068fc378daa952ba7f163c4a11628f55a4df523b3ef8460405161145c9190613229565b60405180910390a361146f848484611cc5565b50505050565b61147e82610808565b61148f8161148a611061565b611cca565b6114998383611a6c565b505050565b6114a6611061565b73ffffffffffffffffffffffffffffffffffffffff168173ffffffffffffffffffffffffffffffffffffffff1614611513576040517f08c379a000000000000000000000000000000000000000000000000000000000815260040161150a906131c9565b60405180910390fd5b61151d8282611d67565b5050565b6000611549836000018373ffffffffffffffffffffffffffffffffffffffff1660001b611e48565b905092915050565b611559610a50565b611598576040517f08c379a000000000000000000000000000000000000000000000000000000000815260040161158f90612fe9565b60405180910390fd5b6000600960006101000a81548160ff0219169083151502179055507f5db9ee0a495bf2e6ff9c91a7834c1ba4fdd244a5e8aa4e537bd38aeae4b073aa6115dc611061565b6040516115e99190612f16565b60405180910390a1565b600073ffffffffffffffffffffffffffffffffffffffff168273ffffffffffffffffffffffffffffffffffffffff161415611663576040517f08c379a000000000000000000000000000000000000000000000000000000000815260040161165a906131e9565b60405180910390fd5b61166f60008383611c26565b80600560008282546116819190613286565b9250508190555080600260008473ffffffffffffffffffffffffffffffffffffffff1673ffffffffffffffffffffffffffffffffffffffff16815260200190815260200160002060008282546116d79190613286565b9250508190555042600360008473ffffffffffffffffffffffffffffffffffffffff1673ffffffffffffffffffffffffffffffffffffffff168152602001908152602001600020819055508173ffffffffffffffffffffffffffffffffffffffff16600073ffffffffffffffffffffffffffffffffffffffff167fddf252ad1be2c89b69c2b068fc378daa952ba7f163c4a11628f55a4df523b3ef836040516117809190613229565b60405180910390a361179460008383611cc5565b5050565b600073ffffffffffffffffffffffffffffffffffffffff168273ffffffffffffffffffffffffffffffffffffffff161415611808576040517f08c379a00000000000000000000000000000000000000000000000000000000081526004016117ff90613129565b60405180910390fd5b61181482600083611c26565b6000600260008473ffffffffffffffffffffffffffffffffffffffff1673ffffffffffffffffffffffffffffffffffffffff1681526020019081526020016000205490508181101561189b576040517f08c379a000000000000000000000000000000000000000000000000000000000815260040161189290613009565b60405180910390fd5b818103600260008573ffffffffffffffffffffffffffffffffffffffff1673ffffffffffffffffffffffffffffffffffffffff1681526020019081526020016000208190555081600560008282546118f39190613336565b92505081905550600073ffffffffffffffffffffffffffffffffffffffff168373ffffffffffffffffffffffffffffffffffffffff167fddf252ad1be2c89b69c2b068fc378daa952ba7f163c4a11628f55a4df523b3ef846040516119589190613229565b60405180910390a361196c83600084611cc5565b505050565b611979610a50565b156119b9576040517f08c379a00000000000000000000000000000000000000000000000000000000081526004016119b090613089565b60405180910390fd5b6001600960006101000a81548160ff0219169083151502179055507f62e78cea01bee320cd4e420270b5ea74000d11b0c9f74754ebdbfc544b05a2586119fd611061565b604051611a0a9190612f16565b60405180910390a1565b6000611a238360000183611fce565b60001c905092915050565b6000611a3c8260000161201f565b9050919050565b611a4c82610808565b611a5d81611a58611061565b611cca565b611a678383611d67565b505050565b611a768282610bd4565b611b4857600160008084815260200190815260200160002060000160008373ffffffffffffffffffffffffffffffffffffffff1673ffffffffffffffffffffffffffffffffffffffff16815260200190815260200160002060006101000a81548160ff021916908315150217905550611aed611061565b73ffffffffffffffffffffffffffffffffffffffff168173ffffffffffffffffffffffffffffffffffffffff16837f2f8788117e7eff1d82e926ec794901d17c78024a50270940304540a733656f0d60405160405180910390a45b5050565b6000611b588383612030565b611bb1578260000182908060018154018082558091505060019003906000526020600020016000909190919091505582600001805490508360010160008481526020019081526020016000208190555060019050611bb6565b600090505b92915050565b60007f01ffc9a7000000000000000000000000000000000000000000000000000000007bffffffffffffffffffffffffffffffffffffffffffffffffffffffff1916827bffffffffffffffffffffffffffffffffffffffffffffffffffffffff1916149050919050565b600654600360008573ffffffffffffffffffffffffffffffffffffffff1673ffffffffffffffffffffffffffffffffffffffff1681526020019081526020016000205442611c749190613336565b1015611cb5576040517f08c379a0000000000000000000000000000000000000000000000000000000008152600401611cac90613029565b60405180910390fd5b611cc0838383612053565b505050565b505050565b611cd48282610bd4565b611d6357611cf98173ffffffffffffffffffffffffffffffffffffffff1660146120ab565b611d078360001c60206120ab565b604051602001611d18929190612edc565b6040516020818303038152906040526040517f08c379a0000000000000000000000000000000000000000000000000000000008152600401611d5a9190612f67565b60405180910390fd5b5050565b611d718282610bd4565b15611e4457600080600084815260200190815260200160002060000160008373ffffffffffffffffffffffffffffffffffffffff1673ffffffffffffffffffffffffffffffffffffffff16815260200190815260200160002060006101000a81548160ff021916908315150217905550611de9611061565b73ffffffffffffffffffffffffffffffffffffffff168173ffffffffffffffffffffffffffffffffffffffff16837ff6391f5c32d9c69d2a47ea670b442974b53935d1edc7fd64eb21e047a839171b60405160405180910390a45b5050565b60008083600101600084815260200190815260200160002054905060008114611fc2576000600182611e7a9190613336565b9050600060018660000180549050611e929190613336565b9050818114611f4d576000866000018281548110611ed9577f4e487b7100000000000000000000000000000000000000000000000000000000600052603260045260246000fd5b9060005260206000200154905080876000018481548110611f23577f4e487b7100000000000000000000000000000000000000000000000000000000600052603260045260246000fd5b90600052602060002001819055508387600101600083815260200190815260200160002081905550505b85600001805480611f87577f4e487b7100000000000000000000000000000000000000000000000000000000600052603160045260246000fd5b600190038181906000526020600020016000905590558560010160008681526020019081526020016000206000905560019350505050611fc8565b60009150505b92915050565b600082600001828154811061200c577f4e487b7100000000000000000000000000000000000000000000000000000000600052603260045260246000fd5b9060005260206000200154905092915050565b600081600001805490509050919050565b600080836001016000848152602001908152602001600020541415905092915050565b61205e8383836123a5565b612066610a50565b156120a6576040517f08c379a000000000000000000000000000000000000000000000000000000000815260040161209d90613209565b60405180910390fd5b505050565b6060600060028360026120be91906132dc565b6120c89190613286565b67ffffffffffffffff811115612107577f4e487b7100000000000000000000000000000000000000000000000000000000600052604160045260246000fd5b6040519080825280601f01601f1916602001820160405280156121395781602001600182028036833780820191505090505b5090507f300000000000000000000000000000000000000000000000000000000000000081600081518110612197577f4e487b7100000000000000000000000000000000000000000000000000000000600052603260045260246000fd5b60200101907effffffffffffffffffffffffffffffffffffffffffffffffffffffffffffff1916908160001a9053507f780000000000000000000000000000000000000000000000000000000000000081600181518110612221577f4e487b7100000000000000000000000000000000000000000000000000000000600052603260045260246000fd5b60200101907effffffffffffffffffffffffffffffffffffffffffffffffffffffffffffff1916908160001a9053506000600184600261226191906132dc565b61226b9190613286565b90505b6001811115612357577f3031323334353637383961626364656600000000000000000000000000000000600f8616601081106122d3577f4e487b7100000000000000000000000000000000000000000000000000000000600052603260045260246000fd5b1a60f81b828281518110612310577f4e487b7100000000000000000000000000000000000000000000000000000000600052603260045260246000fd5b60200101907effffffffffffffffffffffffffffffffffffffffffffffffffffffffffffff1916908160001a905350600485901c94508061235090613428565b905061226e565b506000841461239b576040517f08c379a000000000000000000000000000000000000000000000000000000000815260040161239290612f89565b60405180910390fd5b8091505092915050565b505050565b6000813590506123b9816134f3565b92915050565b6000813590506123ce8161350a565b92915050565b6000813590506123e381613521565b92915050565b6000813590506123f881613538565b92915050565b60006020828403121561241057600080fd5b600061241e848285016123aa565b91505092915050565b6000806040838503121561243a57600080fd5b6000612448858286016123aa565b9250506020612459858286016123aa565b9150509250929050565b60008060006060848603121561247857600080fd5b6000612486868287016123aa565b9350506020612497868287016123aa565b92505060406124a8868287016123e9565b9150509250925092565b600080604083850312156124c557600080fd5b60006124d3858286016123aa565b92505060206124e4858286016123e9565b9150509250929050565b60006020828403121561250057600080fd5b600061250e848285016123bf565b91505092915050565b6000806040838503121561252a57600080fd5b6000612538858286016123bf565b9250506020612549858286016123aa565b9150509250929050565b6000806040838503121561256657600080fd5b6000612574858286016123bf565b9250506020612585858286016123e9565b9150509250929050565b6000602082840312156125a157600080fd5b60006125af848285016123d4565b91505092915050565b6000602082840312156125ca57600080fd5b60006125d8848285016123e9565b91505092915050565b6125ea8161336a565b82525050565b6125f98161337c565b82525050565b61260881613388565b82525050565b60006126198261325f565b612623818561326a565b93506126338185602086016133f5565b61263c816134e2565b840191505092915050565b60006126528261325f565b61265c818561327b565b935061266c8185602086016133f5565b80840191505092915050565b600061268560208361326a565b91507f537472696e67733a20686578206c656e67746820696e73756666696369656e746000830152602082019050919050565b60006126c560238361326a565b91507f45524332303a207472616e7366657220746f20746865207a65726f206164647260008301527f65737300000000000000000000000000000000000000000000000000000000006020830152604082019050919050565b600061272b60378361326a565b91507f45524332305072657365744d696e7465725061757365723a206d75737420686160008301527f76652061646d696e20726f6c6520746f207365742043440000000000000000006020830152604082019050919050565b600061279160148361326a565b91507f5061757361626c653a206e6f74207061757365640000000000000000000000006000830152602082019050919050565b60006127d160228361326a565b91507f45524332303a206275726e20616d6f756e7420657863656564732062616c616e60008301527f63650000000000000000000000000000000000000000000000000000000000006020830152604082019050919050565b600061283760558361326a565b91507f596f75206861766520726563656e746c79206265656e206d696e74656420746f60008301527f6b656e732c20706c65617365207761697420666f7220746865207472616e736660208301527f657220636f6f6c646f776e20746f2065787069726500000000000000000000006040830152606082019050919050565b60006128c360398361326a565b91507f45524332305072657365744d696e7465725061757365723a206d75737420686160008301527f76652070617573657220726f6c6520746f20756e7061757365000000000000006020830152604082019050919050565b600061292960228361326a565b91507f45524332303a20617070726f766520746f20746865207a65726f20616464726560008301527f73730000000000000000000000000000000000000000000000000000000000006020830152604082019050919050565b600061298f60108361326a565b91507f5061757361626c653a20706175736564000000000000000000000000000000006000830152602082019050919050565b60006129cf60288361326a565b91507f45524332303a207472616e7366657220616d6f756e742065786365656473206160008301527f6c6c6f77616e63650000000000000000000000000000000000000000000000006020830152604082019050919050565b6000612a3560368361326a565b91507f45524332305072657365744d696e7465725061757365723a206d75737420686160008301527f7665206d696e74657220726f6c6520746f206d696e74000000000000000000006020830152604082019050919050565b6000612a9b60248361326a565b91507f45524332303a206275726e20616d6f756e74206578636565647320616c6c6f7760008301527f616e6365000000000000000000000000000000000000000000000000000000006020830152604082019050919050565b6000612b0160138361326a565b91507f54696d652065786365656473206d6178204344000000000000000000000000006000830152602082019050919050565b6000612b4160218361326a565b91507f45524332303a206275726e2066726f6d20746865207a65726f2061646472657360008301527f73000000000000000000000000000000000000000000000000000000000000006020830152604082019050919050565b6000612ba760258361326a565b91507f45524332303a207472616e736665722066726f6d20746865207a65726f20616460008301527f64726573730000000000000000000000000000000000000000000000000000006020830152604082019050919050565b6000612c0d60248361326a565b91507f45524332303a20617070726f76652066726f6d20746865207a65726f2061646460008301527f72657373000000000000000000000000000000000000000000000000000000006020830152604082019050919050565b6000612c7360378361326a565b91507f45524332305072657365744d696e7465725061757365723a206d75737420686160008301527f76652070617573657220726f6c6520746f2070617573650000000000000000006020830152604082019050919050565b6000612cd960178361327b565b91507f416363657373436f6e74726f6c3a206163636f756e74200000000000000000006000830152601782019050919050565b6000612d1960258361326a565b91507f45524332303a2064656372656173656420616c6c6f77616e63652062656c6f7760008301527f207a65726f0000000000000000000000000000000000000000000000000000006020830152604082019050919050565b6000612d7f60118361327b565b91507f206973206d697373696e6720726f6c65200000000000000000000000000000006000830152601182019050919050565b6000612dbf602f8361326a565b91507f416363657373436f6e74726f6c3a2063616e206f6e6c792072656e6f756e636560008301527f20726f6c657320666f722073656c6600000000000000000000000000000000006020830152604082019050919050565b6000612e25601f8361326a565b91507f45524332303a206d696e7420746f20746865207a65726f2061646472657373006000830152602082019050919050565b6000612e65602a8361326a565b91507f45524332305061757361626c653a20746f6b656e207472616e7366657220776860008301527f696c6520706175736564000000000000000000000000000000000000000000006020830152604082019050919050565b612ec7816133de565b82525050565b612ed6816133e8565b82525050565b6000612ee782612ccc565b9150612ef38285612647565b9150612efe82612d72565b9150612f0a8284612647565b91508190509392505050565b6000602082019050612f2b60008301846125e1565b92915050565b6000602082019050612f4660008301846125f0565b92915050565b6000602082019050612f6160008301846125ff565b92915050565b60006020820190508181036000830152612f81818461260e565b905092915050565b60006020820190508181036000830152612fa281612678565b9050919050565b60006020820190508181036000830152612fc2816126b8565b9050919050565b60006020820190508181036000830152612fe28161271e565b9050919050565b6000602082019050818103600083015261300281612784565b9050919050565b60006020820190508181036000830152613022816127c4565b9050919050565b600060208201905081810360008301526130428161282a565b9050919050565b60006020820190508181036000830152613062816128b6565b9050919050565b600060208201905081810360008301526130828161291c565b9050919050565b600060208201905081810360008301526130a281612982565b9050919050565b600060208201905081810360008301526130c2816129c2565b9050919050565b600060208201905081810360008301526130e281612a28565b9050919050565b6000602082019050818103600083015261310281612a8e565b9050919050565b6000602082019050818103600083015261312281612af4565b9050919050565b6000602082019050818103600083015261314281612b34565b9050919050565b6000602082019050818103600083015261316281612b9a565b9050919050565b6000602082019050818103600083015261318281612c00565b9050919050565b600060208201905081810360008301526131a281612c66565b9050919050565b600060208201905081810360008301526131c281612d0c565b9050919050565b600060208201905081810360008301526131e281612db2565b9050919050565b6000602082019050818103600083015261320281612e18565b9050919050565b6000602082019050818103600083015261322281612e58565b9050919050565b600060208201905061323e6000830184612ebe565b92915050565b60006020820190506132596000830184612ecd565b92915050565b600081519050919050565b600082825260208201905092915050565b600081905092915050565b6000613291826133de565b915061329c836133de565b9250827fffffffffffffffffffffffffffffffffffffffffffffffffffffffffffffffff038211156132d1576132d0613484565b5b828201905092915050565b60006132e7826133de565b91506132f2836133de565b9250817fffffffffffffffffffffffffffffffffffffffffffffffffffffffffffffffff048311821515161561332b5761332a613484565b5b828202905092915050565b6000613341826133de565b915061334c836133de565b92508282101561335f5761335e613484565b5b828203905092915050565b6000613375826133be565b9050919050565b60008115159050919050565b6000819050919050565b60007fffffffff0000000000000000000000000000000000000000000000000000000082169050919050565b600073ffffffffffffffffffffffffffffffffffffffff82169050919050565b6000819050919050565b600060ff82169050919050565b60005b838110156134135780820151818401526020810190506133f8565b83811115613422576000848401525b50505050565b6000613433826133de565b9150600082141561344757613446613484565b5b600182039050919050565b6000600282049050600182168061346a57607f821691505b6020821081141561347e5761347d6134b3565b5b50919050565b7f4e487b7100000000000000000000000000000000000000000000000000000000600052601160045260246000fd5b7f4e487b7100000000000000000000000000000000000000000000000000000000600052602260045260246000fd5b6000601f19601f8301169050919050565b6134fc8161336a565b811461350757600080fd5b50565b61351381613388565b811461351e57600080fd5b50565b61352a81613392565b811461353557600080fd5b50565b613541816133de565b811461354c57600080fd5b5056fea2646970667358221220358d961b39291a21bef2082f7eef6ecc1ffbbf2166f4af07d662630319c41a1864736f6c63430008000033",
			"opcodes": "PUSH1 0x80 PUSH1 0x40 MSTORE CALLVALUE DUP1 ISZERO PUSH3 0x11 JUMPI PUSH1 0x0 DUP1 REVERT JUMPDEST POP PUSH1 0x40 MLOAD PUSH3 0x3C2F CODESIZE SUB DUP1 PUSH3 0x3C2F DUP4 CODECOPY DUP2 DUP2 ADD PUSH1 0x40 MSTORE DUP2 ADD SWAP1 PUSH3 0x37 SWAP2 SWAP1 PUSH3 0x4F6 JUMP JUMPDEST DUP2 DUP2 DUP2 PUSH1 0x7 SWAP1 DUP1 MLOAD SWAP1 PUSH1 0x20 ADD SWAP1 PUSH3 0x51 SWAP3 SWAP2 SWAP1 PUSH3 0x3D4 JUMP JUMPDEST POP DUP1 PUSH1 0x8 SWAP1 DUP1 MLOAD SWAP1 PUSH1 0x20 ADD SWAP1 PUSH3 0x6A SWAP3 SWAP2 SWAP1 PUSH3 0x3D4 JUMP JUMPDEST POP PUSH1 0x3C PUSH1 0x6 DUP2 SWAP1 SSTORE POP POP POP PUSH1 0x0 PUSH1 0x9 PUSH1 0x0 PUSH2 0x100 EXP DUP2 SLOAD DUP2 PUSH1 0xFF MUL NOT AND SWAP1 DUP4 ISZERO ISZERO MUL OR SWAP1 SSTORE POP PUSH3 0xB4 PUSH1 0x0 DUP1 SHL PUSH3 0xA8 PUSH3 0x13E PUSH1 0x20 SHL PUSH1 0x20 SHR JUMP JUMPDEST PUSH3 0x146 PUSH1 0x20 SHL PUSH1 0x20 SHR JUMP JUMPDEST PUSH3 0xF5 PUSH32 0x9F2DF0FED2C77648DE5860A4CC508CD0818C85B8B8A1AB4CEEEF8D981C8956A6 PUSH3 0xE9 PUSH3 0x13E PUSH1 0x20 SHL PUSH1 0x20 SHR JUMP JUMPDEST PUSH3 0x146 PUSH1 0x20 SHL PUSH1 0x20 SHR JUMP JUMPDEST PUSH3 0x136 PUSH32 0x65D7A28E3265B37A6474929F336521B332C1681B933F6CB9F3376673440D862A PUSH3 0x12A PUSH3 0x13E PUSH1 0x20 SHL PUSH1 0x20 SHR JUMP JUMPDEST PUSH3 0x146 PUSH1 0x20 SHL PUSH1 0x20 SHR JUMP JUMPDEST POP POP PUSH3 0x69A JUMP JUMPDEST PUSH1 0x0 CALLER SWAP1 POP SWAP1 JUMP JUMPDEST PUSH3 0x15D DUP3 DUP3 PUSH3 0x18E PUSH1 0x20 SHL PUSH3 0xFA9 OR PUSH1 0x20 SHR JUMP JUMPDEST PUSH3 0x189 DUP2 PUSH1 0x1 PUSH1 0x0 DUP6 DUP2 MSTORE PUSH1 0x20 ADD SWAP1 DUP2 MSTORE PUSH1 0x20 ADD PUSH1 0x0 KECCAK256 PUSH3 0x1A4 PUSH1 0x20 SHL PUSH3 0xFB7 OR SWAP1 SWAP2 SWAP1 PUSH1 0x20 SHR JUMP JUMPDEST POP POP POP JUMP JUMPDEST PUSH3 0x1A0 DUP3 DUP3 PUSH3 0x1DC PUSH1 0x20 SHL PUSH1 0x20 SHR JUMP JUMPDEST POP POP JUMP JUMPDEST PUSH1 0x0 PUSH3 0x1D4 DUP4 PUSH1 0x0 ADD DUP4 PUSH20 0xFFFFFFFFFFFFFFFFFFFFFFFFFFFFFFFFFFFFFFFF AND PUSH1 0x0 SHL PUSH3 0x2CD PUSH1 0x20 SHL PUSH1 0x20 SHR JUMP JUMPDEST SWAP1 POP SWAP3 SWAP2 POP POP JUMP JUMPDEST PUSH3 0x1EE DUP3 DUP3 PUSH3 0x347 PUSH1 0x20 SHL PUSH1 0x20 SHR JUMP JUMPDEST PUSH3 0x2C9 JUMPI PUSH1 0x1 PUSH1 0x0 DUP1 DUP5 DUP2 MSTORE PUSH1 0x20 ADD SWAP1 DUP2 MSTORE PUSH1 0x20 ADD PUSH1 0x0 KECCAK256 PUSH1 0x0 ADD PUSH1 0x0 DUP4 PUSH20 0xFFFFFFFFFFFFFFFFFFFFFFFFFFFFFFFFFFFFFFFF AND PUSH20 0xFFFFFFFFFFFFFFFFFFFFFFFFFFFFFFFFFFFFFFFF AND DUP2 MSTORE PUSH1 0x20 ADD SWAP1 DUP2 MSTORE PUSH1 0x20 ADD PUSH1 0x0 KECCAK256 PUSH1 0x0 PUSH2 0x100 EXP DUP2 SLOAD DUP2 PUSH1 0xFF MUL NOT AND SWAP1 DUP4 ISZERO ISZERO MUL OR SWAP1 SSTORE POP PUSH3 0x26E PUSH3 0x13E PUSH1 0x20 SHL PUSH1 0x20 SHR JUMP JUMPDEST PUSH20 0xFFFFFFFFFFFFFFFFFFFFFFFFFFFFFFFFFFFFFFFF AND DUP2 PUSH20 0xFFFFFFFFFFFFFFFFFFFFFFFFFFFFFFFFFFFFFFFF AND DUP4 PUSH32 0x2F8788117E7EFF1D82E926EC794901D17C78024A50270940304540A733656F0D PUSH1 0x40 MLOAD PUSH1 0x40 MLOAD DUP1 SWAP2 SUB SWAP1 LOG4 JUMPDEST POP POP JUMP JUMPDEST PUSH1 0x0 PUSH3 0x2E1 DUP4 DUP4 PUSH3 0x3B1 PUSH1 0x20 SHL PUSH1 0x20 SHR JUMP JUMPDEST PUSH3 0x33C JUMPI DUP3 PUSH1 0x0 ADD DUP3 SWAP1 DUP1 PUSH1 0x1 DUP2 SLOAD ADD DUP1 DUP3 SSTORE DUP1 SWAP2 POP POP PUSH1 0x1 SWAP1 SUB SWAP1 PUSH1 0x0 MSTORE PUSH1 0x20 PUSH1 0x0 KECCAK256 ADD PUSH1 0x0 SWAP1 SWAP2 SWAP1 SWAP2 SWAP1 SWAP2 POP SSTORE DUP3 PUSH1 0x0 ADD DUP1 SLOAD SWAP1 POP DUP4 PUSH1 0x1 ADD PUSH1 0x0 DUP5 DUP2 MSTORE PUSH1 0x20 ADD SWAP1 DUP2 MSTORE PUSH1 0x20 ADD PUSH1 0x0 KECCAK256 DUP2 SWAP1 SSTORE POP PUSH1 0x1 SWAP1 POP PUSH3 0x341 JUMP JUMPDEST PUSH1 0x0 SWAP1 POP JUMPDEST SWAP3 SWAP2 POP POP JUMP JUMPDEST PUSH1 0x0 DUP1 PUSH1 0x0 DUP5 DUP2 MSTORE PUSH1 0x20 ADD SWAP1 DUP2 MSTORE PUSH1 0x20 ADD PUSH1 0x0 KECCAK256 PUSH1 0x0 ADD PUSH1 0x0 DUP4 PUSH20 0xFFFFFFFFFFFFFFFFFFFFFFFFFFFFFFFFFFFFFFFF AND PUSH20 0xFFFFFFFFFFFFFFFFFFFFFFFFFFFFFFFFFFFFFFFF AND DUP2 MSTORE PUSH1 0x20 ADD SWAP1 DUP2 MSTORE PUSH1 0x20 ADD PUSH1 0x0 KECCAK256 PUSH1 0x0 SWAP1 SLOAD SWAP1 PUSH2 0x100 EXP SWAP1 DIV PUSH1 0xFF AND SWAP1 POP SWAP3 SWAP2 POP POP JUMP JUMPDEST PUSH1 0x0 DUP1 DUP4 PUSH1 0x1 ADD PUSH1 0x0 DUP5 DUP2 MSTORE PUSH1 0x20 ADD SWAP1 DUP2 MSTORE PUSH1 0x20 ADD PUSH1 0x0 KECCAK256 SLOAD EQ ISZERO SWAP1 POP SWAP3 SWAP2 POP POP JUMP JUMPDEST DUP3 DUP1 SLOAD PUSH3 0x3E2 SWAP1 PUSH3 0x606 JUMP JUMPDEST SWAP1 PUSH1 0x0 MSTORE PUSH1 0x20 PUSH1 0x0 KECCAK256 SWAP1 PUSH1 0x1F ADD PUSH1 0x20 SWAP1 DIV DUP2 ADD SWAP3 DUP3 PUSH3 0x406 JUMPI PUSH1 0x0 DUP6 SSTORE PUSH3 0x452 JUMP JUMPDEST DUP3 PUSH1 0x1F LT PUSH3 0x421 JUMPI DUP1 MLOAD PUSH1 0xFF NOT AND DUP4 DUP1 ADD OR DUP6 SSTORE PUSH3 0x452 JUMP JUMPDEST DUP3 DUP1 ADD PUSH1 0x1 ADD DUP6 SSTORE DUP3 ISZERO PUSH3 0x452 JUMPI SWAP2 DUP3 ADD JUMPDEST DUP3 DUP2 GT ISZERO PUSH3 0x451 JUMPI DUP3 MLOAD DUP3 SSTORE SWAP2 PUSH1 0x20 ADD SWAP2 SWAP1 PUSH1 0x1 ADD SWAP1 PUSH3 0x434 JUMP JUMPDEST JUMPDEST POP SWAP1 POP PUSH3 0x461 SWAP2 SWAP1 PUSH3 0x465 JUMP JUMPDEST POP SWAP1 JUMP JUMPDEST JUMPDEST DUP1 DUP3 GT ISZERO PUSH3 0x480 JUMPI PUSH1 0x0 DUP2 PUSH1 0x0 SWAP1 SSTORE POP PUSH1 0x1 ADD PUSH3 0x466 JUMP JUMPDEST POP SWAP1 JUMP JUMPDEST PUSH1 0x0 PUSH3 0x49B PUSH3 0x495 DUP5 PUSH3 0x59D JUMP JUMPDEST PUSH3 0x569 JUMP JUMPDEST SWAP1 POP DUP3 DUP2 MSTORE PUSH1 0x20 DUP2 ADD DUP5 DUP5 DUP5 ADD GT ISZERO PUSH3 0x4B4 JUMPI PUSH1 0x0 DUP1 REVERT JUMPDEST PUSH3 0x4C1 DUP5 DUP3 DUP6 PUSH3 0x5D0 JUMP JUMPDEST POP SWAP4 SWAP3 POP POP POP JUMP JUMPDEST PUSH1 0x0 DUP3 PUSH1 0x1F DUP4 ADD SLT PUSH3 0x4DB JUMPI PUSH1 0x0 DUP1 REVERT JUMPDEST DUP2 MLOAD PUSH3 0x4ED DUP5 DUP3 PUSH1 0x20 DUP7 ADD PUSH3 0x484 JUMP JUMPDEST SWAP2 POP POP SWAP3 SWAP2 POP POP JUMP JUMPDEST PUSH1 0x0 DUP1 PUSH1 0x40 DUP4 DUP6 SUB SLT ISZERO PUSH3 0x50A JUMPI PUSH1 0x0 DUP1 REVERT JUMPDEST PUSH1 0x0 DUP4 ADD MLOAD PUSH8 0xFFFFFFFFFFFFFFFF DUP2 GT ISZERO PUSH3 0x525 JUMPI PUSH1 0x0 DUP1 REVERT JUMPDEST PUSH3 0x533 DUP6 DUP3 DUP7 ADD PUSH3 0x4C9 JUMP JUMPDEST SWAP3 POP POP PUSH1 0x20 DUP4 ADD MLOAD PUSH8 0xFFFFFFFFFFFFFFFF DUP2 GT ISZERO PUSH3 0x551 JUMPI PUSH1 0x0 DUP1 REVERT JUMPDEST PUSH3 0x55F DUP6 DUP3 DUP7 ADD PUSH3 0x4C9 JUMP JUMPDEST SWAP2 POP POP SWAP3 POP SWAP3 SWAP1 POP JUMP JUMPDEST PUSH1 0x0 PUSH1 0x40 MLOAD SWAP1 POP DUP2 DUP2 ADD DUP2 DUP2 LT PUSH8 0xFFFFFFFFFFFFFFFF DUP3 GT OR ISZERO PUSH3 0x593 JUMPI PUSH3 0x592 PUSH3 0x66B JUMP JUMPDEST JUMPDEST DUP1 PUSH1 0x40 MSTORE POP SWAP2 SWAP1 POP JUMP JUMPDEST PUSH1 0x0 PUSH8 0xFFFFFFFFFFFFFFFF DUP3 GT ISZERO PUSH3 0x5BB JUMPI PUSH3 0x5BA PUSH3 0x66B JUMP JUMPDEST JUMPDEST PUSH1 0x1F NOT PUSH1 0x1F DUP4 ADD AND SWAP1 POP PUSH1 0x20 DUP2 ADD SWAP1 POP SWAP2 SWAP1 POP JUMP JUMPDEST PUSH1 0x0 JUMPDEST DUP4 DUP2 LT ISZERO PUSH3 0x5F0 JUMPI DUP1 DUP3 ADD MLOAD DUP2 DUP5 ADD MSTORE PUSH1 0x20 DUP2 ADD SWAP1 POP PUSH3 0x5D3 JUMP JUMPDEST DUP4 DUP2 GT ISZERO PUSH3 0x600 JUMPI PUSH1 0x0 DUP5 DUP5 ADD MSTORE JUMPDEST POP POP POP POP JUMP JUMPDEST PUSH1 0x0 PUSH1 0x2 DUP3 DIV SWAP1 POP PUSH1 0x1 DUP3 AND DUP1 PUSH3 0x61F JUMPI PUSH1 0x7F DUP3 AND SWAP2 POP JUMPDEST PUSH1 0x20 DUP3 LT DUP2 EQ ISZERO PUSH3 0x636 JUMPI PUSH3 0x635 PUSH3 0x63C JUMP JUMPDEST JUMPDEST POP SWAP2 SWAP1 POP JUMP JUMPDEST PUSH32 0x4E487B7100000000000000000000000000000000000000000000000000000000 PUSH1 0x0 MSTORE PUSH1 0x22 PUSH1 0x4 MSTORE PUSH1 0x24 PUSH1 0x0 REVERT JUMPDEST PUSH32 0x4E487B7100000000000000000000000000000000000000000000000000000000 PUSH1 0x0 MSTORE PUSH1 0x41 PUSH1 0x4 MSTORE PUSH1 0x24 PUSH1 0x0 REVERT JUMPDEST PUSH2 0x3585 DUP1 PUSH3 0x6AA PUSH1 0x0 CODECOPY PUSH1 0x0 RETURN INVALID PUSH1 0x80 PUSH1 0x40 MSTORE CALLVALUE DUP1 ISZERO PUSH2 0x10 JUMPI PUSH1 0x0 DUP1 REVERT JUMPDEST POP PUSH1 0x4 CALLDATASIZE LT PUSH2 0x1CF JUMPI PUSH1 0x0 CALLDATALOAD PUSH1 0xE0 SHR DUP1 PUSH4 0x70A08231 GT PUSH2 0x104 JUMPI DUP1 PUSH4 0xA217FDDF GT PUSH2 0xA2 JUMPI DUP1 PUSH4 0xD5391393 GT PUSH2 0x71 JUMPI DUP1 PUSH4 0xD5391393 EQ PUSH2 0x554 JUMPI DUP1 PUSH4 0xD547741F EQ PUSH2 0x572 JUMPI DUP1 PUSH4 0xDD62ED3E EQ PUSH2 0x58E JUMPI DUP1 PUSH4 0xE63AB1E9 EQ PUSH2 0x5BE JUMPI PUSH2 0x1CF JUMP JUMPDEST DUP1 PUSH4 0xA217FDDF EQ PUSH2 0x4A6 JUMPI DUP1 PUSH4 0xA457C2D7 EQ PUSH2 0x4C4 JUMPI DUP1 PUSH4 0xA9059CBB EQ PUSH2 0x4F4 JUMPI DUP1 PUSH4 0xCA15C873 EQ PUSH2 0x524 JUMPI PUSH2 0x1CF JUMP JUMPDEST DUP1 PUSH4 0x9010D07C GT PUSH2 0xDE JUMPI DUP1 PUSH4 0x9010D07C EQ PUSH2 0x40C JUMPI DUP1 PUSH4 0x91D14854 EQ PUSH2 0x43C JUMPI DUP1 PUSH4 0x95D89B41 EQ PUSH2 0x46C JUMPI DUP1 PUSH4 0xA0EFC62D EQ PUSH2 0x48A JUMPI PUSH2 0x1CF JUMP JUMPDEST DUP1 PUSH4 0x70A08231 EQ PUSH2 0x3B6 JUMPI DUP1 PUSH4 0x79CC6790 EQ PUSH2 0x3E6 JUMPI DUP1 PUSH4 0x8456CB59 EQ PUSH2 0x402 JUMPI PUSH2 0x1CF JUMP JUMPDEST DUP1 PUSH4 0x313CE567 GT PUSH2 0x171 JUMPI DUP1 PUSH4 0x3F4BA83A GT PUSH2 0x14B JUMPI DUP1 PUSH4 0x3F4BA83A EQ PUSH2 0x356 JUMPI DUP1 PUSH4 0x40C10F19 EQ PUSH2 0x360 JUMPI DUP1 PUSH4 0x42966C68 EQ PUSH2 0x37C JUMPI DUP1 PUSH4 0x5C975ABB EQ PUSH2 0x398 JUMPI PUSH2 0x1CF JUMP JUMPDEST DUP1 PUSH4 0x313CE567 EQ PUSH2 0x2EC JUMPI DUP1 PUSH4 0x36568ABE EQ PUSH2 0x30A JUMPI DUP1 PUSH4 0x39509351 EQ PUSH2 0x326 JUMPI PUSH2 0x1CF JUMP JUMPDEST DUP1 PUSH4 0x18160DDD GT PUSH2 0x1AD JUMPI DUP1 PUSH4 0x18160DDD EQ PUSH2 0x252 JUMPI DUP1 PUSH4 0x23B872DD EQ PUSH2 0x270 JUMPI DUP1 PUSH4 0x248A9CA3 EQ PUSH2 0x2A0 JUMPI DUP1 PUSH4 0x2F2FF15D EQ PUSH2 0x2D0 JUMPI PUSH2 0x1CF JUMP JUMPDEST DUP1 PUSH4 0x1FFC9A7 EQ PUSH2 0x1D4 JUMPI DUP1 PUSH4 0x6FDDE03 EQ PUSH2 0x204 JUMPI DUP1 PUSH4 0x95EA7B3 EQ PUSH2 0x222 JUMPI JUMPDEST PUSH1 0x0 DUP1 REVERT JUMPDEST PUSH2 0x1EE PUSH1 0x4 DUP1 CALLDATASIZE SUB DUP2 ADD SWAP1 PUSH2 0x1E9 SWAP2 SWAP1 PUSH2 0x258F JUMP JUMPDEST PUSH2 0x5DC JUMP JUMPDEST PUSH1 0x40 MLOAD PUSH2 0x1FB SWAP2 SWAP1 PUSH2 0x2F31 JUMP JUMPDEST PUSH1 0x40 MLOAD DUP1 SWAP2 SUB SWAP1 RETURN JUMPDEST PUSH2 0x20C PUSH2 0x656 JUMP JUMPDEST PUSH1 0x40 MLOAD PUSH2 0x219 SWAP2 SWAP1 PUSH2 0x2F67 JUMP JUMPDEST PUSH1 0x40 MLOAD DUP1 SWAP2 SUB SWAP1 RETURN JUMPDEST PUSH2 0x23C PUSH1 0x4 DUP1 CALLDATASIZE SUB DUP2 ADD SWAP1 PUSH2 0x237 SWAP2 SWAP1 PUSH2 0x24B2 JUMP JUMPDEST PUSH2 0x6E8 JUMP JUMPDEST PUSH1 0x40 MLOAD PUSH2 0x249 SWAP2 SWAP1 PUSH2 0x2F31 JUMP JUMPDEST PUSH1 0x40 MLOAD DUP1 SWAP2 SUB SWAP1 RETURN JUMPDEST PUSH2 0x25A PUSH2 0x706 JUMP JUMPDEST PUSH1 0x40 MLOAD PUSH2 0x267 SWAP2 SWAP1 PUSH2 0x3229 JUMP JUMPDEST PUSH1 0x40 MLOAD DUP1 SWAP2 SUB SWAP1 RETURN JUMPDEST PUSH2 0x28A PUSH1 0x4 DUP1 CALLDATASIZE SUB DUP2 ADD SWAP1 PUSH2 0x285 SWAP2 SWAP1 PUSH2 0x2463 JUMP JUMPDEST PUSH2 0x710 JUMP JUMPDEST PUSH1 0x40 MLOAD PUSH2 0x297 SWAP2 SWAP1 PUSH2 0x2F31 JUMP JUMPDEST PUSH1 0x40 MLOAD DUP1 SWAP2 SUB SWAP1 RETURN JUMPDEST PUSH2 0x2BA PUSH1 0x4 DUP1 CALLDATASIZE SUB DUP2 ADD SWAP1 PUSH2 0x2B5 SWAP2 SWAP1 PUSH2 0x24EE JUMP JUMPDEST PUSH2 0x808 JUMP JUMPDEST PUSH1 0x40 MLOAD PUSH2 0x2C7 SWAP2 SWAP1 PUSH2 0x2F4C JUMP JUMPDEST PUSH1 0x40 MLOAD DUP1 SWAP2 SUB SWAP1 RETURN JUMPDEST PUSH2 0x2EA PUSH1 0x4 DUP1 CALLDATASIZE SUB DUP2 ADD SWAP1 PUSH2 0x2E5 SWAP2 SWAP1 PUSH2 0x2517 JUMP JUMPDEST PUSH2 0x827 JUMP JUMPDEST STOP JUMPDEST PUSH2 0x2F4 PUSH2 0x85B JUMP JUMPDEST PUSH1 0x40 MLOAD PUSH2 0x301 SWAP2 SWAP1 PUSH2 0x3244 JUMP JUMPDEST PUSH1 0x40 MLOAD DUP1 SWAP2 SUB SWAP1 RETURN JUMPDEST PUSH2 0x324 PUSH1 0x4 DUP1 CALLDATASIZE SUB DUP2 ADD SWAP1 PUSH2 0x31F SWAP2 SWAP1 PUSH2 0x2517 JUMP JUMPDEST PUSH2 0x864 JUMP JUMPDEST STOP JUMPDEST PUSH2 0x340 PUSH1 0x4 DUP1 CALLDATASIZE SUB DUP2 ADD SWAP1 PUSH2 0x33B SWAP2 SWAP1 PUSH2 0x24B2 JUMP JUMPDEST PUSH2 0x898 JUMP JUMPDEST PUSH1 0x40 MLOAD PUSH2 0x34D SWAP2 SWAP1 PUSH2 0x2F31 JUMP JUMPDEST PUSH1 0x40 MLOAD DUP1 SWAP2 SUB SWAP1 RETURN JUMPDEST PUSH2 0x35E PUSH2 0x944 JUMP JUMPDEST STOP JUMPDEST PUSH2 0x37A PUSH1 0x4 DUP1 CALLDATASIZE SUB DUP2 ADD SWAP1 PUSH2 0x375 SWAP2 SWAP1 PUSH2 0x24B2 JUMP JUMPDEST PUSH2 0x9BE JUMP JUMPDEST STOP JUMPDEST PUSH2 0x396 PUSH1 0x4 DUP1 CALLDATASIZE SUB DUP2 ADD SWAP1 PUSH2 0x391 SWAP2 SWAP1 PUSH2 0x25B8 JUMP JUMPDEST PUSH2 0xA3C JUMP JUMPDEST STOP JUMPDEST PUSH2 0x3A0 PUSH2 0xA50 JUMP JUMPDEST PUSH1 0x40 MLOAD PUSH2 0x3AD SWAP2 SWAP1 PUSH2 0x2F31 JUMP JUMPDEST PUSH1 0x40 MLOAD DUP1 SWAP2 SUB SWAP1 RETURN JUMPDEST PUSH2 0x3D0 PUSH1 0x4 DUP1 CALLDATASIZE SUB DUP2 ADD SWAP1 PUSH2 0x3CB SWAP2 SWAP1 PUSH2 0x23FE JUMP JUMPDEST PUSH2 0xA67 JUMP JUMPDEST PUSH1 0x40 MLOAD PUSH2 0x3DD SWAP2 SWAP1 PUSH2 0x3229 JUMP JUMPDEST PUSH1 0x40 MLOAD DUP1 SWAP2 SUB SWAP1 RETURN JUMPDEST PUSH2 0x400 PUSH1 0x4 DUP1 CALLDATASIZE SUB DUP2 ADD SWAP1 PUSH2 0x3FB SWAP2 SWAP1 PUSH2 0x24B2 JUMP JUMPDEST PUSH2 0xAB0 JUMP JUMPDEST STOP JUMPDEST PUSH2 0x40A PUSH2 0xB2B JUMP JUMPDEST STOP JUMPDEST PUSH2 0x426 PUSH1 0x4 DUP1 CALLDATASIZE SUB DUP2 ADD SWAP1 PUSH2 0x421 SWAP2 SWAP1 PUSH2 0x2553 JUMP JUMPDEST PUSH2 0xBA5 JUMP JUMPDEST PUSH1 0x40 MLOAD PUSH2 0x433 SWAP2 SWAP1 PUSH2 0x2F16 JUMP JUMPDEST PUSH1 0x40 MLOAD DUP1 SWAP2 SUB SWAP1 RETURN JUMPDEST PUSH2 0x456 PUSH1 0x4 DUP1 CALLDATASIZE SUB DUP2 ADD SWAP1 PUSH2 0x451 SWAP2 SWAP1 PUSH2 0x2517 JUMP JUMPDEST PUSH2 0xBD4 JUMP JUMPDEST PUSH1 0x40 MLOAD PUSH2 0x463 SWAP2 SWAP1 PUSH2 0x2F31 JUMP JUMPDEST PUSH1 0x40 MLOAD DUP1 SWAP2 SUB SWAP1 RETURN JUMPDEST PUSH2 0x474 PUSH2 0xC3E JUMP JUMPDEST PUSH1 0x40 MLOAD PUSH2 0x481 SWAP2 SWAP1 PUSH2 0x2F67 JUMP JUMPDEST PUSH1 0x40 MLOAD DUP1 SWAP2 SUB SWAP1 RETURN JUMPDEST PUSH2 0x4A4 PUSH1 0x4 DUP1 CALLDATASIZE SUB DUP2 ADD SWAP1 PUSH2 0x49F SWAP2 SWAP1 PUSH2 0x25B8 JUMP JUMPDEST PUSH2 0xCD0 JUMP JUMPDEST STOP JUMPDEST PUSH2 0x4AE PUSH2 0xD72 JUMP JUMPDEST PUSH1 0x40 MLOAD PUSH2 0x4BB SWAP2 SWAP1 PUSH2 0x2F4C JUMP JUMPDEST PUSH1 0x40 MLOAD DUP1 SWAP2 SUB SWAP1 RETURN JUMPDEST PUSH2 0x4DE PUSH1 0x4 DUP1 CALLDATASIZE SUB DUP2 ADD SWAP1 PUSH2 0x4D9 SWAP2 SWAP1 PUSH2 0x24B2 JUMP JUMPDEST PUSH2 0xD79 JUMP JUMPDEST PUSH1 0x40 MLOAD PUSH2 0x4EB SWAP2 SWAP1 PUSH2 0x2F31 JUMP JUMPDEST PUSH1 0x40 MLOAD DUP1 SWAP2 SUB SWAP1 RETURN JUMPDEST PUSH2 0x50E PUSH1 0x4 DUP1 CALLDATASIZE SUB DUP2 ADD SWAP1 PUSH2 0x509 SWAP2 SWAP1 PUSH2 0x24B2 JUMP JUMPDEST PUSH2 0xE64 JUMP JUMPDEST PUSH1 0x40 MLOAD PUSH2 0x51B SWAP2 SWAP1 PUSH2 0x2F31 JUMP JUMPDEST PUSH1 0x40 MLOAD DUP1 SWAP2 SUB SWAP1 RETURN JUMPDEST PUSH2 0x53E PUSH1 0x4 DUP1 CALLDATASIZE SUB DUP2 ADD SWAP1 PUSH2 0x539 SWAP2 SWAP1 PUSH2 0x24EE JUMP JUMPDEST PUSH2 0xE82 JUMP JUMPDEST PUSH1 0x40 MLOAD PUSH2 0x54B SWAP2 SWAP1 PUSH2 0x3229 JUMP JUMPDEST PUSH1 0x40 MLOAD DUP1 SWAP2 SUB SWAP1 RETURN JUMPDEST PUSH2 0x55C PUSH2 0xEA6 JUMP JUMPDEST PUSH1 0x40 MLOAD PUSH2 0x569 SWAP2 SWAP1 PUSH2 0x2F4C JUMP JUMPDEST PUSH1 0x40 MLOAD DUP1 SWAP2 SUB SWAP1 RETURN JUMPDEST PUSH2 0x58C PUSH1 0x4 DUP1 CALLDATASIZE SUB DUP2 ADD SWAP1 PUSH2 0x587 SWAP2 SWAP1 PUSH2 0x2517 JUMP JUMPDEST PUSH2 0xECA JUMP JUMPDEST STOP JUMPDEST PUSH2 0x5A8 PUSH1 0x4 DUP1 CALLDATASIZE SUB DUP2 ADD SWAP1 PUSH2 0x5A3 SWAP2 SWAP1 PUSH2 0x2427 JUMP JUMPDEST PUSH2 0xEFE JUMP JUMPDEST PUSH1 0x40 MLOAD PUSH2 0x5B5 SWAP2 SWAP1 PUSH2 0x3229 JUMP JUMPDEST PUSH1 0x40 MLOAD DUP1 SWAP2 SUB SWAP1 RETURN JUMPDEST PUSH2 0x5C6 PUSH2 0xF85 JUMP JUMPDEST PUSH1 0x40 MLOAD PUSH2 0x5D3 SWAP2 SWAP1 PUSH2 0x2F4C JUMP JUMPDEST PUSH1 0x40 MLOAD DUP1 SWAP2 SUB SWAP1 RETURN JUMPDEST PUSH1 0x0 PUSH32 0x5A05180F00000000000000000000000000000000000000000000000000000000 PUSH28 0xFFFFFFFFFFFFFFFFFFFFFFFFFFFFFFFFFFFFFFFFFFFFFFFFFFFFFFFF NOT AND DUP3 PUSH28 0xFFFFFFFFFFFFFFFFFFFFFFFFFFFFFFFFFFFFFFFFFFFFFFFFFFFFFFFF NOT AND EQ DUP1 PUSH2 0x64F JUMPI POP PUSH2 0x64E DUP3 PUSH2 0xFE7 JUMP JUMPDEST JUMPDEST SWAP1 POP SWAP2 SWAP1 POP JUMP JUMPDEST PUSH1 0x60 PUSH1 0x7 DUP1 SLOAD PUSH2 0x665 SWAP1 PUSH2 0x3452 JUMP JUMPDEST DUP1 PUSH1 0x1F ADD PUSH1 0x20 DUP1 SWAP2 DIV MUL PUSH1 0x20 ADD PUSH1 0x40 MLOAD SWAP1 DUP2 ADD PUSH1 0x40 MSTORE DUP1 SWAP3 SWAP2 SWAP1 DUP2 DUP2 MSTORE PUSH1 0x20 ADD DUP3 DUP1 SLOAD PUSH2 0x691 SWAP1 PUSH2 0x3452 JUMP JUMPDEST DUP1 ISZERO PUSH2 0x6DE JUMPI DUP1 PUSH1 0x1F LT PUSH2 0x6B3 JUMPI PUSH2 0x100 DUP1 DUP4 SLOAD DIV MUL DUP4 MSTORE SWAP2 PUSH1 0x20 ADD SWAP2 PUSH2 0x6DE JUMP JUMPDEST DUP3 ADD SWAP2 SWAP1 PUSH1 0x0 MSTORE PUSH1 0x20 PUSH1 0x0 KECCAK256 SWAP1 JUMPDEST DUP2 SLOAD DUP2 MSTORE SWAP1 PUSH1 0x1 ADD SWAP1 PUSH1 0x20 ADD DUP1 DUP4 GT PUSH2 0x6C1 JUMPI DUP3 SWAP1 SUB PUSH1 0x1F AND DUP3 ADD SWAP2 JUMPDEST POP POP POP POP POP SWAP1 POP SWAP1 JUMP JUMPDEST PUSH1 0x0 PUSH2 0x6FC PUSH2 0x6F5 PUSH2 0x1061 JUMP JUMPDEST DUP5 DUP5 PUSH2 0x1069 JUMP JUMPDEST PUSH1 0x1 SWAP1 POP SWAP3 SWAP2 POP POP JUMP JUMPDEST PUSH1 0x0 PUSH1 0x5 SLOAD SWAP1 POP SWAP1 JUMP JUMPDEST PUSH1 0x0 PUSH2 0x71D DUP5 DUP5 DUP5 PUSH2 0x1234 JUMP JUMPDEST PUSH1 0x0 PUSH1 0x4 PUSH1 0x0 DUP7 PUSH20 0xFFFFFFFFFFFFFFFFFFFFFFFFFFFFFFFFFFFFFFFF AND PUSH20 0xFFFFFFFFFFFFFFFFFFFFFFFFFFFFFFFFFFFFFFFF AND DUP2 MSTORE PUSH1 0x20 ADD SWAP1 DUP2 MSTORE PUSH1 0x20 ADD PUSH1 0x0 KECCAK256 PUSH1 0x0 PUSH2 0x768 PUSH2 0x1061 JUMP JUMPDEST PUSH20 0xFFFFFFFFFFFFFFFFFFFFFFFFFFFFFFFFFFFFFFFF AND PUSH20 0xFFFFFFFFFFFFFFFFFFFFFFFFFFFFFFFFFFFFFFFF AND DUP2 MSTORE PUSH1 0x20 ADD SWAP1 DUP2 MSTORE PUSH1 0x20 ADD PUSH1 0x0 KECCAK256 SLOAD SWAP1 POP DUP3 DUP2 LT ISZERO PUSH2 0x7E8 JUMPI PUSH1 0x40 MLOAD PUSH32 0x8C379A000000000000000000000000000000000000000000000000000000000 DUP2 MSTORE PUSH1 0x4 ADD PUSH2 0x7DF SWAP1 PUSH2 0x30A9 JUMP JUMPDEST PUSH1 0x40 MLOAD DUP1 SWAP2 SUB SWAP1 REVERT JUMPDEST PUSH2 0x7FC DUP6 PUSH2 0x7F4 PUSH2 0x1061 JUMP JUMPDEST DUP6 DUP5 SUB PUSH2 0x1069 JUMP JUMPDEST PUSH1 0x1 SWAP2 POP POP SWAP4 SWAP3 POP POP POP JUMP JUMPDEST PUSH1 0x0 DUP1 PUSH1 0x0 DUP4 DUP2 MSTORE PUSH1 0x20 ADD SWAP1 DUP2 MSTORE PUSH1 0x20 ADD PUSH1 0x0 KECCAK256 PUSH1 0x1 ADD SLOAD SWAP1 POP SWAP2 SWAP1 POP JUMP JUMPDEST PUSH2 0x831 DUP3 DUP3 PUSH2 0x1475 JUMP JUMPDEST PUSH2 0x856 DUP2 PUSH1 0x1 PUSH1 0x0 DUP6 DUP2 MSTORE PUSH1 0x20 ADD SWAP1 DUP2 MSTORE PUSH1 0x20 ADD PUSH1 0x0 KECCAK256 PUSH2 0xFB7 SWAP1 SWAP2 SWAP1 PUSH4 0xFFFFFFFF AND JUMP JUMPDEST POP POP POP JUMP JUMPDEST PUSH1 0x0 PUSH1 0x12 SWAP1 POP SWAP1 JUMP JUMPDEST PUSH2 0x86E DUP3 DUP3 PUSH2 0x149E JUMP JUMPDEST PUSH2 0x893 DUP2 PUSH1 0x1 PUSH1 0x0 DUP6 DUP2 MSTORE PUSH1 0x20 ADD SWAP1 DUP2 MSTORE PUSH1 0x20 ADD PUSH1 0x0 KECCAK256 PUSH2 0x1521 SWAP1 SWAP2 SWAP1 PUSH4 0xFFFFFFFF AND JUMP JUMPDEST POP POP POP JUMP JUMPDEST PUSH1 0x0 PUSH2 0x93A PUSH2 0x8A5 PUSH2 0x1061 JUMP JUMPDEST DUP5 DUP5 PUSH1 0x4 PUSH1 0x0 PUSH2 0x8B3 PUSH2 0x1061 JUMP JUMPDEST PUSH20 0xFFFFFFFFFFFFFFFFFFFFFFFFFFFFFFFFFFFFFFFF AND PUSH20 0xFFFFFFFFFFFFFFFFFFFFFFFFFFFFFFFFFFFFFFFF AND DUP2 MSTORE PUSH1 0x20 ADD SWAP1 DUP2 MSTORE PUSH1 0x20 ADD PUSH1 0x0 KECCAK256 PUSH1 0x0 DUP9 PUSH20 0xFFFFFFFFFFFFFFFFFFFFFFFFFFFFFFFFFFFFFFFF AND PUSH20 0xFFFFFFFFFFFFFFFFFFFFFFFFFFFFFFFFFFFFFFFF AND DUP2 MSTORE PUSH1 0x20 ADD SWAP1 DUP2 MSTORE PUSH1 0x20 ADD PUSH1 0x0 KECCAK256 SLOAD PUSH2 0x935 SWAP2 SWAP1 PUSH2 0x3286 JUMP JUMPDEST PUSH2 0x1069 JUMP JUMPDEST PUSH1 0x1 SWAP1 POP SWAP3 SWAP2 POP POP JUMP JUMPDEST PUSH2 0x975 PUSH32 0x65D7A28E3265B37A6474929F336521B332C1681B933F6CB9F3376673440D862A PUSH2 0x970 PUSH2 0x1061 JUMP JUMPDEST PUSH2 0xBD4 JUMP JUMPDEST PUSH2 0x9B4 JUMPI PUSH1 0x40 MLOAD PUSH32 0x8C379A000000000000000000000000000000000000000000000000000000000 DUP2 MSTORE PUSH1 0x4 ADD PUSH2 0x9AB SWAP1 PUSH2 0x3049 JUMP JUMPDEST PUSH1 0x40 MLOAD DUP1 SWAP2 SUB SWAP1 REVERT JUMPDEST PUSH2 0x9BC PUSH2 0x1551 JUMP JUMPDEST JUMP JUMPDEST PUSH2 0x9EF PUSH32 0x9F2DF0FED2C77648DE5860A4CC508CD0818C85B8B8A1AB4CEEEF8D981C8956A6 PUSH2 0x9EA PUSH2 0x1061 JUMP JUMPDEST PUSH2 0xBD4 JUMP JUMPDEST PUSH2 0xA2E JUMPI PUSH1 0x40 MLOAD PUSH32 0x8C379A000000000000000000000000000000000000000000000000000000000 DUP2 MSTORE PUSH1 0x4 ADD PUSH2 0xA25 SWAP1 PUSH2 0x30C9 JUMP JUMPDEST PUSH1 0x40 MLOAD DUP1 SWAP2 SUB SWAP1 REVERT JUMPDEST PUSH2 0xA38 DUP3 DUP3 PUSH2 0x15F3 JUMP JUMPDEST POP POP JUMP JUMPDEST PUSH2 0xA4D PUSH2 0xA47 PUSH2 0x1061 JUMP JUMPDEST DUP3 PUSH2 0x1798 JUMP JUMPDEST POP JUMP JUMPDEST PUSH1 0x0 PUSH1 0x9 PUSH1 0x0 SWAP1 SLOAD SWAP1 PUSH2 0x100 EXP SWAP1 DIV PUSH1 0xFF AND SWAP1 POP SWAP1 JUMP JUMPDEST PUSH1 0x0 PUSH1 0x2 PUSH1 0x0 DUP4 PUSH20 0xFFFFFFFFFFFFFFFFFFFFFFFFFFFFFFFFFFFFFFFF AND PUSH20 0xFFFFFFFFFFFFFFFFFFFFFFFFFFFFFFFFFFFFFFFF AND DUP2 MSTORE PUSH1 0x20 ADD SWAP1 DUP2 MSTORE PUSH1 0x20 ADD PUSH1 0x0 KECCAK256 SLOAD SWAP1 POP SWAP2 SWAP1 POP JUMP JUMPDEST PUSH1 0x0 PUSH2 0xAC3 DUP4 PUSH2 0xABE PUSH2 0x1061 JUMP JUMPDEST PUSH2 0xEFE JUMP JUMPDEST SWAP1 POP DUP2 DUP2 LT ISZERO PUSH2 0xB08 JUMPI PUSH1 0x40 MLOAD PUSH32 0x8C379A000000000000000000000000000000000000000000000000000000000 DUP2 MSTORE PUSH1 0x4 ADD PUSH2 0xAFF SWAP1 PUSH2 0x30E9 JUMP JUMPDEST PUSH1 0x40 MLOAD DUP1 SWAP2 SUB SWAP1 REVERT JUMPDEST PUSH2 0xB1C DUP4 PUSH2 0xB14 PUSH2 0x1061 JUMP JUMPDEST DUP5 DUP5 SUB PUSH2 0x1069 JUMP JUMPDEST PUSH2 0xB26 DUP4 DUP4 PUSH2 0x1798 JUMP JUMPDEST POP POP POP JUMP JUMPDEST PUSH2 0xB5C PUSH32 0x65D7A28E3265B37A6474929F336521B332C1681B933F6CB9F3376673440D862A PUSH2 0xB57 PUSH2 0x1061 JUMP JUMPDEST PUSH2 0xBD4 JUMP JUMPDEST PUSH2 0xB9B JUMPI PUSH1 0x40 MLOAD PUSH32 0x8C379A000000000000000000000000000000000000000000000000000000000 DUP2 MSTORE PUSH1 0x4 ADD PUSH2 0xB92 SWAP1 PUSH2 0x3189 JUMP JUMPDEST PUSH1 0x40 MLOAD DUP1 SWAP2 SUB SWAP1 REVERT JUMPDEST PUSH2 0xBA3 PUSH2 0x1971 JUMP JUMPDEST JUMP JUMPDEST PUSH1 0x0 PUSH2 0xBCC DUP3 PUSH1 0x1 PUSH1 0x0 DUP7 DUP2 MSTORE PUSH1 0x20 ADD SWAP1 DUP2 MSTORE PUSH1 0x20 ADD PUSH1 0x0 KECCAK256 PUSH2 0x1A14 SWAP1 SWAP2 SWAP1 PUSH4 0xFFFFFFFF AND JUMP JUMPDEST SWAP1 POP SWAP3 SWAP2 POP POP JUMP JUMPDEST PUSH1 0x0 DUP1 PUSH1 0x0 DUP5 DUP2 MSTORE PUSH1 0x20 ADD SWAP1 DUP2 MSTORE PUSH1 0x20 ADD PUSH1 0x0 KECCAK256 PUSH1 0x0 ADD PUSH1 0x0 DUP4 PUSH20 0xFFFFFFFFFFFFFFFFFFFFFFFFFFFFFFFFFFFFFFFF AND PUSH20 0xFFFFFFFFFFFFFFFFFFFFFFFFFFFFFFFFFFFFFFFF AND DUP2 MSTORE PUSH1 0x20 ADD SWAP1 DUP2 MSTORE PUSH1 0x20 ADD PUSH1 0x0 KECCAK256 PUSH1 0x0 SWAP1 SLOAD SWAP1 PUSH2 0x100 EXP SWAP1 DIV PUSH1 0xFF AND SWAP1 POP SWAP3 SWAP2 POP POP JUMP JUMPDEST PUSH1 0x60 PUSH1 0x8 DUP1 SLOAD PUSH2 0xC4D SWAP1 PUSH2 0x3452 JUMP JUMPDEST DUP1 PUSH1 0x1F ADD PUSH1 0x20 DUP1 SWAP2 DIV MUL PUSH1 0x20 ADD PUSH1 0x40 MLOAD SWAP1 DUP2 ADD PUSH1 0x40 MSTORE DUP1 SWAP3 SWAP2 SWAP1 DUP2 DUP2 MSTORE PUSH1 0x20 ADD DUP3 DUP1 SLOAD PUSH2 0xC79 SWAP1 PUSH2 0x3452 JUMP JUMPDEST DUP1 ISZERO PUSH2 0xCC6 JUMPI DUP1 PUSH1 0x1F LT PUSH2 0xC9B JUMPI PUSH2 0x100 DUP1 DUP4 SLOAD DIV MUL DUP4 MSTORE SWAP2 PUSH1 0x20 ADD SWAP2 PUSH2 0xCC6 JUMP JUMPDEST DUP3 ADD SWAP2 SWAP1 PUSH1 0x0 MSTORE PUSH1 0x20 PUSH1 0x0 KECCAK256 SWAP1 JUMPDEST DUP2 SLOAD DUP2 MSTORE SWAP1 PUSH1 0x1 ADD SWAP1 PUSH1 0x20 ADD DUP1 DUP4 GT PUSH2 0xCA9 JUMPI DUP3 SWAP1 SUB PUSH1 0x1F AND DUP3 ADD SWAP2 JUMPDEST POP POP POP POP POP SWAP1 POP SWAP1 JUMP JUMPDEST PUSH2 0xCE4 PUSH1 0x0 DUP1 SHL PUSH2 0xCDF PUSH2 0x1061 JUMP JUMPDEST PUSH2 0xBD4 JUMP JUMPDEST PUSH2 0xD23 JUMPI PUSH1 0x40 MLOAD PUSH32 0x8C379A000000000000000000000000000000000000000000000000000000000 DUP2 MSTORE PUSH1 0x4 ADD PUSH2 0xD1A SWAP1 PUSH2 0x2FC9 JUMP JUMPDEST PUSH1 0x40 MLOAD DUP1 SWAP2 SUB SWAP1 REVERT JUMPDEST PUSH2 0xA8C0 DUP2 GT ISZERO PUSH2 0xD68 JUMPI PUSH1 0x40 MLOAD PUSH32 0x8C379A000000000000000000000000000000000000000000000000000000000 DUP2 MSTORE PUSH1 0x4 ADD PUSH2 0xD5F SWAP1 PUSH2 0x3109 JUMP JUMPDEST PUSH1 0x40 MLOAD DUP1 SWAP2 SUB SWAP1 REVERT JUMPDEST DUP1 PUSH1 0x6 DUP2 SWAP1 SSTORE POP POP JUMP JUMPDEST PUSH1 0x0 DUP1 SHL DUP2 JUMP JUMPDEST PUSH1 0x0 DUP1 PUSH1 0x4 PUSH1 0x0 PUSH2 0xD88 PUSH2 0x1061 JUMP JUMPDEST PUSH20 0xFFFFFFFFFFFFFFFFFFFFFFFFFFFFFFFFFFFFFFFF AND PUSH20 0xFFFFFFFFFFFFFFFFFFFFFFFFFFFFFFFFFFFFFFFF AND DUP2 MSTORE PUSH1 0x20 ADD SWAP1 DUP2 MSTORE PUSH1 0x20 ADD PUSH1 0x0 KECCAK256 PUSH1 0x0 DUP6 PUSH20 0xFFFFFFFFFFFFFFFFFFFFFFFFFFFFFFFFFFFFFFFF AND PUSH20 0xFFFFFFFFFFFFFFFFFFFFFFFFFFFFFFFFFFFFFFFF AND DUP2 MSTORE PUSH1 0x20 ADD SWAP1 DUP2 MSTORE PUSH1 0x20 ADD PUSH1 0x0 KECCAK256 SLOAD SWAP1 POP DUP3 DUP2 LT ISZERO PUSH2 0xE45 JUMPI PUSH1 0x40 MLOAD PUSH32 0x8C379A000000000000000000000000000000000000000000000000000000000 DUP2 MSTORE PUSH1 0x4 ADD PUSH2 0xE3C SWAP1 PUSH2 0x31A9 JUMP JUMPDEST PUSH1 0x40 MLOAD DUP1 SWAP2 SUB SWAP1 REVERT JUMPDEST PUSH2 0xE59 PUSH2 0xE50 PUSH2 0x1061 JUMP JUMPDEST DUP6 DUP6 DUP5 SUB PUSH2 0x1069 JUMP JUMPDEST PUSH1 0x1 SWAP2 POP POP SWAP3 SWAP2 POP POP JUMP JUMPDEST PUSH1 0x0 PUSH2 0xE78 PUSH2 0xE71 PUSH2 0x1061 JUMP JUMPDEST DUP5 DUP5 PUSH2 0x1234 JUMP JUMPDEST PUSH1 0x1 SWAP1 POP SWAP3 SWAP2 POP POP JUMP JUMPDEST PUSH1 0x0 PUSH2 0xE9F PUSH1 0x1 PUSH1 0x0 DUP5 DUP2 MSTORE PUSH1 0x20 ADD SWAP1 DUP2 MSTORE PUSH1 0x20 ADD PUSH1 0x0 KECCAK256 PUSH2 0x1A2E JUMP JUMPDEST SWAP1 POP SWAP2 SWAP1 POP JUMP JUMPDEST PUSH32 0x9F2DF0FED2C77648DE5860A4CC508CD0818C85B8B8A1AB4CEEEF8D981C8956A6 DUP2 JUMP JUMPDEST PUSH2 0xED4 DUP3 DUP3 PUSH2 0x1A43 JUMP JUMPDEST PUSH2 0xEF9 DUP2 PUSH1 0x1 PUSH1 0x0 DUP6 DUP2 MSTORE PUSH1 0x20 ADD SWAP1 DUP2 MSTORE PUSH1 0x20 ADD PUSH1 0x0 KECCAK256 PUSH2 0x1521 SWAP1 SWAP2 SWAP1 PUSH4 0xFFFFFFFF AND JUMP JUMPDEST POP POP POP JUMP JUMPDEST PUSH1 0x0 PUSH1 0x4 PUSH1 0x0 DUP5 PUSH20 0xFFFFFFFFFFFFFFFFFFFFFFFFFFFFFFFFFFFFFFFF AND PUSH20 0xFFFFFFFFFFFFFFFFFFFFFFFFFFFFFFFFFFFFFFFF AND DUP2 MSTORE PUSH1 0x20 ADD SWAP1 DUP2 MSTORE PUSH1 0x20 ADD PUSH1 0x0 KECCAK256 PUSH1 0x0 DUP4 PUSH20 0xFFFFFFFFFFFFFFFFFFFFFFFFFFFFFFFFFFFFFFFF AND PUSH20 0xFFFFFFFFFFFFFFFFFFFFFFFFFFFFFFFFFFFFFFFF AND DUP2 MSTORE PUSH1 0x20 ADD SWAP1 DUP2 MSTORE PUSH1 0x20 ADD PUSH1 0x0 KECCAK256 SLOAD SWAP1 POP SWAP3 SWAP2 POP POP JUMP JUMPDEST PUSH32 0x65D7A28E3265B37A6474929F336521B332C1681B933F6CB9F3376673440D862A DUP2 JUMP JUMPDEST PUSH2 0xFB3 DUP3 DUP3 PUSH2 0x1A6C JUMP JUMPDEST POP POP JUMP JUMPDEST PUSH1 0x0 PUSH2 0xFDF DUP4 PUSH1 0x0 ADD DUP4 PUSH20 0xFFFFFFFFFFFFFFFFFFFFFFFFFFFFFFFFFFFFFFFF AND PUSH1 0x0 SHL PUSH2 0x1B4C JUMP JUMPDEST SWAP1 POP SWAP3 SWAP2 POP POP JUMP JUMPDEST PUSH1 0x0 PUSH32 0x7965DB0B00000000000000000000000000000000000000000000000000000000 PUSH28 0xFFFFFFFFFFFFFFFFFFFFFFFFFFFFFFFFFFFFFFFFFFFFFFFFFFFFFFFF NOT AND DUP3 PUSH28 0xFFFFFFFFFFFFFFFFFFFFFFFFFFFFFFFFFFFFFFFFFFFFFFFFFFFFFFFF NOT AND EQ DUP1 PUSH2 0x105A JUMPI POP PUSH2 0x1059 DUP3 PUSH2 0x1BBC JUMP JUMPDEST JUMPDEST SWAP1 POP SWAP2 SWAP1 POP JUMP JUMPDEST PUSH1 0x0 CALLER SWAP1 POP SWAP1 JUMP JUMPDEST PUSH1 0x0 PUSH20 0xFFFFFFFFFFFFFFFFFFFFFFFFFFFFFFFFFFFFFFFF AND DUP4 PUSH20 0xFFFFFFFFFFFFFFFFFFFFFFFFFFFFFFFFFFFFFFFF AND EQ ISZERO PUSH2 0x10D9 JUMPI PUSH1 0x40 MLOAD PUSH32 0x8C379A000000000000000000000000000000000000000000000000000000000 DUP2 MSTORE PUSH1 0x4 ADD PUSH2 0x10D0 SWAP1 PUSH2 0x3169 JUMP JUMPDEST PUSH1 0x40 MLOAD DUP1 SWAP2 SUB SWAP1 REVERT JUMPDEST PUSH1 0x0 PUSH20 0xFFFFFFFFFFFFFFFFFFFFFFFFFFFFFFFFFFFFFFFF AND DUP3 PUSH20 0xFFFFFFFFFFFFFFFFFFFFFFFFFFFFFFFFFFFFFFFF AND EQ ISZERO PUSH2 0x1149 JUMPI PUSH1 0x40 MLOAD PUSH32 0x8C379A000000000000000000000000000000000000000000000000000000000 DUP2 MSTORE PUSH1 0x4 ADD PUSH2 0x1140 SWAP1 PUSH2 0x3069 JUMP JUMPDEST PUSH1 0x40 MLOAD DUP1 SWAP2 SUB SWAP1 REVERT JUMPDEST DUP1 PUSH1 0x4 PUSH1 0x0 DUP6 PUSH20 0xFFFFFFFFFFFFFFFFFFFFFFFFFFFFFFFFFFFFFFFF AND PUSH20 0xFFFFFFFFFFFFFFFFFFFFFFFFFFFFFFFFFFFFFFFF AND DUP2 MSTORE PUSH1 0x20 ADD SWAP1 DUP2 MSTORE PUSH1 0x20 ADD PUSH1 0x0 KECCAK256 PUSH1 0x0 DUP5 PUSH20 0xFFFFFFFFFFFFFFFFFFFFFFFFFFFFFFFFFFFFFFFF AND PUSH20 0xFFFFFFFFFFFFFFFFFFFFFFFFFFFFFFFFFFFFFFFF AND DUP2 MSTORE PUSH1 0x20 ADD SWAP1 DUP2 MSTORE PUSH1 0x20 ADD PUSH1 0x0 KECCAK256 DUP2 SWAP1 SSTORE POP DUP2 PUSH20 0xFFFFFFFFFFFFFFFFFFFFFFFFFFFFFFFFFFFFFFFF AND DUP4 PUSH20 0xFFFFFFFFFFFFFFFFFFFFFFFFFFFFFFFFFFFFFFFF AND PUSH32 0x8C5BE1E5EBEC7D5BD14F71427D1E84F3DD0314C0F7B2291E5B200AC8C7C3B925 DUP4 PUSH1 0x40 MLOAD PUSH2 0x1227 SWAP2 SWAP1 PUSH2 0x3229 JUMP JUMPDEST PUSH1 0x40 MLOAD DUP1 SWAP2 SUB SWAP1 LOG3 POP POP POP JUMP JUMPDEST PUSH1 0x0 PUSH20 0xFFFFFFFFFFFFFFFFFFFFFFFFFFFFFFFFFFFFFFFF AND DUP4 PUSH20 0xFFFFFFFFFFFFFFFFFFFFFFFFFFFFFFFFFFFFFFFF AND EQ ISZERO PUSH2 0x12A4 JUMPI PUSH1 0x40 MLOAD PUSH32 0x8C379A000000000000000000000000000000000000000000000000000000000 DUP2 MSTORE PUSH1 0x4 ADD PUSH2 0x129B SWAP1 PUSH2 0x3149 JUMP JUMPDEST PUSH1 0x40 MLOAD DUP1 SWAP2 SUB SWAP1 REVERT JUMPDEST PUSH1 0x0 PUSH20 0xFFFFFFFFFFFFFFFFFFFFFFFFFFFFFFFFFFFFFFFF AND DUP3 PUSH20 0xFFFFFFFFFFFFFFFFFFFFFFFFFFFFFFFFFFFFFFFF AND EQ ISZERO PUSH2 0x1314 JUMPI PUSH1 0x40 MLOAD PUSH32 0x8C379A000000000000000000000000000000000000000000000000000000000 DUP2 MSTORE PUSH1 0x4 ADD PUSH2 0x130B SWAP1 PUSH2 0x2FA9 JUMP JUMPDEST PUSH1 0x40 MLOAD DUP1 SWAP2 SUB SWAP1 REVERT JUMPDEST PUSH2 0x131F DUP4 DUP4 DUP4 PUSH2 0x1C26 JUMP JUMPDEST PUSH1 0x0 PUSH1 0x2 PUSH1 0x0 DUP6 PUSH20 0xFFFFFFFFFFFFFFFFFFFFFFFFFFFFFFFFFFFFFFFF AND PUSH20 0xFFFFFFFFFFFFFFFFFFFFFFFFFFFFFFFFFFFFFFFF AND DUP2 MSTORE PUSH1 0x20 ADD SWAP1 DUP2 MSTORE PUSH1 0x20 ADD PUSH1 0x0 KECCAK256 SLOAD SWAP1 POP DUP2 DUP2 SUB PUSH1 0x2 PUSH1 0x0 DUP7 PUSH20 0xFFFFFFFFFFFFFFFFFFFFFFFFFFFFFFFFFFFFFFFF AND PUSH20 0xFFFFFFFFFFFFFFFFFFFFFFFFFFFFFFFFFFFFFFFF AND DUP2 MSTORE PUSH1 0x20 ADD SWAP1 DUP2 MSTORE PUSH1 0x20 ADD PUSH1 0x0 KECCAK256 DUP2 SWAP1 SSTORE POP DUP2 PUSH1 0x2 PUSH1 0x0 DUP6 PUSH20 0xFFFFFFFFFFFFFFFFFFFFFFFFFFFFFFFFFFFFFFFF AND PUSH20 0xFFFFFFFFFFFFFFFFFFFFFFFFFFFFFFFFFFFFFFFF AND DUP2 MSTORE PUSH1 0x20 ADD SWAP1 DUP2 MSTORE PUSH1 0x20 ADD PUSH1 0x0 KECCAK256 PUSH1 0x0 DUP3 DUP3 SLOAD PUSH2 0x13F8 SWAP2 SWAP1 PUSH2 0x3286 JUMP JUMPDEST SWAP3 POP POP DUP2 SWAP1 SSTORE POP DUP3 PUSH20 0xFFFFFFFFFFFFFFFFFFFFFFFFFFFFFFFFFFFFFFFF AND DUP5 PUSH20 0xFFFFFFFFFFFFFFFFFFFFFFFFFFFFFFFFFFFFFFFF AND PUSH32 0xDDF252AD1BE2C89B69C2B068FC378DAA952BA7F163C4A11628F55A4DF523B3EF DUP5 PUSH1 0x40 MLOAD PUSH2 0x145C SWAP2 SWAP1 PUSH2 0x3229 JUMP JUMPDEST PUSH1 0x40 MLOAD DUP1 SWAP2 SUB SWAP1 LOG3 PUSH2 0x146F DUP5 DUP5 DUP5 PUSH2 0x1CC5 JUMP JUMPDEST POP POP POP POP JUMP JUMPDEST PUSH2 0x147E DUP3 PUSH2 0x808 JUMP JUMPDEST PUSH2 0x148F DUP2 PUSH2 0x148A PUSH2 0x1061 JUMP JUMPDEST PUSH2 0x1CCA JUMP JUMPDEST PUSH2 0x1499 DUP4 DUP4 PUSH2 0x1A6C JUMP JUMPDEST POP POP POP JUMP JUMPDEST PUSH2 0x14A6 PUSH2 0x1061 JUMP JUMPDEST PUSH20 0xFFFFFFFFFFFFFFFFFFFFFFFFFFFFFFFFFFFFFFFF AND DUP2 PUSH20 0xFFFFFFFFFFFFFFFFFFFFFFFFFFFFFFFFFFFFFFFF AND EQ PUSH2 0x1513 JUMPI PUSH1 0x40 MLOAD PUSH32 0x8C379A000000000000000000000000000000000000000000000000000000000 DUP2 MSTORE PUSH1 0x4 ADD PUSH2 0x150A SWAP1 PUSH2 0x31C9 JUMP JUMPDEST PUSH1 0x40 MLOAD DUP1 SWAP2 SUB SWAP1 REVERT JUMPDEST PUSH2 0x151D DUP3 DUP3 PUSH2 0x1D67 JUMP JUMPDEST POP POP JUMP JUMPDEST PUSH1 0x0 PUSH2 0x1549 DUP4 PUSH1 0x0 ADD DUP4 PUSH20 0xFFFFFFFFFFFFFFFFFFFFFFFFFFFFFFFFFFFFFFFF AND PUSH1 0x0 SHL PUSH2 0x1E48 JUMP JUMPDEST SWAP1 POP SWAP3 SWAP2 POP POP JUMP JUMPDEST PUSH2 0x1559 PUSH2 0xA50 JUMP JUMPDEST PUSH2 0x1598 JUMPI PUSH1 0x40 MLOAD PUSH32 0x8C379A000000000000000000000000000000000000000000000000000000000 DUP2 MSTORE PUSH1 0x4 ADD PUSH2 0x158F SWAP1 PUSH2 0x2FE9 JUMP JUMPDEST PUSH1 0x40 MLOAD DUP1 SWAP2 SUB SWAP1 REVERT JUMPDEST PUSH1 0x0 PUSH1 0x9 PUSH1 0x0 PUSH2 0x100 EXP DUP2 SLOAD DUP2 PUSH1 0xFF MUL NOT AND SWAP1 DUP4 ISZERO ISZERO MUL OR SWAP1 SSTORE POP PUSH32 0x5DB9EE0A495BF2E6FF9C91A7834C1BA4FDD244A5E8AA4E537BD38AEAE4B073AA PUSH2 0x15DC PUSH2 0x1061 JUMP JUMPDEST PUSH1 0x40 MLOAD PUSH2 0x15E9 SWAP2 SWAP1 PUSH2 0x2F16 JUMP JUMPDEST PUSH1 0x40 MLOAD DUP1 SWAP2 SUB SWAP1 LOG1 JUMP JUMPDEST PUSH1 0x0 PUSH20 0xFFFFFFFFFFFFFFFFFFFFFFFFFFFFFFFFFFFFFFFF AND DUP3 PUSH20 0xFFFFFFFFFFFFFFFFFFFFFFFFFFFFFFFFFFFFFFFF AND EQ ISZERO PUSH2 0x1663 JUMPI PUSH1 0x40 MLOAD PUSH32 0x8C379A000000000000000000000000000000000000000000000000000000000 DUP2 MSTORE PUSH1 0x4 ADD PUSH2 0x165A SWAP1 PUSH2 0x31E9 JUMP JUMPDEST PUSH1 0x40 MLOAD DUP1 SWAP2 SUB SWAP1 REVERT JUMPDEST PUSH2 0x166F PUSH1 0x0 DUP4 DUP4 PUSH2 0x1C26 JUMP JUMPDEST DUP1 PUSH1 0x5 PUSH1 0x0 DUP3 DUP3 SLOAD PUSH2 0x1681 SWAP2 SWAP1 PUSH2 0x3286 JUMP JUMPDEST SWAP3 POP POP DUP2 SWAP1 SSTORE POP DUP1 PUSH1 0x2 PUSH1 0x0 DUP5 PUSH20 0xFFFFFFFFFFFFFFFFFFFFFFFFFFFFFFFFFFFFFFFF AND PUSH20 0xFFFFFFFFFFFFFFFFFFFFFFFFFFFFFFFFFFFFFFFF AND DUP2 MSTORE PUSH1 0x20 ADD SWAP1 DUP2 MSTORE PUSH1 0x20 ADD PUSH1 0x0 KECCAK256 PUSH1 0x0 DUP3 DUP3 SLOAD PUSH2 0x16D7 SWAP2 SWAP1 PUSH2 0x3286 JUMP JUMPDEST SWAP3 POP POP DUP2 SWAP1 SSTORE POP TIMESTAMP PUSH1 0x3 PUSH1 0x0 DUP5 PUSH20 0xFFFFFFFFFFFFFFFFFFFFFFFFFFFFFFFFFFFFFFFF AND PUSH20 0xFFFFFFFFFFFFFFFFFFFFFFFFFFFFFFFFFFFFFFFF AND DUP2 MSTORE PUSH1 0x20 ADD SWAP1 DUP2 MSTORE PUSH1 0x20 ADD PUSH1 0x0 KECCAK256 DUP2 SWAP1 SSTORE POP DUP2 PUSH20 0xFFFFFFFFFFFFFFFFFFFFFFFFFFFFFFFFFFFFFFFF AND PUSH1 0x0 PUSH20 0xFFFFFFFFFFFFFFFFFFFFFFFFFFFFFFFFFFFFFFFF AND PUSH32 0xDDF252AD1BE2C89B69C2B068FC378DAA952BA7F163C4A11628F55A4DF523B3EF DUP4 PUSH1 0x40 MLOAD PUSH2 0x1780 SWAP2 SWAP1 PUSH2 0x3229 JUMP JUMPDEST PUSH1 0x40 MLOAD DUP1 SWAP2 SUB SWAP1 LOG3 PUSH2 0x1794 PUSH1 0x0 DUP4 DUP4 PUSH2 0x1CC5 JUMP JUMPDEST POP POP JUMP JUMPDEST PUSH1 0x0 PUSH20 0xFFFFFFFFFFFFFFFFFFFFFFFFFFFFFFFFFFFFFFFF AND DUP3 PUSH20 0xFFFFFFFFFFFFFFFFFFFFFFFFFFFFFFFFFFFFFFFF AND EQ ISZERO PUSH2 0x1808 JUMPI PUSH1 0x40 MLOAD PUSH32 0x8C379A000000000000000000000000000000000000000000000000000000000 DUP2 MSTORE PUSH1 0x4 ADD PUSH2 0x17FF SWAP1 PUSH2 0x3129 JUMP JUMPDEST PUSH1 0x40 MLOAD DUP1 SWAP2 SUB SWAP1 REVERT JUMPDEST PUSH2 0x1814 DUP3 PUSH1 0x0 DUP4 PUSH2 0x1C26 JUMP JUMPDEST PUSH1 0x0 PUSH1 0x2 PUSH1 0x0 DUP5 PUSH20 0xFFFFFFFFFFFFFFFFFFFFFFFFFFFFFFFFFFFFFFFF AND PUSH20 0xFFFFFFFFFFFFFFFFFFFFFFFFFFFFFFFFFFFFFFFF AND DUP2 MSTORE PUSH1 0x20 ADD SWAP1 DUP2 MSTORE PUSH1 0x20 ADD PUSH1 0x0 KECCAK256 SLOAD SWAP1 POP DUP2 DUP2 LT ISZERO PUSH2 0x189B JUMPI PUSH1 0x40 MLOAD PUSH32 0x8C379A000000000000000000000000000000000000000000000000000000000 DUP2 MSTORE PUSH1 0x4 ADD PUSH2 0x1892 SWAP1 PUSH2 0x3009 JUMP JUMPDEST PUSH1 0x40 MLOAD DUP1 SWAP2 SUB SWAP1 REVERT JUMPDEST DUP2 DUP2 SUB PUSH1 0x2 PUSH1 0x0 DUP6 PUSH20 0xFFFFFFFFFFFFFFFFFFFFFFFFFFFFFFFFFFFFFFFF AND PUSH20 0xFFFFFFFFFFFFFFFFFFFFFFFFFFFFFFFFFFFFFFFF AND DUP2 MSTORE PUSH1 0x20 ADD SWAP1 DUP2 MSTORE PUSH1 0x20 ADD PUSH1 0x0 KECCAK256 DUP2 SWAP1 SSTORE POP DUP2 PUSH1 0x5 PUSH1 0x0 DUP3 DUP3 SLOAD PUSH2 0x18F3 SWAP2 SWAP1 PUSH2 0x3336 JUMP JUMPDEST SWAP3 POP POP DUP2 SWAP1 SSTORE POP PUSH1 0x0 PUSH20 0xFFFFFFFFFFFFFFFFFFFFFFFFFFFFFFFFFFFFFFFF AND DUP4 PUSH20 0xFFFFFFFFFFFFFFFFFFFFFFFFFFFFFFFFFFFFFFFF AND PUSH32 0xDDF252AD1BE2C89B69C2B068FC378DAA952BA7F163C4A11628F55A4DF523B3EF DUP5 PUSH1 0x40 MLOAD PUSH2 0x1958 SWAP2 SWAP1 PUSH2 0x3229 JUMP JUMPDEST PUSH1 0x40 MLOAD DUP1 SWAP2 SUB SWAP1 LOG3 PUSH2 0x196C DUP4 PUSH1 0x0 DUP5 PUSH2 0x1CC5 JUMP JUMPDEST POP POP POP JUMP JUMPDEST PUSH2 0x1979 PUSH2 0xA50 JUMP JUMPDEST ISZERO PUSH2 0x19B9 JUMPI PUSH1 0x40 MLOAD PUSH32 0x8C379A000000000000000000000000000000000000000000000000000000000 DUP2 MSTORE PUSH1 0x4 ADD PUSH2 0x19B0 SWAP1 PUSH2 0x3089 JUMP JUMPDEST PUSH1 0x40 MLOAD DUP1 SWAP2 SUB SWAP1 REVERT JUMPDEST PUSH1 0x1 PUSH1 0x9 PUSH1 0x0 PUSH2 0x100 EXP DUP2 SLOAD DUP2 PUSH1 0xFF MUL NOT AND SWAP1 DUP4 ISZERO ISZERO MUL OR SWAP1 SSTORE POP PUSH32 0x62E78CEA01BEE320CD4E420270B5EA74000D11B0C9F74754EBDBFC544B05A258 PUSH2 0x19FD PUSH2 0x1061 JUMP JUMPDEST PUSH1 0x40 MLOAD PUSH2 0x1A0A SWAP2 SWAP1 PUSH2 0x2F16 JUMP JUMPDEST PUSH1 0x40 MLOAD DUP1 SWAP2 SUB SWAP1 LOG1 JUMP JUMPDEST PUSH1 0x0 PUSH2 0x1A23 DUP4 PUSH1 0x0 ADD DUP4 PUSH2 0x1FCE JUMP JUMPDEST PUSH1 0x0 SHR SWAP1 POP SWAP3 SWAP2 POP POP JUMP JUMPDEST PUSH1 0x0 PUSH2 0x1A3C DUP3 PUSH1 0x0 ADD PUSH2 0x201F JUMP JUMPDEST SWAP1 POP SWAP2 SWAP1 POP JUMP JUMPDEST PUSH2 0x1A4C DUP3 PUSH2 0x808 JUMP JUMPDEST PUSH2 0x1A5D DUP2 PUSH2 0x1A58 PUSH2 0x1061 JUMP JUMPDEST PUSH2 0x1CCA JUMP JUMPDEST PUSH2 0x1A67 DUP4 DUP4 PUSH2 0x1D67 JUMP JUMPDEST POP POP POP JUMP JUMPDEST PUSH2 0x1A76 DUP3 DUP3 PUSH2 0xBD4 JUMP JUMPDEST PUSH2 0x1B48 JUMPI PUSH1 0x1 PUSH1 0x0 DUP1 DUP5 DUP2 MSTORE PUSH1 0x20 ADD SWAP1 DUP2 MSTORE PUSH1 0x20 ADD PUSH1 0x0 KECCAK256 PUSH1 0x0 ADD PUSH1 0x0 DUP4 PUSH20 0xFFFFFFFFFFFFFFFFFFFFFFFFFFFFFFFFFFFFFFFF AND PUSH20 0xFFFFFFFFFFFFFFFFFFFFFFFFFFFFFFFFFFFFFFFF AND DUP2 MSTORE PUSH1 0x20 ADD SWAP1 DUP2 MSTORE PUSH1 0x20 ADD PUSH1 0x0 KECCAK256 PUSH1 0x0 PUSH2 0x100 EXP DUP2 SLOAD DUP2 PUSH1 0xFF MUL NOT AND SWAP1 DUP4 ISZERO ISZERO MUL OR SWAP1 SSTORE POP PUSH2 0x1AED PUSH2 0x1061 JUMP JUMPDEST PUSH20 0xFFFFFFFFFFFFFFFFFFFFFFFFFFFFFFFFFFFFFFFF AND DUP2 PUSH20 0xFFFFFFFFFFFFFFFFFFFFFFFFFFFFFFFFFFFFFFFF AND DUP4 PUSH32 0x2F8788117E7EFF1D82E926EC794901D17C78024A50270940304540A733656F0D PUSH1 0x40 MLOAD PUSH1 0x40 MLOAD DUP1 SWAP2 SUB SWAP1 LOG4 JUMPDEST POP POP JUMP JUMPDEST PUSH1 0x0 PUSH2 0x1B58 DUP4 DUP4 PUSH2 0x2030 JUMP JUMPDEST PUSH2 0x1BB1 JUMPI DUP3 PUSH1 0x0 ADD DUP3 SWAP1 DUP1 PUSH1 0x1 DUP2 SLOAD ADD DUP1 DUP3 SSTORE DUP1 SWAP2 POP POP PUSH1 0x1 SWAP1 SUB SWAP1 PUSH1 0x0 MSTORE PUSH1 0x20 PUSH1 0x0 KECCAK256 ADD PUSH1 0x0 SWAP1 SWAP2 SWAP1 SWAP2 SWAP1 SWAP2 POP SSTORE DUP3 PUSH1 0x0 ADD DUP1 SLOAD SWAP1 POP DUP4 PUSH1 0x1 ADD PUSH1 0x0 DUP5 DUP2 MSTORE PUSH1 0x20 ADD SWAP1 DUP2 MSTORE PUSH1 0x20 ADD PUSH1 0x0 KECCAK256 DUP2 SWAP1 SSTORE POP PUSH1 0x1 SWAP1 POP PUSH2 0x1BB6 JUMP JUMPDEST PUSH1 0x0 SWAP1 POP JUMPDEST SWAP3 SWAP2 POP POP JUMP JUMPDEST PUSH1 0x0 PUSH32 0x1FFC9A700000000000000000000000000000000000000000000000000000000 PUSH28 0xFFFFFFFFFFFFFFFFFFFFFFFFFFFFFFFFFFFFFFFFFFFFFFFFFFFFFFFF NOT AND DUP3 PUSH28 0xFFFFFFFFFFFFFFFFFFFFFFFFFFFFFFFFFFFFFFFFFFFFFFFFFFFFFFFF NOT AND EQ SWAP1 POP SWAP2 SWAP1 POP JUMP JUMPDEST PUSH1 0x6 SLOAD PUSH1 0x3 PUSH1 0x0 DUP6 PUSH20 0xFFFFFFFFFFFFFFFFFFFFFFFFFFFFFFFFFFFFFFFF AND PUSH20 0xFFFFFFFFFFFFFFFFFFFFFFFFFFFFFFFFFFFFFFFF AND DUP2 MSTORE PUSH1 0x20 ADD SWAP1 DUP2 MSTORE PUSH1 0x20 ADD PUSH1 0x0 KECCAK256 SLOAD TIMESTAMP PUSH2 0x1C74 SWAP2 SWAP1 PUSH2 0x3336 JUMP JUMPDEST LT ISZERO PUSH2 0x1CB5 JUMPI PUSH1 0x40 MLOAD PUSH32 0x8C379A000000000000000000000000000000000000000000000000000000000 DUP2 MSTORE PUSH1 0x4 ADD PUSH2 0x1CAC SWAP1 PUSH2 0x3029 JUMP JUMPDEST PUSH1 0x40 MLOAD DUP1 SWAP2 SUB SWAP1 REVERT JUMPDEST PUSH2 0x1CC0 DUP4 DUP4 DUP4 PUSH2 0x2053 JUMP JUMPDEST POP POP POP JUMP JUMPDEST POP POP POP JUMP JUMPDEST PUSH2 0x1CD4 DUP3 DUP3 PUSH2 0xBD4 JUMP JUMPDEST PUSH2 0x1D63 JUMPI PUSH2 0x1CF9 DUP2 PUSH20 0xFFFFFFFFFFFFFFFFFFFFFFFFFFFFFFFFFFFFFFFF AND PUSH1 0x14 PUSH2 0x20AB JUMP JUMPDEST PUSH2 0x1D07 DUP4 PUSH1 0x0 SHR PUSH1 0x20 PUSH2 0x20AB JUMP JUMPDEST PUSH1 0x40 MLOAD PUSH1 0x20 ADD PUSH2 0x1D18 SWAP3 SWAP2 SWAP1 PUSH2 0x2EDC JUMP JUMPDEST PUSH1 0x40 MLOAD PUSH1 0x20 DUP2 DUP4 SUB SUB DUP2 MSTORE SWAP1 PUSH1 0x40 MSTORE PUSH1 0x40 MLOAD PUSH32 0x8C379A000000000000000000000000000000000000000000000000000000000 DUP2 MSTORE PUSH1 0x4 ADD PUSH2 0x1D5A SWAP2 SWAP1 PUSH2 0x2F67 JUMP JUMPDEST PUSH1 0x40 MLOAD DUP1 SWAP2 SUB SWAP1 REVERT JUMPDEST POP POP JUMP JUMPDEST PUSH2 0x1D71 DUP3 DUP3 PUSH2 0xBD4 JUMP JUMPDEST ISZERO PUSH2 0x1E44 JUMPI PUSH1 0x0 DUP1 PUSH1 0x0 DUP5 DUP2 MSTORE PUSH1 0x20 ADD SWAP1 DUP2 MSTORE PUSH1 0x20 ADD PUSH1 0x0 KECCAK256 PUSH1 0x0 ADD PUSH1 0x0 DUP4 PUSH20 0xFFFFFFFFFFFFFFFFFFFFFFFFFFFFFFFFFFFFFFFF AND PUSH20 0xFFFFFFFFFFFFFFFFFFFFFFFFFFFFFFFFFFFFFFFF AND DUP2 MSTORE PUSH1 0x20 ADD SWAP1 DUP2 MSTORE PUSH1 0x20 ADD PUSH1 0x0 KECCAK256 PUSH1 0x0 PUSH2 0x100 EXP DUP2 SLOAD DUP2 PUSH1 0xFF MUL NOT AND SWAP1 DUP4 ISZERO ISZERO MUL OR SWAP1 SSTORE POP PUSH2 0x1DE9 PUSH2 0x1061 JUMP JUMPDEST PUSH20 0xFFFFFFFFFFFFFFFFFFFFFFFFFFFFFFFFFFFFFFFF AND DUP2 PUSH20 0xFFFFFFFFFFFFFFFFFFFFFFFFFFFFFFFFFFFFFFFF AND DUP4 PUSH32 0xF6391F5C32D9C69D2A47EA670B442974B53935D1EDC7FD64EB21E047A839171B PUSH1 0x40 MLOAD PUSH1 0x40 MLOAD DUP1 SWAP2 SUB SWAP1 LOG4 JUMPDEST POP POP JUMP JUMPDEST PUSH1 0x0 DUP1 DUP4 PUSH1 0x1 ADD PUSH1 0x0 DUP5 DUP2 MSTORE PUSH1 0x20 ADD SWAP1 DUP2 MSTORE PUSH1 0x20 ADD PUSH1 0x0 KECCAK256 SLOAD SWAP1 POP PUSH1 0x0 DUP2 EQ PUSH2 0x1FC2 JUMPI PUSH1 0x0 PUSH1 0x1 DUP3 PUSH2 0x1E7A SWAP2 SWAP1 PUSH2 0x3336 JUMP JUMPDEST SWAP1 POP PUSH1 0x0 PUSH1 0x1 DUP7 PUSH1 0x0 ADD DUP1 SLOAD SWAP1 POP PUSH2 0x1E92 SWAP2 SWAP1 PUSH2 0x3336 JUMP JUMPDEST SWAP1 POP DUP2 DUP2 EQ PUSH2 0x1F4D JUMPI PUSH1 0x0 DUP7 PUSH1 0x0 ADD DUP3 DUP2 SLOAD DUP2 LT PUSH2 0x1ED9 JUMPI PUSH32 0x4E487B7100000000000000000000000000000000000000000000000000000000 PUSH1 0x0 MSTORE PUSH1 0x32 PUSH1 0x4 MSTORE PUSH1 0x24 PUSH1 0x0 REVERT JUMPDEST SWAP1 PUSH1 0x0 MSTORE PUSH1 0x20 PUSH1 0x0 KECCAK256 ADD SLOAD SWAP1 POP DUP1 DUP8 PUSH1 0x0 ADD DUP5 DUP2 SLOAD DUP2 LT PUSH2 0x1F23 JUMPI PUSH32 0x4E487B7100000000000000000000000000000000000000000000000000000000 PUSH1 0x0 MSTORE PUSH1 0x32 PUSH1 0x4 MSTORE PUSH1 0x24 PUSH1 0x0 REVERT JUMPDEST SWAP1 PUSH1 0x0 MSTORE PUSH1 0x20 PUSH1 0x0 KECCAK256 ADD DUP2 SWAP1 SSTORE POP DUP4 DUP8 PUSH1 0x1 ADD PUSH1 0x0 DUP4 DUP2 MSTORE PUSH1 0x20 ADD SWAP1 DUP2 MSTORE PUSH1 0x20 ADD PUSH1 0x0 KECCAK256 DUP2 SWAP1 SSTORE POP POP JUMPDEST DUP6 PUSH1 0x0 ADD DUP1 SLOAD DUP1 PUSH2 0x1F87 JUMPI PUSH32 0x4E487B7100000000000000000000000000000000000000000000000000000000 PUSH1 0x0 MSTORE PUSH1 0x31 PUSH1 0x4 MSTORE PUSH1 0x24 PUSH1 0x0 REVERT JUMPDEST PUSH1 0x1 SWAP1 SUB DUP2 DUP2 SWAP1 PUSH1 0x0 MSTORE PUSH1 0x20 PUSH1 0x0 KECCAK256 ADD PUSH1 0x0 SWAP1 SSTORE SWAP1 SSTORE DUP6 PUSH1 0x1 ADD PUSH1 0x0 DUP7 DUP2 MSTORE PUSH1 0x20 ADD SWAP1 DUP2 MSTORE PUSH1 0x20 ADD PUSH1 0x0 KECCAK256 PUSH1 0x0 SWAP1 SSTORE PUSH1 0x1 SWAP4 POP POP POP POP PUSH2 0x1FC8 JUMP JUMPDEST PUSH1 0x0 SWAP2 POP POP JUMPDEST SWAP3 SWAP2 POP POP JUMP JUMPDEST PUSH1 0x0 DUP3 PUSH1 0x0 ADD DUP3 DUP2 SLOAD DUP2 LT PUSH2 0x200C JUMPI PUSH32 0x4E487B7100000000000000000000000000000000000000000000000000000000 PUSH1 0x0 MSTORE PUSH1 0x32 PUSH1 0x4 MSTORE PUSH1 0x24 PUSH1 0x0 REVERT JUMPDEST SWAP1 PUSH1 0x0 MSTORE PUSH1 0x20 PUSH1 0x0 KECCAK256 ADD SLOAD SWAP1 POP SWAP3 SWAP2 POP POP JUMP JUMPDEST PUSH1 0x0 DUP2 PUSH1 0x0 ADD DUP1 SLOAD SWAP1 POP SWAP1 POP SWAP2 SWAP1 POP JUMP JUMPDEST PUSH1 0x0 DUP1 DUP4 PUSH1 0x1 ADD PUSH1 0x0 DUP5 DUP2 MSTORE PUSH1 0x20 ADD SWAP1 DUP2 MSTORE PUSH1 0x20 ADD PUSH1 0x0 KECCAK256 SLOAD EQ ISZERO SWAP1 POP SWAP3 SWAP2 POP POP JUMP JUMPDEST PUSH2 0x205E DUP4 DUP4 DUP4 PUSH2 0x23A5 JUMP JUMPDEST PUSH2 0x2066 PUSH2 0xA50 JUMP JUMPDEST ISZERO PUSH2 0x20A6 JUMPI PUSH1 0x40 MLOAD PUSH32 0x8C379A000000000000000000000000000000000000000000000000000000000 DUP2 MSTORE PUSH1 0x4 ADD PUSH2 0x209D SWAP1 PUSH2 0x3209 JUMP JUMPDEST PUSH1 0x40 MLOAD DUP1 SWAP2 SUB SWAP1 REVERT JUMPDEST POP POP POP JUMP JUMPDEST PUSH1 0x60 PUSH1 0x0 PUSH1 0x2 DUP4 PUSH1 0x2 PUSH2 0x20BE SWAP2 SWAP1 PUSH2 0x32DC JUMP JUMPDEST PUSH2 0x20C8 SWAP2 SWAP1 PUSH2 0x3286 JUMP JUMPDEST PUSH8 0xFFFFFFFFFFFFFFFF DUP2 GT ISZERO PUSH2 0x2107 JUMPI PUSH32 0x4E487B7100000000000000000000000000000000000000000000000000000000 PUSH1 0x0 MSTORE PUSH1 0x41 PUSH1 0x4 MSTORE PUSH1 0x24 PUSH1 0x0 REVERT JUMPDEST PUSH1 0x40 MLOAD SWAP1 DUP1 DUP3 MSTORE DUP1 PUSH1 0x1F ADD PUSH1 0x1F NOT AND PUSH1 0x20 ADD DUP3 ADD PUSH1 0x40 MSTORE DUP1 ISZERO PUSH2 0x2139 JUMPI DUP2 PUSH1 0x20 ADD PUSH1 0x1 DUP3 MUL DUP1 CALLDATASIZE DUP4 CALLDATACOPY DUP1 DUP3 ADD SWAP2 POP POP SWAP1 POP JUMPDEST POP SWAP1 POP PUSH32 0x3000000000000000000000000000000000000000000000000000000000000000 DUP2 PUSH1 0x0 DUP2 MLOAD DUP2 LT PUSH2 0x2197 JUMPI PUSH32 0x4E487B7100000000000000000000000000000000000000000000000000000000 PUSH1 0x0 MSTORE PUSH1 0x32 PUSH1 0x4 MSTORE PUSH1 0x24 PUSH1 0x0 REVERT JUMPDEST PUSH1 0x20 ADD ADD SWAP1 PUSH31 0xFFFFFFFFFFFFFFFFFFFFFFFFFFFFFFFFFFFFFFFFFFFFFFFFFFFFFFFFFFFFFF NOT AND SWAP1 DUP2 PUSH1 0x0 BYTE SWAP1 MSTORE8 POP PUSH32 0x7800000000000000000000000000000000000000000000000000000000000000 DUP2 PUSH1 0x1 DUP2 MLOAD DUP2 LT PUSH2 0x2221 JUMPI PUSH32 0x4E487B7100000000000000000000000000000000000000000000000000000000 PUSH1 0x0 MSTORE PUSH1 0x32 PUSH1 0x4 MSTORE PUSH1 0x24 PUSH1 0x0 REVERT JUMPDEST PUSH1 0x20 ADD ADD SWAP1 PUSH31 0xFFFFFFFFFFFFFFFFFFFFFFFFFFFFFFFFFFFFFFFFFFFFFFFFFFFFFFFFFFFFFF NOT AND SWAP1 DUP2 PUSH1 0x0 BYTE SWAP1 MSTORE8 POP PUSH1 0x0 PUSH1 0x1 DUP5 PUSH1 0x2 PUSH2 0x2261 SWAP2 SWAP1 PUSH2 0x32DC JUMP JUMPDEST PUSH2 0x226B SWAP2 SWAP1 PUSH2 0x3286 JUMP JUMPDEST SWAP1 POP JUMPDEST PUSH1 0x1 DUP2 GT ISZERO PUSH2 0x2357 JUMPI PUSH32 0x3031323334353637383961626364656600000000000000000000000000000000 PUSH1 0xF DUP7 AND PUSH1 0x10 DUP2 LT PUSH2 0x22D3 JUMPI PUSH32 0x4E487B7100000000000000000000000000000000000000000000000000000000 PUSH1 0x0 MSTORE PUSH1 0x32 PUSH1 0x4 MSTORE PUSH1 0x24 PUSH1 0x0 REVERT JUMPDEST BYTE PUSH1 0xF8 SHL DUP3 DUP3 DUP2 MLOAD DUP2 LT PUSH2 0x2310 JUMPI PUSH32 0x4E487B7100000000000000000000000000000000000000000000000000000000 PUSH1 0x0 MSTORE PUSH1 0x32 PUSH1 0x4 MSTORE PUSH1 0x24 PUSH1 0x0 REVERT JUMPDEST PUSH1 0x20 ADD ADD SWAP1 PUSH31 0xFFFFFFFFFFFFFFFFFFFFFFFFFFFFFFFFFFFFFFFFFFFFFFFFFFFFFFFFFFFFFF NOT AND SWAP1 DUP2 PUSH1 0x0 BYTE SWAP1 MSTORE8 POP PUSH1 0x4 DUP6 SWAP1 SHR SWAP5 POP DUP1 PUSH2 0x2350 SWAP1 PUSH2 0x3428 JUMP JUMPDEST SWAP1 POP PUSH2 0x226E JUMP JUMPDEST POP PUSH1 0x0 DUP5 EQ PUSH2 0x239B JUMPI PUSH1 0x40 MLOAD PUSH32 0x8C379A000000000000000000000000000000000000000000000000000000000 DUP2 MSTORE PUSH1 0x4 ADD PUSH2 0x2392 SWAP1 PUSH2 0x2F89 JUMP JUMPDEST PUSH1 0x40 MLOAD DUP1 SWAP2 SUB SWAP1 REVERT JUMPDEST DUP1 SWAP2 POP POP SWAP3 SWAP2 POP POP JUMP JUMPDEST POP POP POP JUMP JUMPDEST PUSH1 0x0 DUP2 CALLDATALOAD SWAP1 POP PUSH2 0x23B9 DUP2 PUSH2 0x34F3 JUMP JUMPDEST SWAP3 SWAP2 POP POP JUMP JUMPDEST PUSH1 0x0 DUP2 CALLDATALOAD SWAP1 POP PUSH2 0x23CE DUP2 PUSH2 0x350A JUMP JUMPDEST SWAP3 SWAP2 POP POP JUMP JUMPDEST PUSH1 0x0 DUP2 CALLDATALOAD SWAP1 POP PUSH2 0x23E3 DUP2 PUSH2 0x3521 JUMP JUMPDEST SWAP3 SWAP2 POP POP JUMP JUMPDEST PUSH1 0x0 DUP2 CALLDATALOAD SWAP1 POP PUSH2 0x23F8 DUP2 PUSH2 0x3538 JUMP JUMPDEST SWAP3 SWAP2 POP POP JUMP JUMPDEST PUSH1 0x0 PUSH1 0x20 DUP3 DUP5 SUB SLT ISZERO PUSH2 0x2410 JUMPI PUSH1 0x0 DUP1 REVERT JUMPDEST PUSH1 0x0 PUSH2 0x241E DUP5 DUP3 DUP6 ADD PUSH2 0x23AA JUMP JUMPDEST SWAP2 POP POP SWAP3 SWAP2 POP POP JUMP JUMPDEST PUSH1 0x0 DUP1 PUSH1 0x40 DUP4 DUP6 SUB SLT ISZERO PUSH2 0x243A JUMPI PUSH1 0x0 DUP1 REVERT JUMPDEST PUSH1 0x0 PUSH2 0x2448 DUP6 DUP3 DUP7 ADD PUSH2 0x23AA JUMP JUMPDEST SWAP3 POP POP PUSH1 0x20 PUSH2 0x2459 DUP6 DUP3 DUP7 ADD PUSH2 0x23AA JUMP JUMPDEST SWAP2 POP POP SWAP3 POP SWAP3 SWAP1 POP JUMP JUMPDEST PUSH1 0x0 DUP1 PUSH1 0x0 PUSH1 0x60 DUP5 DUP7 SUB SLT ISZERO PUSH2 0x2478 JUMPI PUSH1 0x0 DUP1 REVERT JUMPDEST PUSH1 0x0 PUSH2 0x2486 DUP7 DUP3 DUP8 ADD PUSH2 0x23AA JUMP JUMPDEST SWAP4 POP POP PUSH1 0x20 PUSH2 0x2497 DUP7 DUP3 DUP8 ADD PUSH2 0x23AA JUMP JUMPDEST SWAP3 POP POP PUSH1 0x40 PUSH2 0x24A8 DUP7 DUP3 DUP8 ADD PUSH2 0x23E9 JUMP JUMPDEST SWAP2 POP POP SWAP3 POP SWAP3 POP SWAP3 JUMP JUMPDEST PUSH1 0x0 DUP1 PUSH1 0x40 DUP4 DUP6 SUB SLT ISZERO PUSH2 0x24C5 JUMPI PUSH1 0x0 DUP1 REVERT JUMPDEST PUSH1 0x0 PUSH2 0x24D3 DUP6 DUP3 DUP7 ADD PUSH2 0x23AA JUMP JUMPDEST SWAP3 POP POP PUSH1 0x20 PUSH2 0x24E4 DUP6 DUP3 DUP7 ADD PUSH2 0x23E9 JUMP JUMPDEST SWAP2 POP POP SWAP3 POP SWAP3 SWAP1 POP JUMP JUMPDEST PUSH1 0x0 PUSH1 0x20 DUP3 DUP5 SUB SLT ISZERO PUSH2 0x2500 JUMPI PUSH1 0x0 DUP1 REVERT JUMPDEST PUSH1 0x0 PUSH2 0x250E DUP5 DUP3 DUP6 ADD PUSH2 0x23BF JUMP JUMPDEST SWAP2 POP POP SWAP3 SWAP2 POP POP JUMP JUMPDEST PUSH1 0x0 DUP1 PUSH1 0x40 DUP4 DUP6 SUB SLT ISZERO PUSH2 0x252A JUMPI PUSH1 0x0 DUP1 REVERT JUMPDEST PUSH1 0x0 PUSH2 0x2538 DUP6 DUP3 DUP7 ADD PUSH2 0x23BF JUMP JUMPDEST SWAP3 POP POP PUSH1 0x20 PUSH2 0x2549 DUP6 DUP3 DUP7 ADD PUSH2 0x23AA JUMP JUMPDEST SWAP2 POP POP SWAP3 POP SWAP3 SWAP1 POP JUMP JUMPDEST PUSH1 0x0 DUP1 PUSH1 0x40 DUP4 DUP6 SUB SLT ISZERO PUSH2 0x2566 JUMPI PUSH1 0x0 DUP1 REVERT JUMPDEST PUSH1 0x0 PUSH2 0x2574 DUP6 DUP3 DUP7 ADD PUSH2 0x23BF JUMP JUMPDEST SWAP3 POP POP PUSH1 0x20 PUSH2 0x2585 DUP6 DUP3 DUP7 ADD PUSH2 0x23E9 JUMP JUMPDEST SWAP2 POP POP SWAP3 POP SWAP3 SWAP1 POP JUMP JUMPDEST PUSH1 0x0 PUSH1 0x20 DUP3 DUP5 SUB SLT ISZERO PUSH2 0x25A1 JUMPI PUSH1 0x0 DUP1 REVERT JUMPDEST PUSH1 0x0 PUSH2 0x25AF DUP5 DUP3 DUP6 ADD PUSH2 0x23D4 JUMP JUMPDEST SWAP2 POP POP SWAP3 SWAP2 POP POP JUMP JUMPDEST PUSH1 0x0 PUSH1 0x20 DUP3 DUP5 SUB SLT ISZERO PUSH2 0x25CA JUMPI PUSH1 0x0 DUP1 REVERT JUMPDEST PUSH1 0x0 PUSH2 0x25D8 DUP5 DUP3 DUP6 ADD PUSH2 0x23E9 JUMP JUMPDEST SWAP2 POP POP SWAP3 SWAP2 POP POP JUMP JUMPDEST PUSH2 0x25EA DUP2 PUSH2 0x336A JUMP JUMPDEST DUP3 MSTORE POP POP JUMP JUMPDEST PUSH2 0x25F9 DUP2 PUSH2 0x337C JUMP JUMPDEST DUP3 MSTORE POP POP JUMP JUMPDEST PUSH2 0x2608 DUP2 PUSH2 0x3388 JUMP JUMPDEST DUP3 MSTORE POP POP JUMP JUMPDEST PUSH1 0x0 PUSH2 0x2619 DUP3 PUSH2 0x325F JUMP JUMPDEST PUSH2 0x2623 DUP2 DUP6 PUSH2 0x326A JUMP JUMPDEST SWAP4 POP PUSH2 0x2633 DUP2 DUP6 PUSH1 0x20 DUP7 ADD PUSH2 0x33F5 JUMP JUMPDEST PUSH2 0x263C DUP2 PUSH2 0x34E2 JUMP JUMPDEST DUP5 ADD SWAP2 POP POP SWAP3 SWAP2 POP POP JUMP JUMPDEST PUSH1 0x0 PUSH2 0x2652 DUP3 PUSH2 0x325F JUMP JUMPDEST PUSH2 0x265C DUP2 DUP6 PUSH2 0x327B JUMP JUMPDEST SWAP4 POP PUSH2 0x266C DUP2 DUP6 PUSH1 0x20 DUP7 ADD PUSH2 0x33F5 JUMP JUMPDEST DUP1 DUP5 ADD SWAP2 POP POP SWAP3 SWAP2 POP POP JUMP JUMPDEST PUSH1 0x0 PUSH2 0x2685 PUSH1 0x20 DUP4 PUSH2 0x326A JUMP JUMPDEST SWAP2 POP PUSH32 0x537472696E67733A20686578206C656E67746820696E73756666696369656E74 PUSH1 0x0 DUP4 ADD MSTORE PUSH1 0x20 DUP3 ADD SWAP1 POP SWAP2 SWAP1 POP JUMP JUMPDEST PUSH1 0x0 PUSH2 0x26C5 PUSH1 0x23 DUP4 PUSH2 0x326A JUMP JUMPDEST SWAP2 POP PUSH32 0x45524332303A207472616E7366657220746F20746865207A65726F2061646472 PUSH1 0x0 DUP4 ADD MSTORE PUSH32 0x6573730000000000000000000000000000000000000000000000000000000000 PUSH1 0x20 DUP4 ADD MSTORE PUSH1 0x40 DUP3 ADD SWAP1 POP SWAP2 SWAP1 POP JUMP JUMPDEST PUSH1 0x0 PUSH2 0x272B PUSH1 0x37 DUP4 PUSH2 0x326A JUMP JUMPDEST SWAP2 POP PUSH32 0x45524332305072657365744D696E7465725061757365723A206D757374206861 PUSH1 0x0 DUP4 ADD MSTORE PUSH32 0x76652061646D696E20726F6C6520746F20736574204344000000000000000000 PUSH1 0x20 DUP4 ADD MSTORE PUSH1 0x40 DUP3 ADD SWAP1 POP SWAP2 SWAP1 POP JUMP JUMPDEST PUSH1 0x0 PUSH2 0x2791 PUSH1 0x14 DUP4 PUSH2 0x326A JUMP JUMPDEST SWAP2 POP PUSH32 0x5061757361626C653A206E6F7420706175736564000000000000000000000000 PUSH1 0x0 DUP4 ADD MSTORE PUSH1 0x20 DUP3 ADD SWAP1 POP SWAP2 SWAP1 POP JUMP JUMPDEST PUSH1 0x0 PUSH2 0x27D1 PUSH1 0x22 DUP4 PUSH2 0x326A JUMP JUMPDEST SWAP2 POP PUSH32 0x45524332303A206275726E20616D6F756E7420657863656564732062616C616E PUSH1 0x0 DUP4 ADD MSTORE PUSH32 0x6365000000000000000000000000000000000000000000000000000000000000 PUSH1 0x20 DUP4 ADD MSTORE PUSH1 0x40 DUP3 ADD SWAP1 POP SWAP2 SWAP1 POP JUMP JUMPDEST PUSH1 0x0 PUSH2 0x2837 PUSH1 0x55 DUP4 PUSH2 0x326A JUMP JUMPDEST SWAP2 POP PUSH32 0x596F75206861766520726563656E746C79206265656E206D696E74656420746F PUSH1 0x0 DUP4 ADD MSTORE PUSH32 0x6B656E732C20706C65617365207761697420666F7220746865207472616E7366 PUSH1 0x20 DUP4 ADD MSTORE PUSH32 0x657220636F6F6C646F776E20746F206578706972650000000000000000000000 PUSH1 0x40 DUP4 ADD MSTORE PUSH1 0x60 DUP3 ADD SWAP1 POP SWAP2 SWAP1 POP JUMP JUMPDEST PUSH1 0x0 PUSH2 0x28C3 PUSH1 0x39 DUP4 PUSH2 0x326A JUMP JUMPDEST SWAP2 POP PUSH32 0x45524332305072657365744D696E7465725061757365723A206D757374206861 PUSH1 0x0 DUP4 ADD MSTORE PUSH32 0x76652070617573657220726F6C6520746F20756E706175736500000000000000 PUSH1 0x20 DUP4 ADD MSTORE PUSH1 0x40 DUP3 ADD SWAP1 POP SWAP2 SWAP1 POP JUMP JUMPDEST PUSH1 0x0 PUSH2 0x2929 PUSH1 0x22 DUP4 PUSH2 0x326A JUMP JUMPDEST SWAP2 POP PUSH32 0x45524332303A20617070726F766520746F20746865207A65726F206164647265 PUSH1 0x0 DUP4 ADD MSTORE PUSH32 0x7373000000000000000000000000000000000000000000000000000000000000 PUSH1 0x20 DUP4 ADD MSTORE PUSH1 0x40 DUP3 ADD SWAP1 POP SWAP2 SWAP1 POP JUMP JUMPDEST PUSH1 0x0 PUSH2 0x298F PUSH1 0x10 DUP4 PUSH2 0x326A JUMP JUMPDEST SWAP2 POP PUSH32 0x5061757361626C653A2070617573656400000000000000000000000000000000 PUSH1 0x0 DUP4 ADD MSTORE PUSH1 0x20 DUP3 ADD SWAP1 POP SWAP2 SWAP1 POP JUMP JUMPDEST PUSH1 0x0 PUSH2 0x29CF PUSH1 0x28 DUP4 PUSH2 0x326A JUMP JUMPDEST SWAP2 POP PUSH32 0x45524332303A207472616E7366657220616D6F756E7420657863656564732061 PUSH1 0x0 DUP4 ADD MSTORE PUSH32 0x6C6C6F77616E6365000000000000000000000000000000000000000000000000 PUSH1 0x20 DUP4 ADD MSTORE PUSH1 0x40 DUP3 ADD SWAP1 POP SWAP2 SWAP1 POP JUMP JUMPDEST PUSH1 0x0 PUSH2 0x2A35 PUSH1 0x36 DUP4 PUSH2 0x326A JUMP JUMPDEST SWAP2 POP PUSH32 0x45524332305072657365744D696E7465725061757365723A206D757374206861 PUSH1 0x0 DUP4 ADD MSTORE PUSH32 0x7665206D696E74657220726F6C6520746F206D696E7400000000000000000000 PUSH1 0x20 DUP4 ADD MSTORE PUSH1 0x40 DUP3 ADD SWAP1 POP SWAP2 SWAP1 POP JUMP JUMPDEST PUSH1 0x0 PUSH2 0x2A9B PUSH1 0x24 DUP4 PUSH2 0x326A JUMP JUMPDEST SWAP2 POP PUSH32 0x45524332303A206275726E20616D6F756E74206578636565647320616C6C6F77 PUSH1 0x0 DUP4 ADD MSTORE PUSH32 0x616E636500000000000000000000000000000000000000000000000000000000 PUSH1 0x20 DUP4 ADD MSTORE PUSH1 0x40 DUP3 ADD SWAP1 POP SWAP2 SWAP1 POP JUMP JUMPDEST PUSH1 0x0 PUSH2 0x2B01 PUSH1 0x13 DUP4 PUSH2 0x326A JUMP JUMPDEST SWAP2 POP PUSH32 0x54696D652065786365656473206D617820434400000000000000000000000000 PUSH1 0x0 DUP4 ADD MSTORE PUSH1 0x20 DUP3 ADD SWAP1 POP SWAP2 SWAP1 POP JUMP JUMPDEST PUSH1 0x0 PUSH2 0x2B41 PUSH1 0x21 DUP4 PUSH2 0x326A JUMP JUMPDEST SWAP2 POP PUSH32 0x45524332303A206275726E2066726F6D20746865207A65726F20616464726573 PUSH1 0x0 DUP4 ADD MSTORE PUSH32 0x7300000000000000000000000000000000000000000000000000000000000000 PUSH1 0x20 DUP4 ADD MSTORE PUSH1 0x40 DUP3 ADD SWAP1 POP SWAP2 SWAP1 POP JUMP JUMPDEST PUSH1 0x0 PUSH2 0x2BA7 PUSH1 0x25 DUP4 PUSH2 0x326A JUMP JUMPDEST SWAP2 POP PUSH32 0x45524332303A207472616E736665722066726F6D20746865207A65726F206164 PUSH1 0x0 DUP4 ADD MSTORE PUSH32 0x6472657373000000000000000000000000000000000000000000000000000000 PUSH1 0x20 DUP4 ADD MSTORE PUSH1 0x40 DUP3 ADD SWAP1 POP SWAP2 SWAP1 POP JUMP JUMPDEST PUSH1 0x0 PUSH2 0x2C0D PUSH1 0x24 DUP4 PUSH2 0x326A JUMP JUMPDEST SWAP2 POP PUSH32 0x45524332303A20617070726F76652066726F6D20746865207A65726F20616464 PUSH1 0x0 DUP4 ADD MSTORE PUSH32 0x7265737300000000000000000000000000000000000000000000000000000000 PUSH1 0x20 DUP4 ADD MSTORE PUSH1 0x40 DUP3 ADD SWAP1 POP SWAP2 SWAP1 POP JUMP JUMPDEST PUSH1 0x0 PUSH2 0x2C73 PUSH1 0x37 DUP4 PUSH2 0x326A JUMP JUMPDEST SWAP2 POP PUSH32 0x45524332305072657365744D696E7465725061757365723A206D757374206861 PUSH1 0x0 DUP4 ADD MSTORE PUSH32 0x76652070617573657220726F6C6520746F207061757365000000000000000000 PUSH1 0x20 DUP4 ADD MSTORE PUSH1 0x40 DUP3 ADD SWAP1 POP SWAP2 SWAP1 POP JUMP JUMPDEST PUSH1 0x0 PUSH2 0x2CD9 PUSH1 0x17 DUP4 PUSH2 0x327B JUMP JUMPDEST SWAP2 POP PUSH32 0x416363657373436F6E74726F6C3A206163636F756E7420000000000000000000 PUSH1 0x0 DUP4 ADD MSTORE PUSH1 0x17 DUP3 ADD SWAP1 POP SWAP2 SWAP1 POP JUMP JUMPDEST PUSH1 0x0 PUSH2 0x2D19 PUSH1 0x25 DUP4 PUSH2 0x326A JUMP JUMPDEST SWAP2 POP PUSH32 0x45524332303A2064656372656173656420616C6C6F77616E63652062656C6F77 PUSH1 0x0 DUP4 ADD MSTORE PUSH32 0x207A65726F000000000000000000000000000000000000000000000000000000 PUSH1 0x20 DUP4 ADD MSTORE PUSH1 0x40 DUP3 ADD SWAP1 POP SWAP2 SWAP1 POP JUMP JUMPDEST PUSH1 0x0 PUSH2 0x2D7F PUSH1 0x11 DUP4 PUSH2 0x327B JUMP JUMPDEST SWAP2 POP PUSH32 0x206973206D697373696E6720726F6C6520000000000000000000000000000000 PUSH1 0x0 DUP4 ADD MSTORE PUSH1 0x11 DUP3 ADD SWAP1 POP SWAP2 SWAP1 POP JUMP JUMPDEST PUSH1 0x0 PUSH2 0x2DBF PUSH1 0x2F DUP4 PUSH2 0x326A JUMP JUMPDEST SWAP2 POP PUSH32 0x416363657373436F6E74726F6C3A2063616E206F6E6C792072656E6F756E6365 PUSH1 0x0 DUP4 ADD MSTORE PUSH32 0x20726F6C657320666F722073656C660000000000000000000000000000000000 PUSH1 0x20 DUP4 ADD MSTORE PUSH1 0x40 DUP3 ADD SWAP1 POP SWAP2 SWAP1 POP JUMP JUMPDEST PUSH1 0x0 PUSH2 0x2E25 PUSH1 0x1F DUP4 PUSH2 0x326A JUMP JUMPDEST SWAP2 POP PUSH32 0x45524332303A206D696E7420746F20746865207A65726F206164647265737300 PUSH1 0x0 DUP4 ADD MSTORE PUSH1 0x20 DUP3 ADD SWAP1 POP SWAP2 SWAP1 POP JUMP JUMPDEST PUSH1 0x0 PUSH2 0x2E65 PUSH1 0x2A DUP4 PUSH2 0x326A JUMP JUMPDEST SWAP2 POP PUSH32 0x45524332305061757361626C653A20746F6B656E207472616E73666572207768 PUSH1 0x0 DUP4 ADD MSTORE PUSH32 0x696C652070617573656400000000000000000000000000000000000000000000 PUSH1 0x20 DUP4 ADD MSTORE PUSH1 0x40 DUP3 ADD SWAP1 POP SWAP2 SWAP1 POP JUMP JUMPDEST PUSH2 0x2EC7 DUP2 PUSH2 0x33DE JUMP JUMPDEST DUP3 MSTORE POP POP JUMP JUMPDEST PUSH2 0x2ED6 DUP2 PUSH2 0x33E8 JUMP JUMPDEST DUP3 MSTORE POP POP JUMP JUMPDEST PUSH1 0x0 PUSH2 0x2EE7 DUP3 PUSH2 0x2CCC JUMP JUMPDEST SWAP2 POP PUSH2 0x2EF3 DUP3 DUP6 PUSH2 0x2647 JUMP JUMPDEST SWAP2 POP PUSH2 0x2EFE DUP3 PUSH2 0x2D72 JUMP JUMPDEST SWAP2 POP PUSH2 0x2F0A DUP3 DUP5 PUSH2 0x2647 JUMP JUMPDEST SWAP2 POP DUP2 SWAP1 POP SWAP4 SWAP3 POP POP POP JUMP JUMPDEST PUSH1 0x0 PUSH1 0x20 DUP3 ADD SWAP1 POP PUSH2 0x2F2B PUSH1 0x0 DUP4 ADD DUP5 PUSH2 0x25E1 JUMP JUMPDEST SWAP3 SWAP2 POP POP JUMP JUMPDEST PUSH1 0x0 PUSH1 0x20 DUP3 ADD SWAP1 POP PUSH2 0x2F46 PUSH1 0x0 DUP4 ADD DUP5 PUSH2 0x25F0 JUMP JUMPDEST SWAP3 SWAP2 POP POP JUMP JUMPDEST PUSH1 0x0 PUSH1 0x20 DUP3 ADD SWAP1 POP PUSH2 0x2F61 PUSH1 0x0 DUP4 ADD DUP5 PUSH2 0x25FF JUMP JUMPDEST SWAP3 SWAP2 POP POP JUMP JUMPDEST PUSH1 0x0 PUSH1 0x20 DUP3 ADD SWAP1 POP DUP2 DUP2 SUB PUSH1 0x0 DUP4 ADD MSTORE PUSH2 0x2F81 DUP2 DUP5 PUSH2 0x260E JUMP JUMPDEST SWAP1 POP SWAP3 SWAP2 POP POP JUMP JUMPDEST PUSH1 0x0 PUSH1 0x20 DUP3 ADD SWAP1 POP DUP2 DUP2 SUB PUSH1 0x0 DUP4 ADD MSTORE PUSH2 0x2FA2 DUP2 PUSH2 0x2678 JUMP JUMPDEST SWAP1 POP SWAP2 SWAP1 POP JUMP JUMPDEST PUSH1 0x0 PUSH1 0x20 DUP3 ADD SWAP1 POP DUP2 DUP2 SUB PUSH1 0x0 DUP4 ADD MSTORE PUSH2 0x2FC2 DUP2 PUSH2 0x26B8 JUMP JUMPDEST SWAP1 POP SWAP2 SWAP1 POP JUMP JUMPDEST PUSH1 0x0 PUSH1 0x20 DUP3 ADD SWAP1 POP DUP2 DUP2 SUB PUSH1 0x0 DUP4 ADD MSTORE PUSH2 0x2FE2 DUP2 PUSH2 0x271E JUMP JUMPDEST SWAP1 POP SWAP2 SWAP1 POP JUMP JUMPDEST PUSH1 0x0 PUSH1 0x20 DUP3 ADD SWAP1 POP DUP2 DUP2 SUB PUSH1 0x0 DUP4 ADD MSTORE PUSH2 0x3002 DUP2 PUSH2 0x2784 JUMP JUMPDEST SWAP1 POP SWAP2 SWAP1 POP JUMP JUMPDEST PUSH1 0x0 PUSH1 0x20 DUP3 ADD SWAP1 POP DUP2 DUP2 SUB PUSH1 0x0 DUP4 ADD MSTORE PUSH2 0x3022 DUP2 PUSH2 0x27C4 JUMP JUMPDEST SWAP1 POP SWAP2 SWAP1 POP JUMP JUMPDEST PUSH1 0x0 PUSH1 0x20 DUP3 ADD SWAP1 POP DUP2 DUP2 SUB PUSH1 0x0 DUP4 ADD MSTORE PUSH2 0x3042 DUP2 PUSH2 0x282A JUMP JUMPDEST SWAP1 POP SWAP2 SWAP1 POP JUMP JUMPDEST PUSH1 0x0 PUSH1 0x20 DUP3 ADD SWAP1 POP DUP2 DUP2 SUB PUSH1 0x0 DUP4 ADD MSTORE PUSH2 0x3062 DUP2 PUSH2 0x28B6 JUMP JUMPDEST SWAP1 POP SWAP2 SWAP1 POP JUMP JUMPDEST PUSH1 0x0 PUSH1 0x20 DUP3 ADD SWAP1 POP DUP2 DUP2 SUB PUSH1 0x0 DUP4 ADD MSTORE PUSH2 0x3082 DUP2 PUSH2 0x291C JUMP JUMPDEST SWAP1 POP SWAP2 SWAP1 POP JUMP JUMPDEST PUSH1 0x0 PUSH1 0x20 DUP3 ADD SWAP1 POP DUP2 DUP2 SUB PUSH1 0x0 DUP4 ADD MSTORE PUSH2 0x30A2 DUP2 PUSH2 0x2982 JUMP JUMPDEST SWAP1 POP SWAP2 SWAP1 POP JUMP JUMPDEST PUSH1 0x0 PUSH1 0x20 DUP3 ADD SWAP1 POP DUP2 DUP2 SUB PUSH1 0x0 DUP4 ADD MSTORE PUSH2 0x30C2 DUP2 PUSH2 0x29C2 JUMP JUMPDEST SWAP1 POP SWAP2 SWAP1 POP JUMP JUMPDEST PUSH1 0x0 PUSH1 0x20 DUP3 ADD SWAP1 POP DUP2 DUP2 SUB PUSH1 0x0 DUP4 ADD MSTORE PUSH2 0x30E2 DUP2 PUSH2 0x2A28 JUMP JUMPDEST SWAP1 POP SWAP2 SWAP1 POP JUMP JUMPDEST PUSH1 0x0 PUSH1 0x20 DUP3 ADD SWAP1 POP DUP2 DUP2 SUB PUSH1 0x0 DUP4 ADD MSTORE PUSH2 0x3102 DUP2 PUSH2 0x2A8E JUMP JUMPDEST SWAP1 POP SWAP2 SWAP1 POP JUMP JUMPDEST PUSH1 0x0 PUSH1 0x20 DUP3 ADD SWAP1 POP DUP2 DUP2 SUB PUSH1 0x0 DUP4 ADD MSTORE PUSH2 0x3122 DUP2 PUSH2 0x2AF4 JUMP JUMPDEST SWAP1 POP SWAP2 SWAP1 POP JUMP JUMPDEST PUSH1 0x0 PUSH1 0x20 DUP3 ADD SWAP1 POP DUP2 DUP2 SUB PUSH1 0x0 DUP4 ADD MSTORE PUSH2 0x3142 DUP2 PUSH2 0x2B34 JUMP JUMPDEST SWAP1 POP SWAP2 SWAP1 POP JUMP JUMPDEST PUSH1 0x0 PUSH1 0x20 DUP3 ADD SWAP1 POP DUP2 DUP2 SUB PUSH1 0x0 DUP4 ADD MSTORE PUSH2 0x3162 DUP2 PUSH2 0x2B9A JUMP JUMPDEST SWAP1 POP SWAP2 SWAP1 POP JUMP JUMPDEST PUSH1 0x0 PUSH1 0x20 DUP3 ADD SWAP1 POP DUP2 DUP2 SUB PUSH1 0x0 DUP4 ADD MSTORE PUSH2 0x3182 DUP2 PUSH2 0x2C00 JUMP JUMPDEST SWAP1 POP SWAP2 SWAP1 POP JUMP JUMPDEST PUSH1 0x0 PUSH1 0x20 DUP3 ADD SWAP1 POP DUP2 DUP2 SUB PUSH1 0x0 DUP4 ADD MSTORE PUSH2 0x31A2 DUP2 PUSH2 0x2C66 JUMP JUMPDEST SWAP1 POP SWAP2 SWAP1 POP JUMP JUMPDEST PUSH1 0x0 PUSH1 0x20 DUP3 ADD SWAP1 POP DUP2 DUP2 SUB PUSH1 0x0 DUP4 ADD MSTORE PUSH2 0x31C2 DUP2 PUSH2 0x2D0C JUMP JUMPDEST SWAP1 POP SWAP2 SWAP1 POP JUMP JUMPDEST PUSH1 0x0 PUSH1 0x20 DUP3 ADD SWAP1 POP DUP2 DUP2 SUB PUSH1 0x0 DUP4 ADD MSTORE PUSH2 0x31E2 DUP2 PUSH2 0x2DB2 JUMP JUMPDEST SWAP1 POP SWAP2 SWAP1 POP JUMP JUMPDEST PUSH1 0x0 PUSH1 0x20 DUP3 ADD SWAP1 POP DUP2 DUP2 SUB PUSH1 0x0 DUP4 ADD MSTORE PUSH2 0x3202 DUP2 PUSH2 0x2E18 JUMP JUMPDEST SWAP1 POP SWAP2 SWAP1 POP JUMP JUMPDEST PUSH1 0x0 PUSH1 0x20 DUP3 ADD SWAP1 POP DUP2 DUP2 SUB PUSH1 0x0 DUP4 ADD MSTORE PUSH2 0x3222 DUP2 PUSH2 0x2E58 JUMP JUMPDEST SWAP1 POP SWAP2 SWAP1 POP JUMP JUMPDEST PUSH1 0x0 PUSH1 0x20 DUP3 ADD SWAP1 POP PUSH2 0x323E PUSH1 0x0 DUP4 ADD DUP5 PUSH2 0x2EBE JUMP JUMPDEST SWAP3 SWAP2 POP POP JUMP JUMPDEST PUSH1 0x0 PUSH1 0x20 DUP3 ADD SWAP1 POP PUSH2 0x3259 PUSH1 0x0 DUP4 ADD DUP5 PUSH2 0x2ECD JUMP JUMPDEST SWAP3 SWAP2 POP POP JUMP JUMPDEST PUSH1 0x0 DUP2 MLOAD SWAP1 POP SWAP2 SWAP1 POP JUMP JUMPDEST PUSH1 0x0 DUP3 DUP3 MSTORE PUSH1 0x20 DUP3 ADD SWAP1 POP SWAP3 SWAP2 POP POP JUMP JUMPDEST PUSH1 0x0 DUP2 SWAP1 POP SWAP3 SWAP2 POP POP JUMP JUMPDEST PUSH1 0x0 PUSH2 0x3291 DUP3 PUSH2 0x33DE JUMP JUMPDEST SWAP2 POP PUSH2 0x329C DUP4 PUSH2 0x33DE JUMP JUMPDEST SWAP3 POP DUP3 PUSH32 0xFFFFFFFFFFFFFFFFFFFFFFFFFFFFFFFFFFFFFFFFFFFFFFFFFFFFFFFFFFFFFFFF SUB DUP3 GT ISZERO PUSH2 0x32D1 JUMPI PUSH2 0x32D0 PUSH2 0x3484 JUMP JUMPDEST JUMPDEST DUP3 DUP3 ADD SWAP1 POP SWAP3 SWAP2 POP POP JUMP JUMPDEST PUSH1 0x0 PUSH2 0x32E7 DUP3 PUSH2 0x33DE JUMP JUMPDEST SWAP2 POP PUSH2 0x32F2 DUP4 PUSH2 0x33DE JUMP JUMPDEST SWAP3 POP DUP2 PUSH32 0xFFFFFFFFFFFFFFFFFFFFFFFFFFFFFFFFFFFFFFFFFFFFFFFFFFFFFFFFFFFFFFFF DIV DUP4 GT DUP3 ISZERO ISZERO AND ISZERO PUSH2 0x332B JUMPI PUSH2 0x332A PUSH2 0x3484 JUMP JUMPDEST JUMPDEST DUP3 DUP3 MUL SWAP1 POP SWAP3 SWAP2 POP POP JUMP JUMPDEST PUSH1 0x0 PUSH2 0x3341 DUP3 PUSH2 0x33DE JUMP JUMPDEST SWAP2 POP PUSH2 0x334C DUP4 PUSH2 0x33DE JUMP JUMPDEST SWAP3 POP DUP3 DUP3 LT ISZERO PUSH2 0x335F JUMPI PUSH2 0x335E PUSH2 0x3484 JUMP JUMPDEST JUMPDEST DUP3 DUP3 SUB SWAP1 POP SWAP3 SWAP2 POP POP JUMP JUMPDEST PUSH1 0x0 PUSH2 0x3375 DUP3 PUSH2 0x33BE JUMP JUMPDEST SWAP1 POP SWAP2 SWAP1 POP JUMP JUMPDEST PUSH1 0x0 DUP2 ISZERO ISZERO SWAP1 POP SWAP2 SWAP1 POP JUMP JUMPDEST PUSH1 0x0 DUP2 SWAP1 POP SWAP2 SWAP1 POP JUMP JUMPDEST PUSH1 0x0 PUSH32 0xFFFFFFFF00000000000000000000000000000000000000000000000000000000 DUP3 AND SWAP1 POP SWAP2 SWAP1 POP JUMP JUMPDEST PUSH1 0x0 PUSH20 0xFFFFFFFFFFFFFFFFFFFFFFFFFFFFFFFFFFFFFFFF DUP3 AND SWAP1 POP SWAP2 SWAP1 POP JUMP JUMPDEST PUSH1 0x0 DUP2 SWAP1 POP SWAP2 SWAP1 POP JUMP JUMPDEST PUSH1 0x0 PUSH1 0xFF DUP3 AND SWAP1 POP SWAP2 SWAP1 POP JUMP JUMPDEST PUSH1 0x0 JUMPDEST DUP4 DUP2 LT ISZERO PUSH2 0x3413 JUMPI DUP1 DUP3 ADD MLOAD DUP2 DUP5 ADD MSTORE PUSH1 0x20 DUP2 ADD SWAP1 POP PUSH2 0x33F8 JUMP JUMPDEST DUP4 DUP2 GT ISZERO PUSH2 0x3422 JUMPI PUSH1 0x0 DUP5 DUP5 ADD MSTORE JUMPDEST POP POP POP POP JUMP JUMPDEST PUSH1 0x0 PUSH2 0x3433 DUP3 PUSH2 0x33DE JUMP JUMPDEST SWAP2 POP PUSH1 0x0 DUP3 EQ ISZERO PUSH2 0x3447 JUMPI PUSH2 0x3446 PUSH2 0x3484 JUMP JUMPDEST JUMPDEST PUSH1 0x1 DUP3 SUB SWAP1 POP SWAP2 SWAP1 POP JUMP JUMPDEST PUSH1 0x0 PUSH1 0x2 DUP3 DIV SWAP1 POP PUSH1 0x1 DUP3 AND DUP1 PUSH2 0x346A JUMPI PUSH1 0x7F DUP3 AND SWAP2 POP JUMPDEST PUSH1 0x20 DUP3 LT DUP2 EQ ISZERO PUSH2 0x347E JUMPI PUSH2 0x347D PUSH2 0x34B3 JUMP JUMPDEST JUMPDEST POP SWAP2 SWAP1 POP JUMP JUMPDEST PUSH32 0x4E487B7100000000000000000000000000000000000000000000000000000000 PUSH1 0x0 MSTORE PUSH1 0x11 PUSH1 0x4 MSTORE PUSH1 0x24 PUSH1 0x0 REVERT JUMPDEST PUSH32 0x4E487B7100000000000000000000000000000000000000000000000000000000 PUSH1 0x0 MSTORE PUSH1 0x22 PUSH1 0x4 MSTORE PUSH1 0x24 PUSH1 0x0 REVERT JUMPDEST PUSH1 0x0 PUSH1 0x1F NOT PUSH1 0x1F DUP4 ADD AND SWAP1 POP SWAP2 SWAP1 POP JUMP JUMPDEST PUSH2 0x34FC DUP2 PUSH2 0x336A JUMP JUMPDEST DUP2 EQ PUSH2 0x3507 JUMPI PUSH1 0x0 DUP1 REVERT JUMPDEST POP JUMP JUMPDEST PUSH2 0x3513 DUP2 PUSH2 0x3388 JUMP JUMPDEST DUP2 EQ PUSH2 0x351E JUMPI PUSH1 0x0 DUP1 REVERT JUMPDEST POP JUMP JUMPDEST PUSH2 0x352A DUP2 PUSH2 0x3392 JUMP JUMPDEST DUP2 EQ PUSH2 0x3535 JUMPI PUSH1 0x0 DUP1 REVERT JUMPDEST POP JUMP JUMPDEST PUSH2 0x3541 DUP2 PUSH2 0x33DE JUMP JUMPDEST DUP2 EQ PUSH2 0x354C JUMPI PUSH1 0x0 DUP1 REVERT JUMPDEST POP JUMP INVALID LOG2 PUSH5 0x6970667358 0x22 SLT KECCAK256 CALLDATALOAD DUP14 SWAP7 SHL CODECOPY 0x29 BYTE 0x21 0xBE CALLCODE ADDMOD 0x2F PUSH31 0xEF6ECC1FFBBF2166F4AF07D662630319C41A1864736F6C6343000800003300 "
		},
		"gasEstimates": {
			"creation": {
				"codeDepositCost": "2740200",
				"executionCost": "infinite",
				"totalCost": "infinite"
			},
			"external": {
				"DEFAULT_ADMIN_ROLE()": "380",
				"MINTER_ROLE()": "373",
				"PAUSER_ROLE()": "439",
				"allowance(address,address)": "infinite",
				"approve(address,uint256)": "infinite",
				"balanceOf(address)": "1587",
				"burn(uint256)": "infinite",
				"burnFrom(address,uint256)": "infinite",
				"decimals()": "389",
				"decreaseAllowance(address,uint256)": "infinite",
				"getRoleAdmin(bytes32)": "infinite",
				"getRoleMember(bytes32,uint256)": "infinite",
				"getRoleMemberCount(bytes32)": "1697",
				"grantRole(bytes32,address)": "infinite",
				"hasRole(bytes32,address)": "1907",
				"increaseAllowance(address,uint256)": "infinite",
				"mint(address,uint256)": "infinite",
				"name()": "infinite",
				"pause()": "infinite",
				"paused()": "1290",
				"renounceRole(bytes32,address)": "infinite",
				"revokeRole(bytes32,address)": "infinite",
				"setCD(uint256)": "21672",
				"supportsInterface(bytes4)": "863",
				"symbol()": "infinite",
				"totalSupply()": "1183",
				"transfer(address,uint256)": "infinite",
				"transferFrom(address,address,uint256)": "infinite",
				"unpause()": "infinite"
			},
			"internal": {
				"_beforeTokenTransfer(address,address,uint256)": "infinite"
			}
		},
		"methodIdentifiers": {
			"DEFAULT_ADMIN_ROLE()": "a217fddf",
			"MINTER_ROLE()": "d5391393",
			"PAUSER_ROLE()": "e63ab1e9",
			"allowance(address,address)": "dd62ed3e",
			"approve(address,uint256)": "095ea7b3",
			"balanceOf(address)": "70a08231",
			"burn(uint256)": "42966c68",
			"burnFrom(address,uint256)": "79cc6790",
			"decimals()": "313ce567",
			"decreaseAllowance(address,uint256)": "a457c2d7",
			"getRoleAdmin(bytes32)": "248a9ca3",
			"getRoleMember(bytes32,uint256)": "9010d07c",
			"getRoleMemberCount(bytes32)": "ca15c873",
			"grantRole(bytes32,address)": "2f2ff15d",
			"hasRole(bytes32,address)": "91d14854",
			"increaseAllowance(address,uint256)": "39509351",
			"mint(address,uint256)": "40c10f19",
			"name()": "06fdde03",
			"pause()": "8456cb59",
			"paused()": "5c975abb",
			"renounceRole(bytes32,address)": "36568abe",
			"revokeRole(bytes32,address)": "d547741f",
			"setCD(uint256)": "a0efc62d",
			"supportsInterface(bytes4)": "01ffc9a7",
			"symbol()": "95d89b41",
			"totalSupply()": "18160ddd",
			"transfer(address,uint256)": "a9059cbb",
			"transferFrom(address,address,uint256)": "23b872dd",
			"unpause()": "3f4ba83a"
		}
	},
	"abi": [
		{
			"inputs": [
				{
					"internalType": "string",
					"name": "name",
					"type": "string"
				},
				{
					"internalType": "string",
					"name": "symbol",
					"type": "string"
				}
			],
			"stateMutability": "nonpayable",
			"type": "constructor"
		},
		{
			"anonymous": false,
			"inputs": [
				{
					"indexed": true,
					"internalType": "address",
					"name": "owner",
					"type": "address"
				},
				{
					"indexed": true,
					"internalType": "address",
					"name": "spender",
					"type": "address"
				},
				{
					"indexed": false,
					"internalType": "uint256",
					"name": "value",
					"type": "uint256"
				}
			],
			"name": "Approval",
			"type": "event"
		},
		{
			"anonymous": false,
			"inputs": [
				{
					"indexed": false,
					"internalType": "address",
					"name": "account",
					"type": "address"
				}
			],
			"name": "Paused",
			"type": "event"
		},
		{
			"anonymous": false,
			"inputs": [
				{
					"indexed": true,
					"internalType": "bytes32",
					"name": "role",
					"type": "bytes32"
				},
				{
					"indexed": true,
					"internalType": "bytes32",
					"name": "previousAdminRole",
					"type": "bytes32"
				},
				{
					"indexed": true,
					"internalType": "bytes32",
					"name": "newAdminRole",
					"type": "bytes32"
				}
			],
			"name": "RoleAdminChanged",
			"type": "event"
		},
		{
			"anonymous": false,
			"inputs": [
				{
					"indexed": true,
					"internalType": "bytes32",
					"name": "role",
					"type": "bytes32"
				},
				{
					"indexed": true,
					"internalType": "address",
					"name": "account",
					"type": "address"
				},
				{
					"indexed": true,
					"internalType": "address",
					"name": "sender",
					"type": "address"
				}
			],
			"name": "RoleGranted",
			"type": "event"
		},
		{
			"anonymous": false,
			"inputs": [
				{
					"indexed": true,
					"internalType": "bytes32",
					"name": "role",
					"type": "bytes32"
				},
				{
					"indexed": true,
					"internalType": "address",
					"name": "account",
					"type": "address"
				},
				{
					"indexed": true,
					"internalType": "address",
					"name": "sender",
					"type": "address"
				}
			],
			"name": "RoleRevoked",
			"type": "event"
		},
		{
			"anonymous": false,
			"inputs": [
				{
					"indexed": true,
					"internalType": "address",
					"name": "from",
					"type": "address"
				},
				{
					"indexed": true,
					"internalType": "address",
					"name": "to",
					"type": "address"
				},
				{
					"indexed": false,
					"internalType": "uint256",
					"name": "value",
					"type": "uint256"
				}
			],
			"name": "Transfer",
			"type": "event"
		},
		{
			"anonymous": false,
			"inputs": [
				{
					"indexed": false,
					"internalType": "address",
					"name": "account",
					"type": "address"
				}
			],
			"name": "Unpaused",
			"type": "event"
		},
		{
			"inputs": [],
			"name": "DEFAULT_ADMIN_ROLE",
			"outputs": [
				{
					"internalType": "bytes32",
					"name": "",
					"type": "bytes32"
				}
			],
			"stateMutability": "view",
			"type": "function"
		},
		{
			"inputs": [],
			"name": "MINTER_ROLE",
			"outputs": [
				{
					"internalType": "bytes32",
					"name": "",
					"type": "bytes32"
				}
			],
			"stateMutability": "view",
			"type": "function"
		},
		{
			"inputs": [],
			"name": "PAUSER_ROLE",
			"outputs": [
				{
					"internalType": "bytes32",
					"name": "",
					"type": "bytes32"
				}
			],
			"stateMutability": "view",
			"type": "function"
		},
		{
			"inputs": [
				{
					"internalType": "address",
					"name": "owner",
					"type": "address"
				},
				{
					"internalType": "address",
					"name": "spender",
					"type": "address"
				}
			],
			"name": "allowance",
			"outputs": [
				{
					"internalType": "uint256",
					"name": "",
					"type": "uint256"
				}
			],
			"stateMutability": "view",
			"type": "function"
		},
		{
			"inputs": [
				{
					"internalType": "address",
					"name": "spender",
					"type": "address"
				},
				{
					"internalType": "uint256",
					"name": "amount",
					"type": "uint256"
				}
			],
			"name": "approve",
			"outputs": [
				{
					"internalType": "bool",
					"name": "",
					"type": "bool"
				}
			],
			"stateMutability": "nonpayable",
			"type": "function"
		},
		{
			"inputs": [
				{
					"internalType": "address",
					"name": "account",
					"type": "address"
				}
			],
			"name": "balanceOf",
			"outputs": [
				{
					"internalType": "uint256",
					"name": "",
					"type": "uint256"
				}
			],
			"stateMutability": "view",
			"type": "function"
		},
		{
			"inputs": [
				{
					"internalType": "uint256",
					"name": "amount",
					"type": "uint256"
				}
			],
			"name": "burn",
			"outputs": [],
			"stateMutability": "nonpayable",
			"type": "function"
		},
		{
			"inputs": [
				{
					"internalType": "address",
					"name": "account",
					"type": "address"
				},
				{
					"internalType": "uint256",
					"name": "amount",
					"type": "uint256"
				}
			],
			"name": "burnFrom",
			"outputs": [],
			"stateMutability": "nonpayable",
			"type": "function"
		},
		{
			"inputs": [],
			"name": "decimals",
			"outputs": [
				{
					"internalType": "uint8",
					"name": "",
					"type": "uint8"
				}
			],
			"stateMutability": "view",
			"type": "function"
		},
		{
			"inputs": [
				{
					"internalType": "address",
					"name": "spender",
					"type": "address"
				},
				{
					"internalType": "uint256",
					"name": "subtractedValue",
					"type": "uint256"
				}
			],
			"name": "decreaseAllowance",
			"outputs": [
				{
					"internalType": "bool",
					"name": "",
					"type": "bool"
				}
			],
			"stateMutability": "nonpayable",
			"type": "function"
		},
		{
			"inputs": [
				{
					"internalType": "bytes32",
					"name": "role",
					"type": "bytes32"
				}
			],
			"name": "getRoleAdmin",
			"outputs": [
				{
					"internalType": "bytes32",
					"name": "",
					"type": "bytes32"
				}
			],
			"stateMutability": "view",
			"type": "function"
		},
		{
			"inputs": [
				{
					"internalType": "bytes32",
					"name": "role",
					"type": "bytes32"
				},
				{
					"internalType": "uint256",
					"name": "index",
					"type": "uint256"
				}
			],
			"name": "getRoleMember",
			"outputs": [
				{
					"internalType": "address",
					"name": "",
					"type": "address"
				}
			],
			"stateMutability": "view",
			"type": "function"
		},
		{
			"inputs": [
				{
					"internalType": "bytes32",
					"name": "role",
					"type": "bytes32"
				}
			],
			"name": "getRoleMemberCount",
			"outputs": [
				{
					"internalType": "uint256",
					"name": "",
					"type": "uint256"
				}
			],
			"stateMutability": "view",
			"type": "function"
		},
		{
			"inputs": [
				{
					"internalType": "bytes32",
					"name": "role",
					"type": "bytes32"
				},
				{
					"internalType": "address",
					"name": "account",
					"type": "address"
				}
			],
			"name": "grantRole",
			"outputs": [],
			"stateMutability": "nonpayable",
			"type": "function"
		},
		{
			"inputs": [
				{
					"internalType": "bytes32",
					"name": "role",
					"type": "bytes32"
				},
				{
					"internalType": "address",
					"name": "account",
					"type": "address"
				}
			],
			"name": "hasRole",
			"outputs": [
				{
					"internalType": "bool",
					"name": "",
					"type": "bool"
				}
			],
			"stateMutability": "view",
			"type": "function"
		},
		{
			"inputs": [
				{
					"internalType": "address",
					"name": "spender",
					"type": "address"
				},
				{
					"internalType": "uint256",
					"name": "addedValue",
					"type": "uint256"
				}
			],
			"name": "increaseAllowance",
			"outputs": [
				{
					"internalType": "bool",
					"name": "",
					"type": "bool"
				}
			],
			"stateMutability": "nonpayable",
			"type": "function"
		},
		{
			"inputs": [
				{
					"internalType": "address",
					"name": "to",
					"type": "address"
				},
				{
					"internalType": "uint256",
					"name": "amount",
					"type": "uint256"
				}
			],
			"name": "mint",
			"outputs": [],
			"stateMutability": "nonpayable",
			"type": "function"
		},
		{
			"inputs": [],
			"name": "name",
			"outputs": [
				{
					"internalType": "string",
					"name": "",
					"type": "string"
				}
			],
			"stateMutability": "view",
			"type": "function"
		},
		{
			"inputs": [],
			"name": "pause",
			"outputs": [],
			"stateMutability": "nonpayable",
			"type": "function"
		},
		{
			"inputs": [],
			"name": "paused",
			"outputs": [
				{
					"internalType": "bool",
					"name": "",
					"type": "bool"
				}
			],
			"stateMutability": "view",
			"type": "function"
		},
		{
			"inputs": [
				{
					"internalType": "bytes32",
					"name": "role",
					"type": "bytes32"
				},
				{
					"internalType": "address",
					"name": "account",
					"type": "address"
				}
			],
			"name": "renounceRole",
			"outputs": [],
			"stateMutability": "nonpayable",
			"type": "function"
		},
		{
			"inputs": [
				{
					"internalType": "bytes32",
					"name": "role",
					"type": "bytes32"
				},
				{
					"internalType": "address",
					"name": "account",
					"type": "address"
				}
			],
			"name": "revokeRole",
			"outputs": [],
			"stateMutability": "nonpayable",
			"type": "function"
		},
		{
			"inputs": [
				{
					"internalType": "uint256",
					"name": "_CDtime",
					"type": "uint256"
				}
			],
			"name": "setCD",
			"outputs": [],
			"stateMutability": "nonpayable",
			"type": "function"
		},
		{
			"inputs": [
				{
					"internalType": "bytes4",
					"name": "interfaceId",
					"type": "bytes4"
				}
			],
			"name": "supportsInterface",
			"outputs": [
				{
					"internalType": "bool",
					"name": "",
					"type": "bool"
				}
			],
			"stateMutability": "view",
			"type": "function"
		},
		{
			"inputs": [],
			"name": "symbol",
			"outputs": [
				{
					"internalType": "string",
					"name": "",
					"type": "string"
				}
			],
			"stateMutability": "view",
			"type": "function"
		},
		{
			"inputs": [],
			"name": "totalSupply",
			"outputs": [
				{
					"internalType": "uint256",
					"name": "",
					"type": "uint256"
				}
			],
			"stateMutability": "view",
			"type": "function"
		},
		{
			"inputs": [
				{
					"internalType": "address",
					"name": "recipient",
					"type": "address"
				},
				{
					"internalType": "uint256",
					"name": "amount",
					"type": "uint256"
				}
			],
			"name": "transfer",
			"outputs": [
				{
					"internalType": "bool",
					"name": "",
					"type": "bool"
				}
			],
			"stateMutability": "nonpayable",
			"type": "function"
		},
		{
			"inputs": [
				{
					"internalType": "address",
					"name": "sender",
					"type": "address"
				},
				{
					"internalType": "address",
					"name": "recipient",
					"type": "address"
				},
				{
					"internalType": "uint256",
					"name": "amount",
					"type": "uint256"
				}
			],
			"name": "transferFrom",
			"outputs": [
				{
					"internalType": "bool",
					"name": "",
					"type": "bool"
				}
			],
			"stateMutability": "nonpayable",
			"type": "function"
		},
		{
			"inputs": [],
			"name": "unpause",
			"outputs": [],
			"stateMutability": "nonpayable",
			"type": "function"
		}
	]
}